{
  "_format": "hh-sol-artifact-1",
  "contractName": "VotingDAO",
  "sourceName": "contracts/DAO.sol",
  "abi": [
    {
      "inputs": [
        {
          "internalType": "uint256",
          "name": "_requiredVotes",
          "type": "uint256"
        }
      ],
      "stateMutability": "nonpayable",
      "type": "constructor"
    },
    {
      "inputs": [
        {
          "internalType": "address",
          "name": "_voter",
          "type": "address"
        }
      ],
      "name": "addVoter",
      "outputs": [],
      "stateMutability": "nonpayable",
      "type": "function"
    },
    {
      "inputs": [
        {
          "internalType": "string",
          "name": "_proposalName",
          "type": "string"
        },
        {
          "internalType": "string",
          "name": "_description",
          "type": "string"
        }
      ],
      "name": "createProposal",
      "outputs": [],
      "stateMutability": "nonpayable",
      "type": "function"
    },
    {
      "inputs": [
        {
          "internalType": "string",
          "name": "_proposalName",
          "type": "string"
        }
      ],
      "name": "getProposalStatus",
      "outputs": [
        {
          "internalType": "bool",
          "name": "",
          "type": "bool"
        }
      ],
      "stateMutability": "view",
      "type": "function"
    },
    {
      "inputs": [
        {
          "internalType": "uint256",
          "name": "from",
          "type": "uint256"
        },
        {
          "internalType": "uint256",
          "name": "to",
          "type": "uint256"
        }
      ],
      "name": "getProposalsWithCurrentStatuses",
      "outputs": [
        {
          "components": [
            {
              "internalType": "string",
              "name": "proposalName",
              "type": "string"
            },
            {
              "internalType": "string",
              "name": "description",
              "type": "string"
            },
            {
              "internalType": "uint256",
              "name": "yesVotes",
              "type": "uint256"
            },
            {
              "internalType": "uint256",
              "name": "noVotes",
              "type": "uint256"
            },
            {
              "internalType": "enum VotingDAO.CurrentStatus",
              "name": "status",
              "type": "uint8"
            }
          ],
          "internalType": "struct VotingDAO.Proposal[]",
          "name": "",
          "type": "tuple[]"
        }
      ],
      "stateMutability": "view",
      "type": "function"
    },
    {
      "inputs": [],
      "name": "owner",
      "outputs": [
        {
          "internalType": "address",
          "name": "",
          "type": "address"
        }
      ],
      "stateMutability": "view",
      "type": "function"
    },
    {
      "inputs": [
        {
          "internalType": "string",
          "name": "",
          "type": "string"
        }
      ],
      "name": "proposals",
      "outputs": [
        {
          "internalType": "string",
          "name": "proposalName",
          "type": "string"
        },
        {
          "internalType": "string",
          "name": "description",
          "type": "string"
        },
        {
          "internalType": "uint256",
          "name": "yesVotes",
          "type": "uint256"
        },
        {
          "internalType": "uint256",
          "name": "noVotes",
          "type": "uint256"
        },
        {
          "internalType": "enum VotingDAO.CurrentStatus",
          "name": "status",
          "type": "uint8"
        }
      ],
      "stateMutability": "view",
      "type": "function"
    },
    {
      "inputs": [],
      "name": "requiredVotes",
      "outputs": [
        {
          "internalType": "uint256",
          "name": "",
          "type": "uint256"
        }
      ],
      "stateMutability": "view",
      "type": "function"
    },
    {
      "inputs": [
        {
          "internalType": "string",
          "name": "_proposalName",
          "type": "string"
        },
        {
          "internalType": "bool",
          "name": "_vote",
          "type": "bool"
        }
      ],
      "name": "vote",
      "outputs": [],
      "stateMutability": "nonpayable",
      "type": "function"
    },
    {
      "inputs": [
        {
          "internalType": "address",
          "name": "",
          "type": "address"
        }
      ],
      "name": "voters",
      "outputs": [
        {
          "internalType": "bool",
          "name": "",
          "type": "bool"
        }
      ],
      "stateMutability": "view",
      "type": "function"
    }
  ],
  "bytecode": "0x608060405260006005553480156200001657600080fd5b50604051620021fe380380620021fe83398181016040528101906200003c9190620000a1565b336000806101000a81548173ffffffffffffffffffffffffffffffffffffffff021916908373ffffffffffffffffffffffffffffffffffffffff1602179055508060018190555050620000f1565b6000815190506200009b81620000d7565b92915050565b600060208284031215620000b457600080fd5b6000620000c4848285016200008a565b91505092915050565b6000819050919050565b620000e281620000cd565b8114620000ee57600080fd5b50565b6120fd80620001016000396000f3fe608060405234801561001057600080fd5b50600436106100935760003560e01c8063a3ec138d11610066578063a3ec138d1461011e578063b56e725c1461014e578063bd31a4d81461017e578063f4ab9adf1461019c578063ffa0d2a4146101b857610093565b806327d3410c1461009857806365e481e2146100b45780636a0bc15c146100d05780638da5cb5b14610100575b600080fd5b6100b260048036038101906100ad91906116a5565b6101ec565b005b6100ce60048036038101906100c991906116f9565b6104bf565b005b6100ea60048036038101906100e59190611765565b6107ae565b6040516100f79190611ba2565b60405180910390f35b610108610cd5565b6040516101159190611b87565b60405180910390f35b6101386004803603810190610133919061163b565b610cf9565b6040516101459190611bc4565b60405180910390f35b61016860048036038101906101639190611664565b610d19565b6040516101759190611bc4565b60405180910390f35b6101866111ac565b6040516101939190611d00565b60405180910390f35b6101b660048036038101906101b1919061163b565b6111b2565b005b6101d260048036038101906101cd9190611664565b61129b565b6040516101e3959493929190611bdf565b60405180910390f35b816102a06002826040516102009190611b70565b9081526020016040518091039020600001805461021c90611f26565b80601f016020809104026020016040519081016040528092919081815260200182805461024890611f26565b80156102955780601f1061026a57610100808354040283529160200191610295565b820191906000526020600020905b81548152906001019060200180831161027857829003601f168201915b505050505082611404565b156102e0576040517f08c379a00000000000000000000000000000000000000000000000000000000081526004016102d790611ce0565b60405180910390fd5b60001515600360003373ffffffffffffffffffffffffffffffffffffffff1673ffffffffffffffffffffffffffffffffffffffff16815260200190815260200160002060009054906101000a900460ff16151514610373576040517f08c379a000000000000000000000000000000000000000000000000000000000815260040161036a90611ca0565b60405180910390fd5b600360003373ffffffffffffffffffffffffffffffffffffffff1673ffffffffffffffffffffffffffffffffffffffff16815260200190815260200160002060009054906101000a900460ff166103ff576040517f08c379a00000000000000000000000000000000000000000000000000000000081526004016103f690611c80565b60405180910390fd5b60006002846040516104119190611b70565b9081526020016040518091039020905082156104465780600201600081548092919061043c90611f58565b9190505550610461565b80600301600081548092919061045b90611f58565b91905055505b6001600360003373ffffffffffffffffffffffffffffffffffffffff1673ffffffffffffffffffffffffffffffffffffffff16815260200190815260200160002060006101000a81548160ff02191690831515021790555050505050565b816105736002826040516104d39190611b70565b908152602001604051809103902060000180546104ef90611f26565b80601f016020809104026020016040519081016040528092919081815260200182805461051b90611f26565b80156105685780601f1061053d57610100808354040283529160200191610568565b820191906000526020600020905b81548152906001019060200180831161054b57829003601f168201915b505050505082611404565b6105b2576040517f08c379a00000000000000000000000000000000000000000000000000000000081526004016105a990611cc0565b60405180910390fd5b60008054906101000a900473ffffffffffffffffffffffffffffffffffffffff1673ffffffffffffffffffffffffffffffffffffffff163373ffffffffffffffffffffffffffffffffffffffff1614610640576040517f08c379a000000000000000000000000000000000000000000000000000000000815260040161063790611c60565b60405180910390fd5b6040518060a0016040528084815260200183815260200160008152602001600081526020016001600281111561069f577f4e487b7100000000000000000000000000000000000000000000000000000000600052602160045260246000fd5b8152506002846040516106b29190611b70565b908152602001604051809103902060008201518160000190805190602001906106dc92919061148a565b5060208201518160010190805190602001906106f992919061148a565b50604082015181600201556060820151816003015560808201518160040160006101000a81548160ff0219169083600281111561075f577f4e487b7100000000000000000000000000000000000000000000000000000000600052602160045260246000fd5b021790555090505082600460006005548152602001908152602001600020908051906020019061079092919061148a565b50600560008154809291906107a490611f58565b9190505550505050565b60606107ba838361145d565b6107f9576040517f08c379a00000000000000000000000000000000000000000000000000000000081526004016107f090611c40565b60405180910390fd5b6000600184846108099190611e43565b6108139190611ded565b67ffffffffffffffff811115610852577f4e487b7100000000000000000000000000000000000000000000000000000000600052604160045260246000fd5b60405190808252806020026020018201604052801561088b57816020015b610878611510565b8152602001906001900390816108705790505b5090506000808590505b848111610cc95760006004600083815260200190815260200160002080546108bc90611f26565b80601f01602080910402602001604051908101604052809291908181526020018280546108e890611f26565b80156109355780601f1061090a57610100808354040283529160200191610935565b820191906000526020600020905b81548152906001019060200180831161091857829003601f168201915b505050505090506109fe60028260405161094f9190611b70565b9081526020016040518091039020600001805461096b90611f26565b80601f016020809104026020016040519081016040528092919081815260200182805461099790611f26565b80156109e45780601f106109b9576101008083540402835291602001916109e4565b820191906000526020600020905b8154815290600101906020018083116109c757829003601f168201915b505050505060405180602001604052806000815250611404565b610cb557600281604051610a129190611b70565b90815260200160405180910390206001018054610a2e90611f26565b80601f0160208091040260200160405190810160405280929190818152602001828054610a5a90611f26565b8015610aa75780601f10610a7c57610100808354040283529160200191610aa7565b820191906000526020600020905b815481529060010190602001808311610a8a57829003601f168201915b5050505050848481518110610ae5577f4e487b7100000000000000000000000000000000000000000000000000000000600052603260045260246000fd5b602002602001015160200181905250600281604051610b049190611b70565b908152602001604051809103902060020154848481518110610b4f577f4e487b7100000000000000000000000000000000000000000000000000000000600052603260045260246000fd5b60200260200101516040018181525050600281604051610b6f9190611b70565b908152602001604051809103902060030154848481518110610bba577f4e487b7100000000000000000000000000000000000000000000000000000000600052603260045260246000fd5b60200260200101516060018181525050600281604051610bda9190611b70565b908152602001604051809103902060040160009054906101000a900460ff16848481518110610c32577f4e487b7100000000000000000000000000000000000000000000000000000000600052603260045260246000fd5b6020026020010151608001906002811115610c76577f4e487b7100000000000000000000000000000000000000000000000000000000600052602160045260246000fd5b90816002811115610cb0577f4e487b7100000000000000000000000000000000000000000000000000000000600052602160045260246000fd5b815250505b508080610cc190611f58565b915050610895565b50819250505092915050565b60008054906101000a900473ffffffffffffffffffffffffffffffffffffffff1681565b60036020528060005260406000206000915054906101000a900460ff1681565b600081610dcf600282604051610d2f9190611b70565b90815260200160405180910390206000018054610d4b90611f26565b80601f0160208091040260200160405190810160405280929190818152602001828054610d7790611f26565b8015610dc45780601f10610d9957610100808354040283529160200191610dc4565b820191906000526020600020905b815481529060010190602001808311610da757829003601f168201915b505050505082611404565b15610e0f576040517f08c379a0000000000000000000000000000000000000000000000000000000008152600401610e0690611ce0565b60405180910390fd5b6000600284604051610e219190611b70565b90815260200160405180910390206040518060a0016040529081600082018054610e4a90611f26565b80601f0160208091040260200160405190810160405280929190818152602001828054610e7690611f26565b8015610ec35780601f10610e9857610100808354040283529160200191610ec3565b820191906000526020600020905b815481529060010190602001808311610ea657829003601f168201915b50505050508152602001600182018054610edc90611f26565b80601f0160208091040260200160405190810160405280929190818152602001828054610f0890611f26565b8015610f555780601f10610f2a57610100808354040283529160200191610f55565b820191906000526020600020905b815481529060010190602001808311610f3857829003601f168201915b5050505050815260200160028201548152602001600382015481526020016004820160009054906101000a900460ff166002811115610fbd577f4e487b7100000000000000000000000000000000000000000000000000000000600052602160045260246000fd5b6002811115610ff5577f4e487b7100000000000000000000000000000000000000000000000000000000600052602160045260246000fd5b81525050905060015481604001511061108f57600281608001906002811115611047577f4e487b7100000000000000000000000000000000000000000000000000000000600052602160045260246000fd5b90816002811115611081577f4e487b7100000000000000000000000000000000000000000000000000000000600052602160045260246000fd5b8152505060019250506111a6565b600154816060015110611123576002816080019060028111156110db577f4e487b7100000000000000000000000000000000000000000000000000000000600052602160045260246000fd5b90816002811115611115577f4e487b7100000000000000000000000000000000000000000000000000000000600052602160045260246000fd5b8152505060009250506111a6565b600181608001906002811115611162577f4e487b7100000000000000000000000000000000000000000000000000000000600052602160045260246000fd5b9081600281111561119c577f4e487b7100000000000000000000000000000000000000000000000000000000600052602160045260246000fd5b8152505060009250505b50919050565b60015481565b60008054906101000a900473ffffffffffffffffffffffffffffffffffffffff1673ffffffffffffffffffffffffffffffffffffffff163373ffffffffffffffffffffffffffffffffffffffff1614611240576040517f08c379a000000000000000000000000000000000000000000000000000000000815260040161123790611c60565b60405180910390fd5b6001600360008373ffffffffffffffffffffffffffffffffffffffff1673ffffffffffffffffffffffffffffffffffffffff16815260200190815260200160002060006101000a81548160ff02191690831515021790555050565b6002818051602081018201805184825260208301602085012081835280955050505050506000915090508060000180546112d490611f26565b80601f016020809104026020016040519081016040528092919081815260200182805461130090611f26565b801561134d5780601f106113225761010080835404028352916020019161134d565b820191906000526020600020905b81548152906001019060200180831161133057829003601f168201915b50505050509080600101805461136290611f26565b80601f016020809104026020016040519081016040528092919081815260200182805461138e90611f26565b80156113db5780601f106113b0576101008083540402835291602001916113db565b820191906000526020600020905b8154815290600101906020018083116113be57829003601f168201915b5050505050908060020154908060030154908060040160009054906101000a900460ff16905085565b6000816040516020016114179190611b70565b604051602081830303815290604052805190602001208360405160200161143e9190611b70565b6040516020818303038152906040528051906020012014905092915050565b600080831015801561147157506005548211155b1561147f5760019050611484565b600090505b92915050565b82805461149690611f26565b90600052602060002090601f0160209004810192826114b857600085556114ff565b82601f106114d157805160ff19168380011785556114ff565b828001600101855582156114ff579182015b828111156114fe5782518255916020019190600101906114e3565b5b50905061150c9190611577565b5090565b6040518060a001604052806060815260200160608152602001600081526020016000815260200160006002811115611571577f4e487b7100000000000000000000000000000000000000000000000000000000600052602160045260246000fd5b81525090565b5b80821115611590576000816000905550600101611578565b5090565b60006115a76115a284611d4c565b611d1b565b9050828152602081018484840111156115bf57600080fd5b6115ca848285611ee4565b509392505050565b6000813590506115e181612082565b92915050565b6000813590506115f681612099565b92915050565b600082601f83011261160d57600080fd5b813561161d848260208601611594565b91505092915050565b600081359050611635816120b0565b92915050565b60006020828403121561164d57600080fd5b600061165b848285016115d2565b91505092915050565b60006020828403121561167657600080fd5b600082013567ffffffffffffffff81111561169057600080fd5b61169c848285016115fc565b91505092915050565b600080604083850312156116b857600080fd5b600083013567ffffffffffffffff8111156116d257600080fd5b6116de858286016115fc565b92505060206116ef858286016115e7565b9150509250929050565b6000806040838503121561170c57600080fd5b600083013567ffffffffffffffff81111561172657600080fd5b611732858286016115fc565b925050602083013567ffffffffffffffff81111561174f57600080fd5b61175b858286016115fc565b9150509250929050565b6000806040838503121561177857600080fd5b600061178685828601611626565b925050602061179785828601611626565b9150509250929050565b60006117ad8383611ad5565b905092915050565b6117be81611e77565b82525050565b60006117cf82611d8c565b6117d98185611daf565b9350836020820285016117eb85611d7c565b8060005b85811015611827578484038952815161180885826117a1565b945061181383611da2565b925060208a019950506001810190506117ef565b50829750879550505050505092915050565b61184281611e89565b82525050565b61185181611ed2565b82525050565b61186081611ed2565b82525050565b600061187182611d97565b61187b8185611dc0565b935061188b818560208601611ef3565b6118948161205d565b840191505092915050565b60006118aa82611d97565b6118b48185611dd1565b93506118c4818560208601611ef3565b6118cd8161205d565b840191505092915050565b60006118e382611d97565b6118ed8185611de2565b93506118fd818560208601611ef3565b80840191505092915050565b6000611916602583611dd1565b91507f506167696e6174696f6e20636f6f7264696e617465732065786365656473206c60008301527f696d6974210000000000000000000000000000000000000000000000000000006020830152604082019050919050565b600061197c603083611dd1565b91507f4f6e6c792074686520636f6e7472616374206f776e65722063616e207065726660008301527f6f726d207468697320616374696f6e2e000000000000000000000000000000006020830152604082019050919050565b60006119e2601f83611dd1565b91507f596f7520617265206e6f7420617574686f72697a656420746f20766f74652e006000830152602082019050919050565b6000611a22601883611dd1565b91507f566f7465722068617320616c726561647920766f7465642100000000000000006000830152602082019050919050565b6000611a62601c83611dd1565b91507f546869732070726f706f73616c20616c726561647920657869737421000000006000830152602082019050919050565b6000611aa2601b83611dd1565b91507f546869732070726f706f73616c20646f65736e742065786973742100000000006000830152602082019050919050565b600060a0830160008301518482036000860152611af28282611866565b91505060208301518482036020860152611b0c8282611866565b9150506040830151611b216040860182611b52565b506060830151611b346060860182611b52565b506080830151611b476080860182611848565b508091505092915050565b611b5b81611ec8565b82525050565b611b6a81611ec8565b82525050565b6000611b7c82846118d8565b915081905092915050565b6000602082019050611b9c60008301846117b5565b92915050565b60006020820190508181036000830152611bbc81846117c4565b905092915050565b6000602082019050611bd96000830184611839565b92915050565b600060a0820190508181036000830152611bf9818861189f565b90508181036020830152611c0d818761189f565b9050611c1c6040830186611b61565b611c296060830185611b61565b611c366080830184611857565b9695505050505050565b60006020820190508181036000830152611c5981611909565b9050919050565b60006020820190508181036000830152611c798161196f565b9050919050565b60006020820190508181036000830152611c99816119d5565b9050919050565b60006020820190508181036000830152611cb981611a15565b9050919050565b60006020820190508181036000830152611cd981611a55565b9050919050565b60006020820190508181036000830152611cf981611a95565b9050919050565b6000602082019050611d156000830184611b61565b92915050565b6000604051905081810181811067ffffffffffffffff82111715611d4257611d4161202e565b5b8060405250919050565b600067ffffffffffffffff821115611d6757611d6661202e565b5b601f19601f8301169050602081019050919050565b6000819050602082019050919050565b600081519050919050565b600081519050919050565b6000602082019050919050565b600082825260208201905092915050565b600082825260208201905092915050565b600082825260208201905092915050565b600081905092915050565b6000611df882611ec8565b9150611e0383611ec8565b9250827fffffffffffffffffffffffffffffffffffffffffffffffffffffffffffffffff03821115611e3857611e37611fa1565b5b828201905092915050565b6000611e4e82611ec8565b9150611e5983611ec8565b925082821015611e6c57611e6b611fa1565b5b828203905092915050565b6000611e8282611ea8565b9050919050565b60008115159050919050565b6000819050611ea38261206e565b919050565b600073ffffffffffffffffffffffffffffffffffffffff82169050919050565b6000819050919050565b6000611edd82611e95565b9050919050565b82818337600083830152505050565b60005b83811015611f11578082015181840152602081019050611ef6565b83811115611f20576000848401525b50505050565b60006002820490506001821680611f3e57607f821691505b60208210811415611f5257611f51611fff565b5b50919050565b6000611f6382611ec8565b91507fffffffffffffffffffffffffffffffffffffffffffffffffffffffffffffffff821415611f9657611f95611fa1565b5b600182019050919050565b7f4e487b7100000000000000000000000000000000000000000000000000000000600052601160045260246000fd5b7f4e487b7100000000000000000000000000000000000000000000000000000000600052602160045260246000fd5b7f4e487b7100000000000000000000000000000000000000000000000000000000600052602260045260246000fd5b7f4e487b7100000000000000000000000000000000000000000000000000000000600052604160045260246000fd5b6000601f19601f8301169050919050565b6003811061207f5761207e611fd0565b5b50565b61208b81611e77565b811461209657600080fd5b50565b6120a281611e89565b81146120ad57600080fd5b50565b6120b981611ec8565b81146120c457600080fd5b5056fea2646970667358221220d951dfd5b0b623472f4bd03d0317b210ca0bccdec77e80a5c1ccab374f42d24364736f6c63430008000033",
  "linkReferences": {},
  "deployedLinkReferences": {}
}