{
  "_format": "hh-sol-artifact-1",
  "contractName": "CertificateStore",
  "sourceName": "contracts/Certificate.sol",
  "abi": [
    {
      "anonymous": false,
      "inputs": [
        {
          "indexed": false,
          "internalType": "string",
          "name": "operation",
          "type": "string"
        }
      ],
      "name": "CertificateOperation",
      "type": "event"
    },
    {
      "anonymous": false,
      "inputs": [
        {
          "indexed": true,
          "internalType": "address",
          "name": "previousOwner",
          "type": "address"
        },
        {
          "indexed": true,
          "internalType": "address",
          "name": "newOwner",
          "type": "address"
        }
      ],
      "name": "OwnershipTransferred",
      "type": "event"
    },
    {
      "inputs": [
        {
          "internalType": "string",
          "name": "id",
          "type": "string"
        },
        {
          "internalType": "string",
          "name": "name",
          "type": "string"
        },
        {
          "internalType": "string",
          "name": "email",
          "type": "string"
        },
        {
          "internalType": "string",
          "name": "url",
          "type": "string"
        }
      ],
      "name": "addCertificate",
      "outputs": [
        {
          "internalType": "bool",
          "name": "",
          "type": "bool"
        }
      ],
      "stateMutability": "nonpayable",
      "type": "function"
    },
    {
      "inputs": [
        {
          "components": [
            {
              "internalType": "string",
              "name": "id",
              "type": "string"
            },
            {
              "internalType": "string",
              "name": "name",
              "type": "string"
            },
            {
              "internalType": "string",
              "name": "email",
              "type": "string"
            },
            {
              "internalType": "string",
              "name": "url",
              "type": "string"
            }
          ],
          "internalType": "struct CertificateStore.Certificate[]",
          "name": "_certificates",
          "type": "tuple[]"
        }
      ],
      "name": "addCertificates",
      "outputs": [
        {
          "internalType": "bool",
          "name": "",
          "type": "bool"
        }
      ],
      "stateMutability": "nonpayable",
      "type": "function"
    },
    {
      "inputs": [
        {
          "internalType": "string",
          "name": "id",
          "type": "string"
        }
      ],
      "name": "getCertificate",
      "outputs": [
        {
          "internalType": "string",
          "name": "",
          "type": "string"
        },
        {
          "internalType": "string",
          "name": "",
          "type": "string"
        },
        {
          "internalType": "string",
          "name": "",
          "type": "string"
        },
        {
          "internalType": "string",
          "name": "",
          "type": "string"
        }
      ],
      "stateMutability": "view",
      "type": "function"
    },
    {
      "inputs": [],
      "name": "getCertificateCount",
      "outputs": [
        {
          "internalType": "uint256",
          "name": "",
          "type": "uint256"
        }
      ],
      "stateMutability": "view",
      "type": "function"
    },
    {
      "inputs": [
        {
          "internalType": "uint256",
          "name": "from",
          "type": "uint256"
        },
        {
          "internalType": "uint256",
          "name": "to",
          "type": "uint256"
        }
      ],
      "name": "getCertificatesWithPagination",
      "outputs": [
        {
          "components": [
            {
              "internalType": "string",
              "name": "id",
              "type": "string"
            },
            {
              "internalType": "string",
              "name": "name",
              "type": "string"
            },
            {
              "internalType": "string",
              "name": "email",
              "type": "string"
            },
            {
              "internalType": "string",
              "name": "url",
              "type": "string"
            }
          ],
          "internalType": "struct CertificateStore.Certificate[]",
          "name": "",
          "type": "tuple[]"
        }
      ],
      "stateMutability": "view",
      "type": "function"
    },
    {
      "inputs": [],
      "name": "owner",
      "outputs": [
        {
          "internalType": "address",
          "name": "",
          "type": "address"
        }
      ],
      "stateMutability": "view",
      "type": "function"
    },
    {
      "inputs": [
        {
          "internalType": "string",
          "name": "id",
          "type": "string"
        }
      ],
      "name": "removeCertificate",
      "outputs": [
        {
          "internalType": "bool",
          "name": "",
          "type": "bool"
        }
      ],
      "stateMutability": "nonpayable",
      "type": "function"
    },
    {
      "inputs": [
        {
          "internalType": "string[]",
          "name": "ids",
          "type": "string[]"
        }
      ],
      "name": "removeCertificates",
      "outputs": [
        {
          "internalType": "bool",
          "name": "",
          "type": "bool"
        }
      ],
      "stateMutability": "nonpayable",
      "type": "function"
    },
    {
      "inputs": [],
      "name": "renounceOwnership",
      "outputs": [],
      "stateMutability": "nonpayable",
      "type": "function"
    },
    {
      "inputs": [
        {
          "internalType": "address",
          "name": "newOwner",
          "type": "address"
        }
      ],
      "name": "transferOwnership",
      "outputs": [],
      "stateMutability": "nonpayable",
      "type": "function"
    },
    {
      "inputs": [
        {
          "internalType": "string",
          "name": "id",
          "type": "string"
        },
        {
          "internalType": "string",
          "name": "name",
          "type": "string"
        },
        {
          "internalType": "string",
          "name": "email",
          "type": "string"
        },
        {
          "internalType": "string",
          "name": "url",
          "type": "string"
        }
      ],
      "name": "updateCertificate",
      "outputs": [
        {
          "internalType": "bool",
          "name": "",
          "type": "bool"
        }
      ],
      "stateMutability": "nonpayable",
      "type": "function"
    }
  ],
  "bytecode": "0x608060405260006001553480156200001657600080fd5b50620000376200002b6200003d60201b60201c565b6200004560201b60201c565b62000109565b600033905090565b60008060009054906101000a900473ffffffffffffffffffffffffffffffffffffffff169050816000806101000a81548173ffffffffffffffffffffffffffffffffffffffff021916908373ffffffffffffffffffffffffffffffffffffffff1602179055508173ffffffffffffffffffffffffffffffffffffffff168173ffffffffffffffffffffffffffffffffffffffff167f8be0079c531659141344cd1fd0a4f28419497f9722a3daafe3b4186f6b6457e060405160405180910390a35050565b61277d80620001196000396000f3fe608060405234801561001057600080fd5b50600436106100a95760003560e01c80638809f727116100715780638809f727146101785780638b78095f146101965780638da5cb5b146101c6578063b6c48e2e146101e4578063ed0f2e7514610214578063f2fde38b14610247576100a9565b80633225b4fe146100ae5780633bd3bc50146100de578063546a16d51461010e578063715018a61461013e57806372c4463814610148575b600080fd5b6100c860048036038101906100c39190611b72565b610263565b6040516100d5919061220b565b60405180910390f35b6100f860048036038101906100f39190611c35565b6102e0565b604051610105919061220b565b60405180910390f35b61012860048036038101906101239190611bf4565b6104d3565b604051610135919061220b565b60405180910390f35b6101466106e0565b005b610162600480360381019061015d9190611c35565b6106f4565b60405161016f919061220b565b60405180910390f35b610180610939565b60405161018d91906123a7565b60405180910390f35b6101b060048036038101906101ab9190611cf8565b610943565b6040516101bd91906121e9565b60405180910390f35b6101ce610f8e565b6040516101db91906121ce565b60405180910390f35b6101fe60048036038101906101f99190611bb3565b610fb7565b60405161020b919061220b565b60405180910390f35b61022e60048036038101906102299190611bf4565b611107565b60405161023e9493929190612226565b60405180910390f35b610261600480360381019061025c9190611b49565b6113d0565b005b600061026d611454565b60005b82518110156102d6576102c28382815181106102b5577f4e487b7100000000000000000000000000000000000000000000000000000000600052603260045260246000fd5b60200260200101516104d3565b5080806102ce90612632565b915050610270565b5060019050919050565b60006102ea611454565b61039d6002866040516102fd91906121b7565b9081526020016040518091039020600001805461031990612600565b80601f016020809104026020016040519081016040528092919081815260200182805461034590612600565b80156103925780601f1061036757610100808354040283529160200191610392565b820191906000526020600020905b81548152906001019060200180831161037557829003601f168201915b5050505050866114d2565b6103dc576040517f08c379a00000000000000000000000000000000000000000000000000000000081526004016103d390612387565b60405180910390fd5b60405180608001604052808681526020018581526020018481526020018381525060028660405161040d91906121b7565b9081526020016040518091039020600082015181600001908051906020019061043792919061173d565b50602082015181600101908051906020019061045492919061173d565b50604082015181600201908051906020019061047192919061173d565b50606082015181600301908051906020019061048e92919061173d565b509050507f43559942947455eafef5537d51d4d8afbd4ed2f3818d51601e517e2f3bb873846040516104bf906122e7565b60405180910390a160019050949350505050565b60006104dd611454565b6105906002836040516104f091906121b7565b9081526020016040518091039020600001805461050c90612600565b80601f016020809104026020016040519081016040528092919081815260200182805461053890612600565b80156105855780601f1061055a57610100808354040283529160200191610585565b820191906000526020600020905b81548152906001019060200180831161056857829003601f168201915b5050505050836114d2565b6105cf576040517f08c379a00000000000000000000000000000000000000000000000000000000081526004016105c690612387565b60405180910390fd5b6002826040516105df91906121b7565b9081526020016040518091039020600080820160006105fe91906117c3565b60018201600061060e91906117c3565b60028201600061061e91906117c3565b60038201600061062e91906117c3565b5050600061063b8361152b565b9050600360006001805461064f9190612542565b81526020019081526020016000206003600083815260200190815260200160002090805461067c90612600565b610687929190611803565b50600180600082825461069a9190612542565b925050819055507f43559942947455eafef5537d51d4d8afbd4ed2f3818d51601e517e2f3bb873846040516106ce90612327565b60405180910390a16001915050919050565b6106e8611454565b6106f26000611644565b565b60006106fe611454565b6107c060028660405161071191906121b7565b9081526020016040518091039020600001805461072d90612600565b80601f016020809104026020016040519081016040528092919081815260200182805461075990612600565b80156107a65780601f1061077b576101008083540402835291602001916107a6565b820191906000526020600020905b81548152906001019060200180831161078957829003601f168201915b5050505050604051806020016040528060008152506114d2565b6107ff576040517f08c379a00000000000000000000000000000000000000000000000000000000081526004016107f690612307565b60405180910390fd5b84600360006001548152602001908152602001600020908051906020019061082892919061173d565b5060405180608001604052808681526020018581526020018481526020018381525060028660405161085a91906121b7565b9081526020016040518091039020600082015181600001908051906020019061088492919061173d565b5060208201518160010190805190602001906108a192919061173d565b5060408201518160020190805190602001906108be92919061173d565b5060608201518160030190805190602001906108db92919061173d565b5090505060018060008282546108f191906124ec565b925050819055507f43559942947455eafef5537d51d4d8afbd4ed2f3818d51601e517e2f3bb8738460405161092590612347565b60405180910390a160019050949350505050565b6000600154905090565b606061094f8383611708565b61098e576040517f08c379a0000000000000000000000000000000000000000000000000000000008152600401610985906122a7565b60405180910390fd5b60006001848461099e9190612542565b6109a891906124ec565b67ffffffffffffffff8111156109e7577f4e487b7100000000000000000000000000000000000000000000000000000000600052604160045260246000fd5b604051908082528060200260200182016040528015610a2057816020015b610a0d611890565b815260200190600190039081610a055790505b5090506000808590505b848111610f82576000600360008381526020019081526020016000208054610a5190612600565b80601f0160208091040260200160405190810160405280929190818152602001828054610a7d90612600565b8015610aca5780601f10610a9f57610100808354040283529160200191610aca565b820191906000526020600020905b815481529060010190602001808311610aad57829003601f168201915b50505050509050610b93600282604051610ae491906121b7565b90815260200160405180910390206000018054610b0090612600565b80601f0160208091040260200160405190810160405280929190818152602001828054610b2c90612600565b8015610b795780601f10610b4e57610100808354040283529160200191610b79565b820191906000526020600020905b815481529060010190602001808311610b5c57829003601f168201915b5050505050604051806020016040528060008152506114d2565b610f6e57600281604051610ba791906121b7565b90815260200160405180910390206000018054610bc390612600565b80601f0160208091040260200160405190810160405280929190818152602001828054610bef90612600565b8015610c3c5780601f10610c1157610100808354040283529160200191610c3c565b820191906000526020600020905b815481529060010190602001808311610c1f57829003601f168201915b5050505050848481518110610c7a577f4e487b7100000000000000000000000000000000000000000000000000000000600052603260045260246000fd5b602002602001015160000181905250600281604051610c9991906121b7565b90815260200160405180910390206001018054610cb590612600565b80601f0160208091040260200160405190810160405280929190818152602001828054610ce190612600565b8015610d2e5780601f10610d0357610100808354040283529160200191610d2e565b820191906000526020600020905b815481529060010190602001808311610d1157829003601f168201915b5050505050848481518110610d6c577f4e487b7100000000000000000000000000000000000000000000000000000000600052603260045260246000fd5b602002602001015160200181905250600281604051610d8b91906121b7565b90815260200160405180910390206002018054610da790612600565b80601f0160208091040260200160405190810160405280929190818152602001828054610dd390612600565b8015610e205780601f10610df557610100808354040283529160200191610e20565b820191906000526020600020905b815481529060010190602001808311610e0357829003601f168201915b5050505050848481518110610e5e577f4e487b7100000000000000000000000000000000000000000000000000000000600052603260045260246000fd5b602002602001015160400181905250600281604051610e7d91906121b7565b90815260200160405180910390206003018054610e9990612600565b80601f0160208091040260200160405190810160405280929190818152602001828054610ec590612600565b8015610f125780601f10610ee757610100808354040283529160200191610f12565b820191906000526020600020905b815481529060010190602001808311610ef557829003601f168201915b5050505050848481518110610f50577f4e487b7100000000000000000000000000000000000000000000000000000000600052603260045260246000fd5b6020026020010151606001819052508280610f6a90612632565b9350505b508080610f7a90612632565b915050610a2a565b50819250505092915050565b60008060009054906101000a900473ffffffffffffffffffffffffffffffffffffffff16905090565b6000610fc1611454565b60005b82518110156110fd576110e9838281518110611009577f4e487b7100000000000000000000000000000000000000000000000000000000600052603260045260246000fd5b60200260200101516000015184838151811061104e577f4e487b7100000000000000000000000000000000000000000000000000000000600052603260045260246000fd5b602002602001015160200151858481518110611093577f4e487b7100000000000000000000000000000000000000000000000000000000600052603260045260246000fd5b6020026020010151604001518685815181106110d8577f4e487b7100000000000000000000000000000000000000000000000000000000600052603260045260246000fd5b6020026020010151606001516106f4565b5080806110f590612632565b915050610fc4565b5060019050919050565b60608060608060028560405161111d91906121b7565b908152602001604051809103902060000160028660405161113e91906121b7565b908152602001604051809103902060010160028760405161115f91906121b7565b908152602001604051809103902060020160028860405161118091906121b7565b908152602001604051809103902060030183805461119d90612600565b80601f01602080910402602001604051908101604052809291908181526020018280546111c990612600565b80156112165780601f106111eb57610100808354040283529160200191611216565b820191906000526020600020905b8154815290600101906020018083116111f957829003601f168201915b5050505050935082805461122990612600565b80601f016020809104026020016040519081016040528092919081815260200182805461125590612600565b80156112a25780601f10611277576101008083540402835291602001916112a2565b820191906000526020600020905b81548152906001019060200180831161128557829003601f168201915b505050505092508180546112b590612600565b80601f01602080910402602001604051908101604052809291908181526020018280546112e190612600565b801561132e5780601f106113035761010080835404028352916020019161132e565b820191906000526020600020905b81548152906001019060200180831161131157829003601f168201915b5050505050915080805461134190612600565b80601f016020809104026020016040519081016040528092919081815260200182805461136d90612600565b80156113ba5780601f1061138f576101008083540402835291602001916113ba565b820191906000526020600020905b81548152906001019060200180831161139d57829003601f168201915b5050505050905093509350935093509193509193565b6113d8611454565b600073ffffffffffffffffffffffffffffffffffffffff168173ffffffffffffffffffffffffffffffffffffffff161415611448576040517f08c379a000000000000000000000000000000000000000000000000000000000815260040161143f906122c7565b60405180910390fd5b61145181611644565b50565b61145c611735565b73ffffffffffffffffffffffffffffffffffffffff1661147a610f8e565b73ffffffffffffffffffffffffffffffffffffffff16146114d0576040517f08c379a00000000000000000000000000000000000000000000000000000000081526004016114c790612367565b60405180910390fd5b565b6000816040516020016114e591906121b7565b604051602081830303815290604052805190602001208360405160200161150c91906121b7565b6040516020818303038152906040528051906020012014905092915050565b600080600090505b600154811015611603576115e260036000838152602001908152602001600020805461155e90612600565b80601f016020809104026020016040519081016040528092919081815260200182805461158a90612600565b80156115d75780601f106115ac576101008083540402835291602001916115d7565b820191906000526020600020905b8154815290600101906020018083116115ba57829003601f168201915b5050505050846114d2565b156115f0578091505061163f565b80806115fb90612632565b915050611533565b506040517f08c379a000000000000000000000000000000000000000000000000000000000815260040161163690612287565b60405180910390fd5b919050565b60008060009054906101000a900473ffffffffffffffffffffffffffffffffffffffff169050816000806101000a81548173ffffffffffffffffffffffffffffffffffffffff021916908373ffffffffffffffffffffffffffffffffffffffff1602179055508173ffffffffffffffffffffffffffffffffffffffff168173ffffffffffffffffffffffffffffffffffffffff167f8be0079c531659141344cd1fd0a4f28419497f9722a3daafe3b4186f6b6457e060405160405180910390a35050565b600080831015801561171c57506001548211155b1561172a576001905061172f565b600090505b92915050565b600033905090565b82805461174990612600565b90600052602060002090601f01602090048101928261176b57600085556117b2565b82601f1061178457805160ff19168380011785556117b2565b828001600101855582156117b2579182015b828111156117b1578251825591602001919060010190611796565b5b5090506117bf91906118b8565b5090565b5080546117cf90612600565b6000825580601f106117e15750611800565b601f0160209004906000526020600020908101906117ff91906118b8565b5b50565b82805461180f90612600565b90600052602060002090601f016020900481019282611831576000855561187f565b82601f10611842578054855561187f565b8280016001018555821561187f57600052602060002091601f016020900482015b8281111561187e578254825591600101919060010190611863565b5b50905061188c91906118b8565b5090565b6040518060800160405280606081526020016060815260200160608152602001606081525090565b5b808211156118d15760008160009055506001016118b9565b5090565b60006118e86118e3846123f3565b6123c2565b9050808382526020820190508260005b85811015611928578135850161190e8882611a36565b8452602084019350602083019250506001810190506118f8565b5050509392505050565b60006119456119408461241f565b6123c2565b9050808382526020820190508260005b85811015611985578135850161196b8882611a60565b845260208401935060208301925050600181019050611955565b5050509392505050565b60006119a261199d8461244b565b6123c2565b9050828152602081018484840111156119ba57600080fd5b6119c58482856125be565b509392505050565b6000813590506119dc81612719565b92915050565b600082601f8301126119f357600080fd5b8135611a038482602086016118d5565b91505092915050565b600082601f830112611a1d57600080fd5b8135611a2d848260208601611932565b91505092915050565b600082601f830112611a4757600080fd5b8135611a5784826020860161198f565b91505092915050565b600060808284031215611a7257600080fd5b611a7c60806123c2565b9050600082013567ffffffffffffffff811115611a9857600080fd5b611aa484828501611a36565b600083015250602082013567ffffffffffffffff811115611ac457600080fd5b611ad084828501611a36565b602083015250604082013567ffffffffffffffff811115611af057600080fd5b611afc84828501611a36565b604083015250606082013567ffffffffffffffff811115611b1c57600080fd5b611b2884828501611a36565b60608301525092915050565b600081359050611b4381612730565b92915050565b600060208284031215611b5b57600080fd5b6000611b69848285016119cd565b91505092915050565b600060208284031215611b8457600080fd5b600082013567ffffffffffffffff811115611b9e57600080fd5b611baa848285016119e2565b91505092915050565b600060208284031215611bc557600080fd5b600082013567ffffffffffffffff811115611bdf57600080fd5b611beb84828501611a0c565b91505092915050565b600060208284031215611c0657600080fd5b600082013567ffffffffffffffff811115611c2057600080fd5b611c2c84828501611a36565b91505092915050565b60008060008060808587031215611c4b57600080fd5b600085013567ffffffffffffffff811115611c6557600080fd5b611c7187828801611a36565b945050602085013567ffffffffffffffff811115611c8e57600080fd5b611c9a87828801611a36565b935050604085013567ffffffffffffffff811115611cb757600080fd5b611cc387828801611a36565b925050606085013567ffffffffffffffff811115611ce057600080fd5b611cec87828801611a36565b91505092959194509250565b60008060408385031215611d0b57600080fd5b6000611d1985828601611b34565b9250506020611d2a85828601611b34565b9150509250929050565b6000611d408383612130565b905092915050565b611d5181612576565b82525050565b6000611d628261248b565b611d6c81856124ae565b935083602082028501611d7e8561247b565b8060005b85811015611dba5784840389528151611d9b8582611d34565b9450611da6836124a1565b925060208a01995050600181019050611d82565b50829750879550505050505092915050565b611dd581612588565b82525050565b6000611de682612496565b611df081856124bf565b9350611e008185602086016125cd565b611e0981612708565b840191505092915050565b6000611e1f82612496565b611e2981856124d0565b9350611e398185602086016125cd565b611e4281612708565b840191505092915050565b6000611e5882612496565b611e6281856124e1565b9350611e728185602086016125cd565b80840191505092915050565b6000611e8b6027836124d0565b91507f4365727469666963617465206e6f7420666f756e6420696e206365727469666960008301527f63617465496473000000000000000000000000000000000000000000000000006020830152604082019050919050565b6000611ef16025836124d0565b91507f506167696e6174696f6e20636f6f7264696e617465732065786365656473206c60008301527f696d6974210000000000000000000000000000000000000000000000000000006020830152604082019050919050565b6000611f576026836124d0565b91507f4f776e61626c653a206e6577206f776e657220697320746865207a65726f206160008301527f64647265737300000000000000000000000000000000000000000000000000006020830152604082019050919050565b6000611fbd6014836124d0565b91507f43657274696669636174652055706461746564210000000000000000000000006000830152602082019050919050565b6000611ffd6011836124d0565b91507f496420616c7265616479206578697374730000000000000000000000000000006000830152602082019050919050565b600061203d6014836124d0565b91507f43657274696669636174652052656d6f766564210000000000000000000000006000830152602082019050919050565b600061207d6012836124d0565b91507f43657274696669636174652041646465642100000000000000000000000000006000830152602082019050919050565b60006120bd6020836124d0565b91507f4f776e61626c653a2063616c6c6572206973206e6f7420746865206f776e65726000830152602082019050919050565b60006120fd601a836124d0565b91507f436572746966696361746520646f6573206e6f742065786973740000000000006000830152602082019050919050565b6000608083016000830151848203600086015261214d8282611ddb565b915050602083015184820360208601526121678282611ddb565b915050604083015184820360408601526121818282611ddb565b9150506060830151848203606086015261219b8282611ddb565b9150508091505092915050565b6121b1816125b4565b82525050565b60006121c38284611e4d565b915081905092915050565b60006020820190506121e36000830184611d48565b92915050565b600060208201905081810360008301526122038184611d57565b905092915050565b60006020820190506122206000830184611dcc565b92915050565b600060808201905081810360008301526122408187611e14565b905081810360208301526122548186611e14565b905081810360408301526122688185611e14565b9050818103606083015261227c8184611e14565b905095945050505050565b600060208201905081810360008301526122a081611e7e565b9050919050565b600060208201905081810360008301526122c081611ee4565b9050919050565b600060208201905081810360008301526122e081611f4a565b9050919050565b6000602082019050818103600083015261230081611fb0565b9050919050565b6000602082019050818103600083015261232081611ff0565b9050919050565b6000602082019050818103600083015261234081612030565b9050919050565b6000602082019050818103600083015261236081612070565b9050919050565b60006020820190508181036000830152612380816120b0565b9050919050565b600060208201905081810360008301526123a0816120f0565b9050919050565b60006020820190506123bc60008301846121a8565b92915050565b6000604051905081810181811067ffffffffffffffff821117156123e9576123e86126d9565b5b8060405250919050565b600067ffffffffffffffff82111561240e5761240d6126d9565b5b602082029050602081019050919050565b600067ffffffffffffffff82111561243a576124396126d9565b5b602082029050602081019050919050565b600067ffffffffffffffff821115612466576124656126d9565b5b601f19601f8301169050602081019050919050565b6000819050602082019050919050565b600081519050919050565b600081519050919050565b6000602082019050919050565b600082825260208201905092915050565b600082825260208201905092915050565b600082825260208201905092915050565b600081905092915050565b60006124f7826125b4565b9150612502836125b4565b9250827fffffffffffffffffffffffffffffffffffffffffffffffffffffffffffffffff038211156125375761253661267b565b5b828201905092915050565b600061254d826125b4565b9150612558836125b4565b92508282101561256b5761256a61267b565b5b828203905092915050565b600061258182612594565b9050919050565b60008115159050919050565b600073ffffffffffffffffffffffffffffffffffffffff82169050919050565b6000819050919050565b82818337600083830152505050565b60005b838110156125eb5780820151818401526020810190506125d0565b838111156125fa576000848401525b50505050565b6000600282049050600182168061261857607f821691505b6020821081141561262c5761262b6126aa565b5b50919050565b600061263d826125b4565b91507fffffffffffffffffffffffffffffffffffffffffffffffffffffffffffffffff8214156126705761266f61267b565b5b600182019050919050565b7f4e487b7100000000000000000000000000000000000000000000000000000000600052601160045260246000fd5b7f4e487b7100000000000000000000000000000000000000000000000000000000600052602260045260246000fd5b7f4e487b7100000000000000000000000000000000000000000000000000000000600052604160045260246000fd5b6000601f19601f8301169050919050565b61272281612576565b811461272d57600080fd5b50565b612739816125b4565b811461274457600080fd5b5056fea26469706673582212205495afddc9f08e22cd424cc81c85ba842db72a212708af26506b83a809e066b664736f6c63430008000033",
  "linkReferences": {},
  "deployedLinkReferences": {}
}