{
  "_format": "hh-sol-artifact-1",
  "contractName": "CertificateStore",
  "sourceName": "contracts/Certificate.sol",
  "abi": [
    {
      "anonymous": false,
      "inputs": [
        {
          "indexed": false,
          "internalType": "string",
          "name": "operation",
          "type": "string"
        }
      ],
      "name": "CertificateOperation",
      "type": "event"
    },
    {
      "anonymous": false,
      "inputs": [
        {
          "indexed": true,
          "internalType": "address",
          "name": "previousOwner",
          "type": "address"
        },
        {
          "indexed": true,
          "internalType": "address",
          "name": "newOwner",
          "type": "address"
        }
      ],
      "name": "OwnershipTransferred",
      "type": "event"
    },
    {
      "inputs": [
        {
          "internalType": "string",
          "name": "id",
          "type": "string"
        },
        {
          "internalType": "string",
          "name": "name",
          "type": "string"
        },
        {
          "internalType": "string",
          "name": "email",
          "type": "string"
        },
        {
          "internalType": "string",
          "name": "url",
          "type": "string"
        }
      ],
      "name": "addCertificate",
      "outputs": [
        {
          "internalType": "bool",
          "name": "",
          "type": "bool"
        }
      ],
      "stateMutability": "nonpayable",
      "type": "function"
    },
    {
      "inputs": [
        {
          "internalType": "string",
          "name": "id",
          "type": "string"
        }
      ],
      "name": "getCertificate",
      "outputs": [
        {
          "internalType": "string",
          "name": "",
          "type": "string"
        },
        {
          "internalType": "string",
          "name": "",
          "type": "string"
        },
        {
          "internalType": "string",
          "name": "",
          "type": "string"
        },
        {
          "internalType": "string",
          "name": "",
          "type": "string"
        }
      ],
      "stateMutability": "view",
      "type": "function"
    },
    {
      "inputs": [],
      "name": "getCertificateCount",
      "outputs": [
        {
          "internalType": "uint256",
          "name": "",
          "type": "uint256"
        }
      ],
      "stateMutability": "view",
      "type": "function"
    },
    {
      "inputs": [
        {
          "internalType": "uint256",
          "name": "from",
          "type": "uint256"
        },
        {
          "internalType": "uint256",
          "name": "to",
          "type": "uint256"
        }
      ],
      "name": "getCertificatesWithPagination",
      "outputs": [
        {
          "components": [
            {
              "internalType": "string",
              "name": "id",
              "type": "string"
            },
            {
              "internalType": "string",
              "name": "name",
              "type": "string"
            },
            {
              "internalType": "string",
              "name": "email",
              "type": "string"
            },
            {
              "internalType": "string",
              "name": "url",
              "type": "string"
            }
          ],
          "internalType": "struct CertificateStore.Certificate[]",
          "name": "",
          "type": "tuple[]"
        }
      ],
      "stateMutability": "view",
      "type": "function"
    },
    {
      "inputs": [],
      "name": "owner",
      "outputs": [
        {
          "internalType": "address",
          "name": "",
          "type": "address"
        }
      ],
      "stateMutability": "view",
      "type": "function"
    },
    {
      "inputs": [
        {
          "internalType": "string",
          "name": "id",
          "type": "string"
        }
      ],
      "name": "removeCertificate",
      "outputs": [
        {
          "internalType": "bool",
          "name": "",
          "type": "bool"
        }
      ],
      "stateMutability": "nonpayable",
      "type": "function"
    },
    {
      "inputs": [
        {
          "internalType": "string[]",
          "name": "ids",
          "type": "string[]"
        }
      ],
      "name": "removeCertificates",
      "outputs": [
        {
          "internalType": "bool",
          "name": "",
          "type": "bool"
        }
      ],
      "stateMutability": "nonpayable",
      "type": "function"
    },
    {
      "inputs": [],
      "name": "renounceOwnership",
      "outputs": [],
      "stateMutability": "nonpayable",
      "type": "function"
    },
    {
      "inputs": [
        {
          "internalType": "address",
          "name": "newOwner",
          "type": "address"
        }
      ],
      "name": "transferOwnership",
      "outputs": [],
      "stateMutability": "nonpayable",
      "type": "function"
    },
    {
      "inputs": [
        {
          "internalType": "string",
          "name": "id",
          "type": "string"
        },
        {
          "internalType": "string",
          "name": "name",
          "type": "string"
        },
        {
          "internalType": "string",
          "name": "email",
          "type": "string"
        },
        {
          "internalType": "string",
          "name": "url",
          "type": "string"
        }
      ],
      "name": "updateCertificate",
      "outputs": [
        {
          "internalType": "bool",
          "name": "",
          "type": "bool"
        }
      ],
      "stateMutability": "nonpayable",
      "type": "function"
    }
  ],
  "bytecode": "0x6080604052600060015534801561001557600080fd5b5061003261002761003760201b60201c565b61003f60201b60201c565b610103565b600033905090565b60008060009054906101000a900473ffffffffffffffffffffffffffffffffffffffff169050816000806101000a81548173ffffffffffffffffffffffffffffffffffffffff021916908373ffffffffffffffffffffffffffffffffffffffff1602179055508173ffffffffffffffffffffffffffffffffffffffff168173ffffffffffffffffffffffffffffffffffffffff167f8be0079c531659141344cd1fd0a4f28419497f9722a3daafe3b4186f6b6457e060405160405180910390a35050565b61242a80620001136000396000f3fe608060405234801561001057600080fd5b506004361061009e5760003560e01c80638809f727116100665780638809f7271461016d5780638b78095f1461018b5780638da5cb5b146101bb578063ed0f2e75146101d9578063f2fde38b1461020c5761009e565b80633225b4fe146100a35780633bd3bc50146100d3578063546a16d514610103578063715018a61461013357806372c446381461013d575b600080fd5b6100bd60048036038101906100b8919061188c565b610228565b6040516100ca9190611ee4565b60405180910390f35b6100ed60048036038101906100e8919061190e565b6102a5565b6040516100fa9190611ee4565b60405180910390f35b61011d600480360381019061011891906118cd565b610498565b60405161012a9190611ee4565b60405180910390f35b61013b6106a5565b005b6101576004803603810190610152919061190e565b6106b9565b6040516101649190611ee4565b60405180910390f35b6101756108fe565b6040516101829190612080565b60405180910390f35b6101a560048036038101906101a091906119d1565b610908565b6040516101b29190611ec2565b60405180910390f35b6101c3610f53565b6040516101d09190611ea7565b60405180910390f35b6101f360048036038101906101ee91906118cd565b610f7c565b6040516102039493929190611eff565b60405180910390f35b61022660048036038101906102219190611863565b611245565b005b60006102326112c9565b60005b825181101561029b5761028783828151811061027a577f4e487b7100000000000000000000000000000000000000000000000000000000600052603260045260246000fd5b6020026020010151610498565b508080610293906122df565b915050610235565b5060019050919050565b60006102af6112c9565b6103626002866040516102c29190611e90565b908152602001604051809103902060000180546102de906122ad565b80601f016020809104026020016040519081016040528092919081815260200182805461030a906122ad565b80156103575780601f1061032c57610100808354040283529160200191610357565b820191906000526020600020905b81548152906001019060200180831161033a57829003601f168201915b505050505086611347565b6103a1576040517f08c379a000000000000000000000000000000000000000000000000000000000815260040161039890612060565b60405180910390fd5b6040518060800160405280868152602001858152602001848152602001838152506002866040516103d29190611e90565b908152602001604051809103902060008201518160000190805190602001906103fc9291906115b2565b5060208201518160010190805190602001906104199291906115b2565b5060408201518160020190805190602001906104369291906115b2565b5060608201518160030190805190602001906104539291906115b2565b509050507f43559942947455eafef5537d51d4d8afbd4ed2f3818d51601e517e2f3bb8738460405161048490611fc0565b60405180910390a160019050949350505050565b60006104a26112c9565b6105556002836040516104b59190611e90565b908152602001604051809103902060000180546104d1906122ad565b80601f01602080910402602001604051908101604052809291908181526020018280546104fd906122ad565b801561054a5780601f1061051f5761010080835404028352916020019161054a565b820191906000526020600020905b81548152906001019060200180831161052d57829003601f168201915b505050505083611347565b610594576040517f08c379a000000000000000000000000000000000000000000000000000000000815260040161058b90612060565b60405180910390fd5b6002826040516105a49190611e90565b9081526020016040518091039020600080820160006105c39190611638565b6001820160006105d39190611638565b6002820160006105e39190611638565b6003820160006105f39190611638565b50506000610600836113a0565b9050600360006001805461061491906121ef565b815260200190815260200160002060036000838152602001908152602001600020908054610641906122ad565b61064c929190611678565b50600180600082825461065f91906121ef565b925050819055507f43559942947455eafef5537d51d4d8afbd4ed2f3818d51601e517e2f3bb8738460405161069390612000565b60405180910390a16001915050919050565b6106ad6112c9565b6106b760006114b9565b565b60006106c36112c9565b6107856002866040516106d69190611e90565b908152602001604051809103902060000180546106f2906122ad565b80601f016020809104026020016040519081016040528092919081815260200182805461071e906122ad565b801561076b5780601f106107405761010080835404028352916020019161076b565b820191906000526020600020905b81548152906001019060200180831161074e57829003601f168201915b505050505060405180602001604052806000815250611347565b6107c4576040517f08c379a00000000000000000000000000000000000000000000000000000000081526004016107bb90611fe0565b60405180910390fd5b8460036000600154815260200190815260200160002090805190602001906107ed9291906115b2565b5060405180608001604052808681526020018581526020018481526020018381525060028660405161081f9190611e90565b908152602001604051809103902060008201518160000190805190602001906108499291906115b2565b5060208201518160010190805190602001906108669291906115b2565b5060408201518160020190805190602001906108839291906115b2565b5060608201518160030190805190602001906108a09291906115b2565b5090505060018060008282546108b69190612199565b925050819055507f43559942947455eafef5537d51d4d8afbd4ed2f3818d51601e517e2f3bb873846040516108ea90612020565b60405180910390a160019050949350505050565b6000600154905090565b6060610914838361157d565b610953576040517f08c379a000000000000000000000000000000000000000000000000000000000815260040161094a90611f80565b60405180910390fd5b60006001848461096391906121ef565b61096d9190612199565b67ffffffffffffffff8111156109ac577f4e487b7100000000000000000000000000000000000000000000000000000000600052604160045260246000fd5b6040519080825280602002602001820160405280156109e557816020015b6109d2611705565b8152602001906001900390816109ca5790505b5090506000808590505b848111610f47576000600360008381526020019081526020016000208054610a16906122ad565b80601f0160208091040260200160405190810160405280929190818152602001828054610a42906122ad565b8015610a8f5780601f10610a6457610100808354040283529160200191610a8f565b820191906000526020600020905b815481529060010190602001808311610a7257829003601f168201915b50505050509050610b58600282604051610aa99190611e90565b90815260200160405180910390206000018054610ac5906122ad565b80601f0160208091040260200160405190810160405280929190818152602001828054610af1906122ad565b8015610b3e5780601f10610b1357610100808354040283529160200191610b3e565b820191906000526020600020905b815481529060010190602001808311610b2157829003601f168201915b505050505060405180602001604052806000815250611347565b610f3357600281604051610b6c9190611e90565b90815260200160405180910390206000018054610b88906122ad565b80601f0160208091040260200160405190810160405280929190818152602001828054610bb4906122ad565b8015610c015780601f10610bd657610100808354040283529160200191610c01565b820191906000526020600020905b815481529060010190602001808311610be457829003601f168201915b5050505050848481518110610c3f577f4e487b7100000000000000000000000000000000000000000000000000000000600052603260045260246000fd5b602002602001015160000181905250600281604051610c5e9190611e90565b90815260200160405180910390206001018054610c7a906122ad565b80601f0160208091040260200160405190810160405280929190818152602001828054610ca6906122ad565b8015610cf35780601f10610cc857610100808354040283529160200191610cf3565b820191906000526020600020905b815481529060010190602001808311610cd657829003601f168201915b5050505050848481518110610d31577f4e487b7100000000000000000000000000000000000000000000000000000000600052603260045260246000fd5b602002602001015160200181905250600281604051610d509190611e90565b90815260200160405180910390206002018054610d6c906122ad565b80601f0160208091040260200160405190810160405280929190818152602001828054610d98906122ad565b8015610de55780601f10610dba57610100808354040283529160200191610de5565b820191906000526020600020905b815481529060010190602001808311610dc857829003601f168201915b5050505050848481518110610e23577f4e487b7100000000000000000000000000000000000000000000000000000000600052603260045260246000fd5b602002602001015160400181905250600281604051610e429190611e90565b90815260200160405180910390206003018054610e5e906122ad565b80601f0160208091040260200160405190810160405280929190818152602001828054610e8a906122ad565b8015610ed75780601f10610eac57610100808354040283529160200191610ed7565b820191906000526020600020905b815481529060010190602001808311610eba57829003601f168201915b5050505050848481518110610f15577f4e487b7100000000000000000000000000000000000000000000000000000000600052603260045260246000fd5b6020026020010151606001819052508280610f2f906122df565b9350505b508080610f3f906122df565b9150506109ef565b50819250505092915050565b60008060009054906101000a900473ffffffffffffffffffffffffffffffffffffffff16905090565b606080606080600285604051610f929190611e90565b9081526020016040518091039020600001600286604051610fb39190611e90565b9081526020016040518091039020600101600287604051610fd49190611e90565b9081526020016040518091039020600201600288604051610ff59190611e90565b9081526020016040518091039020600301838054611012906122ad565b80601f016020809104026020016040519081016040528092919081815260200182805461103e906122ad565b801561108b5780601f106110605761010080835404028352916020019161108b565b820191906000526020600020905b81548152906001019060200180831161106e57829003601f168201915b5050505050935082805461109e906122ad565b80601f01602080910402602001604051908101604052809291908181526020018280546110ca906122ad565b80156111175780601f106110ec57610100808354040283529160200191611117565b820191906000526020600020905b8154815290600101906020018083116110fa57829003601f168201915b5050505050925081805461112a906122ad565b80601f0160208091040260200160405190810160405280929190818152602001828054611156906122ad565b80156111a35780601f10611178576101008083540402835291602001916111a3565b820191906000526020600020905b81548152906001019060200180831161118657829003601f168201915b505050505091508080546111b6906122ad565b80601f01602080910402602001604051908101604052809291908181526020018280546111e2906122ad565b801561122f5780601f106112045761010080835404028352916020019161122f565b820191906000526020600020905b81548152906001019060200180831161121257829003601f168201915b5050505050905093509350935093509193509193565b61124d6112c9565b600073ffffffffffffffffffffffffffffffffffffffff168173ffffffffffffffffffffffffffffffffffffffff1614156112bd576040517f08c379a00000000000000000000000000000000000000000000000000000000081526004016112b490611fa0565b60405180910390fd5b6112c6816114b9565b50565b6112d16115aa565b73ffffffffffffffffffffffffffffffffffffffff166112ef610f53565b73ffffffffffffffffffffffffffffffffffffffff1614611345576040517f08c379a000000000000000000000000000000000000000000000000000000000815260040161133c90612040565b60405180910390fd5b565b60008160405160200161135a9190611e90565b60405160208183030381529060405280519060200120836040516020016113819190611e90565b6040516020818303038152906040528051906020012014905092915050565b600080600090505b600154811015611478576114576003600083815260200190815260200160002080546113d3906122ad565b80601f01602080910402602001604051908101604052809291908181526020018280546113ff906122ad565b801561144c5780601f106114215761010080835404028352916020019161144c565b820191906000526020600020905b81548152906001019060200180831161142f57829003601f168201915b505050505084611347565b1561146557809150506114b4565b8080611470906122df565b9150506113a8565b506040517f08c379a00000000000000000000000000000000000000000000000000000000081526004016114ab90611f60565b60405180910390fd5b919050565b60008060009054906101000a900473ffffffffffffffffffffffffffffffffffffffff169050816000806101000a81548173ffffffffffffffffffffffffffffffffffffffff021916908373ffffffffffffffffffffffffffffffffffffffff1602179055508173ffffffffffffffffffffffffffffffffffffffff168173ffffffffffffffffffffffffffffffffffffffff167f8be0079c531659141344cd1fd0a4f28419497f9722a3daafe3b4186f6b6457e060405160405180910390a35050565b600080831015801561159157506001548211155b1561159f57600190506115a4565b600090505b92915050565b600033905090565b8280546115be906122ad565b90600052602060002090601f0160209004810192826115e05760008555611627565b82601f106115f957805160ff1916838001178555611627565b82800160010185558215611627579182015b8281111561162657825182559160200191906001019061160b565b5b509050611634919061172d565b5090565b508054611644906122ad565b6000825580601f106116565750611675565b601f016020900490600052602060002090810190611674919061172d565b5b50565b828054611684906122ad565b90600052602060002090601f0160209004810192826116a657600085556116f4565b82601f106116b757805485556116f4565b828001600101855582156116f457600052602060002091601f016020900482015b828111156116f35782548255916001019190600101906116d8565b5b509050611701919061172d565b5090565b6040518060800160405280606081526020016060815260200160608152602001606081525090565b5b8082111561174657600081600090555060010161172e565b5090565b600061175d611758846120cc565b61209b565b9050808382526020820190508260005b8581101561179d57813585016117838882611824565b84526020840193506020830192505060018101905061176d565b5050509392505050565b60006117ba6117b5846120f8565b61209b565b9050828152602081018484840111156117d257600080fd5b6117dd84828561226b565b509392505050565b6000813590506117f4816123c6565b92915050565b600082601f83011261180b57600080fd5b813561181b84826020860161174a565b91505092915050565b600082601f83011261183557600080fd5b81356118458482602086016117a7565b91505092915050565b60008135905061185d816123dd565b92915050565b60006020828403121561187557600080fd5b6000611883848285016117e5565b91505092915050565b60006020828403121561189e57600080fd5b600082013567ffffffffffffffff8111156118b857600080fd5b6118c4848285016117fa565b91505092915050565b6000602082840312156118df57600080fd5b600082013567ffffffffffffffff8111156118f957600080fd5b61190584828501611824565b91505092915050565b6000806000806080858703121561192457600080fd5b600085013567ffffffffffffffff81111561193e57600080fd5b61194a87828801611824565b945050602085013567ffffffffffffffff81111561196757600080fd5b61197387828801611824565b935050604085013567ffffffffffffffff81111561199057600080fd5b61199c87828801611824565b925050606085013567ffffffffffffffff8111156119b957600080fd5b6119c587828801611824565b91505092959194509250565b600080604083850312156119e457600080fd5b60006119f28582860161184e565b9250506020611a038582860161184e565b9150509250929050565b6000611a198383611e09565b905092915050565b611a2a81612223565b82525050565b6000611a3b82612138565b611a45818561215b565b935083602082028501611a5785612128565b8060005b85811015611a935784840389528151611a748582611a0d565b9450611a7f8361214e565b925060208a01995050600181019050611a5b565b50829750879550505050505092915050565b611aae81612235565b82525050565b6000611abf82612143565b611ac9818561216c565b9350611ad981856020860161227a565b611ae2816123b5565b840191505092915050565b6000611af882612143565b611b02818561217d565b9350611b1281856020860161227a565b611b1b816123b5565b840191505092915050565b6000611b3182612143565b611b3b818561218e565b9350611b4b81856020860161227a565b80840191505092915050565b6000611b6460278361217d565b91507f4365727469666963617465206e6f7420666f756e6420696e206365727469666960008301527f63617465496473000000000000000000000000000000000000000000000000006020830152604082019050919050565b6000611bca60258361217d565b91507f506167696e6174696f6e20636f6f7264696e617465732065786365656473206c60008301527f696d6974210000000000000000000000000000000000000000000000000000006020830152604082019050919050565b6000611c3060268361217d565b91507f4f776e61626c653a206e6577206f776e657220697320746865207a65726f206160008301527f64647265737300000000000000000000000000000000000000000000000000006020830152604082019050919050565b6000611c9660148361217d565b91507f43657274696669636174652055706461746564210000000000000000000000006000830152602082019050919050565b6000611cd660118361217d565b91507f496420616c7265616479206578697374730000000000000000000000000000006000830152602082019050919050565b6000611d1660148361217d565b91507f43657274696669636174652052656d6f766564210000000000000000000000006000830152602082019050919050565b6000611d5660128361217d565b91507f43657274696669636174652041646465642100000000000000000000000000006000830152602082019050919050565b6000611d9660208361217d565b91507f4f776e61626c653a2063616c6c6572206973206e6f7420746865206f776e65726000830152602082019050919050565b6000611dd6601a8361217d565b91507f436572746966696361746520646f6573206e6f742065786973740000000000006000830152602082019050919050565b60006080830160008301518482036000860152611e268282611ab4565b91505060208301518482036020860152611e408282611ab4565b91505060408301518482036040860152611e5a8282611ab4565b91505060608301518482036060860152611e748282611ab4565b9150508091505092915050565b611e8a81612261565b82525050565b6000611e9c8284611b26565b915081905092915050565b6000602082019050611ebc6000830184611a21565b92915050565b60006020820190508181036000830152611edc8184611a30565b905092915050565b6000602082019050611ef96000830184611aa5565b92915050565b60006080820190508181036000830152611f198187611aed565b90508181036020830152611f2d8186611aed565b90508181036040830152611f418185611aed565b90508181036060830152611f558184611aed565b905095945050505050565b60006020820190508181036000830152611f7981611b57565b9050919050565b60006020820190508181036000830152611f9981611bbd565b9050919050565b60006020820190508181036000830152611fb981611c23565b9050919050565b60006020820190508181036000830152611fd981611c89565b9050919050565b60006020820190508181036000830152611ff981611cc9565b9050919050565b6000602082019050818103600083015261201981611d09565b9050919050565b6000602082019050818103600083015261203981611d49565b9050919050565b6000602082019050818103600083015261205981611d89565b9050919050565b6000602082019050818103600083015261207981611dc9565b9050919050565b60006020820190506120956000830184611e81565b92915050565b6000604051905081810181811067ffffffffffffffff821117156120c2576120c1612386565b5b8060405250919050565b600067ffffffffffffffff8211156120e7576120e6612386565b5b602082029050602081019050919050565b600067ffffffffffffffff82111561211357612112612386565b5b601f19601f8301169050602081019050919050565b6000819050602082019050919050565b600081519050919050565b600081519050919050565b6000602082019050919050565b600082825260208201905092915050565b600082825260208201905092915050565b600082825260208201905092915050565b600081905092915050565b60006121a482612261565b91506121af83612261565b9250827fffffffffffffffffffffffffffffffffffffffffffffffffffffffffffffffff038211156121e4576121e3612328565b5b828201905092915050565b60006121fa82612261565b915061220583612261565b92508282101561221857612217612328565b5b828203905092915050565b600061222e82612241565b9050919050565b60008115159050919050565b600073ffffffffffffffffffffffffffffffffffffffff82169050919050565b6000819050919050565b82818337600083830152505050565b60005b8381101561229857808201518184015260208101905061227d565b838111156122a7576000848401525b50505050565b600060028204905060018216806122c557607f821691505b602082108114156122d9576122d8612357565b5b50919050565b60006122ea82612261565b91507fffffffffffffffffffffffffffffffffffffffffffffffffffffffffffffffff82141561231d5761231c612328565b5b600182019050919050565b7f4e487b7100000000000000000000000000000000000000000000000000000000600052601160045260246000fd5b7f4e487b7100000000000000000000000000000000000000000000000000000000600052602260045260246000fd5b7f4e487b7100000000000000000000000000000000000000000000000000000000600052604160045260246000fd5b6000601f19601f8301169050919050565b6123cf81612223565b81146123da57600080fd5b50565b6123e681612261565b81146123f157600080fd5b5056fea2646970667358221220c1f72d9d42a37d2b8935c88d32a845acea6c47678501105534ee5d47d043df5a64736f6c63430008000033",
  "linkReferences": {},
  "deployedLinkReferences": {}
}