{
  "_format": "hh-sol-artifact-1",
  "contractName": "CertificateStore",
  "sourceName": "contracts/Certificate.sol",
  "abi": [
    {
      "anonymous": false,
      "inputs": [
        {
          "indexed": false,
          "internalType": "string",
          "name": "operation",
          "type": "string"
        }
      ],
      "name": "CertificateOperation",
      "type": "event"
    },
    {
      "anonymous": false,
      "inputs": [
        {
          "indexed": true,
          "internalType": "address",
          "name": "previousOwner",
          "type": "address"
        },
        {
          "indexed": true,
          "internalType": "address",
          "name": "newOwner",
          "type": "address"
        }
      ],
      "name": "OwnershipTransferred",
      "type": "event"
    },
    {
      "inputs": [
        {
          "internalType": "uint256",
          "name": "id",
          "type": "uint256"
        },
        {
          "internalType": "string",
          "name": "name",
          "type": "string"
        },
        {
          "internalType": "string",
          "name": "email",
          "type": "string"
        },
        {
          "internalType": "string",
          "name": "url",
          "type": "string"
        }
      ],
      "name": "addCertificate",
      "outputs": [
        {
          "internalType": "bool",
          "name": "",
          "type": "bool"
        }
      ],
      "stateMutability": "nonpayable",
      "type": "function"
    },
    {
      "inputs": [
        {
          "internalType": "uint256",
          "name": "id",
          "type": "uint256"
        }
      ],
      "name": "getCertificate",
      "outputs": [
        {
          "internalType": "uint256",
          "name": "",
          "type": "uint256"
        },
        {
          "internalType": "string",
          "name": "",
          "type": "string"
        },
        {
          "internalType": "string",
          "name": "",
          "type": "string"
        },
        {
          "internalType": "string",
          "name": "",
          "type": "string"
        }
      ],
      "stateMutability": "view",
      "type": "function"
    },
    {
      "inputs": [],
      "name": "getCertificateCount",
      "outputs": [
        {
          "internalType": "uint256",
          "name": "",
          "type": "uint256"
        }
      ],
      "stateMutability": "view",
      "type": "function"
    },
    {
      "inputs": [
        {
          "internalType": "uint256",
          "name": "from",
          "type": "uint256"
        },
        {
          "internalType": "uint256",
          "name": "to",
          "type": "uint256"
        }
      ],
      "name": "getCertificatesWithPagination",
      "outputs": [
        {
          "components": [
            {
              "internalType": "uint256",
              "name": "id",
              "type": "uint256"
            },
            {
              "internalType": "string",
              "name": "name",
              "type": "string"
            },
            {
              "internalType": "string",
              "name": "email",
              "type": "string"
            },
            {
              "internalType": "string",
              "name": "url",
              "type": "string"
            }
          ],
          "internalType": "struct CertificateStore.Certificate[]",
          "name": "",
          "type": "tuple[]"
        }
      ],
      "stateMutability": "view",
      "type": "function"
    },
    {
      "inputs": [],
      "name": "owner",
      "outputs": [
        {
          "internalType": "address",
          "name": "",
          "type": "address"
        }
      ],
      "stateMutability": "view",
      "type": "function"
    },
    {
      "inputs": [
        {
          "internalType": "uint256",
          "name": "id",
          "type": "uint256"
        }
      ],
      "name": "removeCertificate",
      "outputs": [
        {
          "internalType": "bool",
          "name": "",
          "type": "bool"
        }
      ],
      "stateMutability": "nonpayable",
      "type": "function"
    },
    {
      "inputs": [],
      "name": "renounceOwnership",
      "outputs": [],
      "stateMutability": "nonpayable",
      "type": "function"
    },
    {
      "inputs": [
        {
          "internalType": "address",
          "name": "newOwner",
          "type": "address"
        }
      ],
      "name": "transferOwnership",
      "outputs": [],
      "stateMutability": "nonpayable",
      "type": "function"
    },
    {
      "inputs": [
        {
          "internalType": "uint256",
          "name": "id",
          "type": "uint256"
        },
        {
          "internalType": "string",
          "name": "name",
          "type": "string"
        },
        {
          "internalType": "string",
          "name": "email",
          "type": "string"
        },
        {
          "internalType": "string",
          "name": "url",
          "type": "string"
        }
      ],
      "name": "updateCertificate",
      "outputs": [
        {
          "internalType": "bool",
          "name": "",
          "type": "bool"
        }
      ],
      "stateMutability": "nonpayable",
      "type": "function"
    }
  ],
  "bytecode": "0x6080604052600060015534801561001557600080fd5b5061003261002761003760201b60201c565b61003f60201b60201c565b610103565b600033905090565b60008060009054906101000a900473ffffffffffffffffffffffffffffffffffffffff169050816000806101000a81548173ffffffffffffffffffffffffffffffffffffffff021916908373ffffffffffffffffffffffffffffffffffffffff1602179055508173ffffffffffffffffffffffffffffffffffffffff168173ffffffffffffffffffffffffffffffffffffffff167f8be0079c531659141344cd1fd0a4f28419497f9722a3daafe3b4186f6b6457e060405160405180910390a35050565b6119b4806101126000396000f3fe608060405234801561001057600080fd5b50600436106100935760003560e01c80638809f727116100665780638809f727146101355780638b78095f146101535780638da5cb5b14610183578063d610d85f146101a1578063f2fde38b146101d157610093565b806351640fee146100985780635eafe1e5146100cb578063715018a6146100fb5780637991ac8d14610105575b600080fd5b6100b260048036038101906100ad9190610feb565b6101ed565b6040516100c29493929190611602565b60405180910390f35b6100e560048036038101906100e09190611014565b610400565b6040516100f291906114ec565b60405180910390f35b610103610542565b005b61011f600480360381019061011a9190611014565b610556565b60405161012c91906114ec565b60405180910390f35b61013d610659565b60405161014a91906115e7565b60405180910390f35b61016d600480360381019061016891906110bf565b610663565b60405161017a91906114ca565b60405180910390f35b61018b610ab3565b60405161019891906114af565b60405180910390f35b6101bb60048036038101906101b69190610feb565b610adc565b6040516101c891906114ec565b60405180910390f35b6101eb60048036038101906101e69190610fc2565b610beb565b005b60006060806060600260008681526020019081526020016000206000015460026000878152602001908152602001600020600101600260008881526020019081526020016000206002016002600089815260200190815260200160002060030182805461025990611837565b80601f016020809104026020016040519081016040528092919081815260200182805461028590611837565b80156102d25780601f106102a7576101008083540402835291602001916102d2565b820191906000526020600020905b8154815290600101906020018083116102b557829003601f168201915b505050505092508180546102e590611837565b80601f016020809104026020016040519081016040528092919081815260200182805461031190611837565b801561035e5780601f106103335761010080835404028352916020019161035e565b820191906000526020600020905b81548152906001019060200180831161034157829003601f168201915b5050505050915080805461037190611837565b80601f016020809104026020016040519081016040528092919081815260200182805461039d90611837565b80156103ea5780601f106103bf576101008083540402835291602001916103ea565b820191906000526020600020905b8154815290600101906020018083116103cd57829003601f168201915b5050505050905093509350935093509193509193565b600061040a610c6f565b84600260008781526020019081526020016000206000015414610462576040517f08c379a0000000000000000000000000000000000000000000000000000000008152600401610459906115c7565b60405180910390fd5b604051806080016040528086815260200185815260200184815260200183815250600260008781526020019081526020016000206000820151816000015560208201518160010190805190602001906104bc929190610e25565b5060408201518160020190805190602001906104d9929190610e25565b5060608201518160030190805190602001906104f6929190610e25565b509050507f43559942947455eafef5537d51d4d8afbd4ed2f3818d51601e517e2f3bb8738460405161052790611547565b60405180910390a161053885610ced565b9050949350505050565b61054a610c6f565b6105546000610d2c565b565b6000610560610c6f565b604051806080016040528086815260200185815260200184815260200183815250600260008781526020019081526020016000206000820151816000015560208201518160010190805190602001906105ba929190610e25565b5060408201518160020190805190602001906105d7929190610e25565b5060608201518160030190805190602001906105f4929190610e25565b50905050600180600082825461060a9190611723565b925050819055507f43559942947455eafef5537d51d4d8afbd4ed2f3818d51601e517e2f3bb8738460405161063e90611587565b60405180910390a161064f85610ced565b9050949350505050565b6000600154905090565b606061066f8383610df0565b6106ae576040517f08c379a00000000000000000000000000000000000000000000000000000000081526004016106a590611507565b60405180910390fd5b6000600184846106be9190611779565b6106c89190611723565b67ffffffffffffffff811115610707577f4e487b7100000000000000000000000000000000000000000000000000000000600052604160045260246000fd5b60405190808252806020026020018201604052801561074057816020015b61072d610eab565b8152602001906001900390816107255790505b5090506000808590505b848111610aa757600060026000838152602001908152602001600020600001541115610a945760026000828152602001908152602001600020600001548383815181106107c0577f4e487b7100000000000000000000000000000000000000000000000000000000600052603260045260246000fd5b602002602001015160000181815250506002600082815260200190815260200160002060010180546107f190611837565b80601f016020809104026020016040519081016040528092919081815260200182805461081d90611837565b801561086a5780601f1061083f5761010080835404028352916020019161086a565b820191906000526020600020905b81548152906001019060200180831161084d57829003601f168201915b50505050508383815181106108a8577f4e487b7100000000000000000000000000000000000000000000000000000000600052603260045260246000fd5b6020026020010151602001819052506002600082815260200190815260200160002060020180546108d890611837565b80601f016020809104026020016040519081016040528092919081815260200182805461090490611837565b80156109515780601f1061092657610100808354040283529160200191610951565b820191906000526020600020905b81548152906001019060200180831161093457829003601f168201915b505050505083838151811061098f577f4e487b7100000000000000000000000000000000000000000000000000000000600052603260045260246000fd5b6020026020010151604001819052506002600082815260200190815260200160002060030180546109bf90611837565b80601f01602080910402602001604051908101604052809291908181526020018280546109eb90611837565b8015610a385780601f10610a0d57610100808354040283529160200191610a38565b820191906000526020600020905b815481529060010190602001808311610a1b57829003601f168201915b5050505050838381518110610a76577f4e487b7100000000000000000000000000000000000000000000000000000000600052603260045260246000fd5b6020026020010151606001819052508180610a9090611869565b9250505b8080610a9f90611869565b91505061074a565b50819250505092915050565b60008060009054906101000a900473ffffffffffffffffffffffffffffffffffffffff16905090565b6000610ae6610c6f565b81600260008481526020019081526020016000206000015414610b3e576040517f08c379a0000000000000000000000000000000000000000000000000000000008152600401610b35906115c7565b60405180910390fd5b60026000838152602001908152602001600020600080820160009055600182016000610b6a9190610ed3565b600282016000610b7a9190610ed3565b600382016000610b8a9190610ed3565b50506001806000828254610b9e9190611779565b925050819055507f43559942947455eafef5537d51d4d8afbd4ed2f3818d51601e517e2f3bb87384604051610bd290611567565b60405180910390a1610be382610ced565b159050919050565b610bf3610c6f565b600073ffffffffffffffffffffffffffffffffffffffff168173ffffffffffffffffffffffffffffffffffffffff161415610c63576040517f08c379a0000000000000000000000000000000000000000000000000000000008152600401610c5a90611527565b60405180910390fd5b610c6c81610d2c565b50565b610c77610e1d565b73ffffffffffffffffffffffffffffffffffffffff16610c95610ab3565b73ffffffffffffffffffffffffffffffffffffffff1614610ceb576040517f08c379a0000000000000000000000000000000000000000000000000000000008152600401610ce2906115a7565b60405180910390fd5b565b600080600260008481526020019081526020016000206003018054610d1190611837565b90501115610d225760019050610d27565b600090505b919050565b60008060009054906101000a900473ffffffffffffffffffffffffffffffffffffffff169050816000806101000a81548173ffffffffffffffffffffffffffffffffffffffff021916908373ffffffffffffffffffffffffffffffffffffffff1602179055508173ffffffffffffffffffffffffffffffffffffffff168173ffffffffffffffffffffffffffffffffffffffff167f8be0079c531659141344cd1fd0a4f28419497f9722a3daafe3b4186f6b6457e060405160405180910390a35050565b6000808310158015610e0457506001548211155b15610e125760019050610e17565b600090505b92915050565b600033905090565b828054610e3190611837565b90600052602060002090601f016020900481019282610e535760008555610e9a565b82601f10610e6c57805160ff1916838001178555610e9a565b82800160010185558215610e9a579182015b82811115610e99578251825591602001919060010190610e7e565b5b509050610ea79190610f13565b5090565b6040518060800160405280600081526020016060815260200160608152602001606081525090565b508054610edf90611837565b6000825580601f10610ef15750610f10565b601f016020900490600052602060002090810190610f0f9190610f13565b5b50565b5b80821115610f2c576000816000905550600101610f14565b5090565b6000610f43610f3e8461168d565b61165c565b905082815260208101848484011115610f5b57600080fd5b610f668482856117f5565b509392505050565b600081359050610f7d81611950565b92915050565b600082601f830112610f9457600080fd5b8135610fa4848260208601610f30565b91505092915050565b600081359050610fbc81611967565b92915050565b600060208284031215610fd457600080fd5b6000610fe284828501610f6e565b91505092915050565b600060208284031215610ffd57600080fd5b600061100b84828501610fad565b91505092915050565b6000806000806080858703121561102a57600080fd5b600061103887828801610fad565b945050602085013567ffffffffffffffff81111561105557600080fd5b61106187828801610f83565b935050604085013567ffffffffffffffff81111561107e57600080fd5b61108a87828801610f83565b925050606085013567ffffffffffffffff8111156110a757600080fd5b6110b387828801610f83565b91505092959194509250565b600080604083850312156110d257600080fd5b60006110e085828601610fad565b92505060206110f185828601610fad565b9150509250929050565b60006111078383611420565b905092915050565b611118816117ad565b82525050565b6000611129826116cd565b61113381856116f0565b935083602082028501611145856116bd565b8060005b85811015611181578484038952815161116285826110fb565b945061116d836116e3565b925060208a01995050600181019050611149565b50829750879550505050505092915050565b61119c816117bf565b82525050565b60006111ad826116d8565b6111b78185611701565b93506111c7818560208601611804565b6111d08161193f565b840191505092915050565b60006111e6826116d8565b6111f08185611712565b9350611200818560208601611804565b6112098161193f565b840191505092915050565b6000611221602583611712565b91507f506167696e6174696f6e20636f6f7264696e617465732065786365656473206c60008301527f696d6974210000000000000000000000000000000000000000000000000000006020830152604082019050919050565b6000611287602683611712565b91507f4f776e61626c653a206e6577206f776e657220697320746865207a65726f206160008301527f64647265737300000000000000000000000000000000000000000000000000006020830152604082019050919050565b60006112ed601483611712565b91507f43657274696669636174652055706461746564210000000000000000000000006000830152602082019050919050565b600061132d601483611712565b91507f43657274696669636174652052656d6f766564210000000000000000000000006000830152602082019050919050565b600061136d601283611712565b91507f43657274696669636174652041646465642100000000000000000000000000006000830152602082019050919050565b60006113ad602083611712565b91507f4f776e61626c653a2063616c6c6572206973206e6f7420746865206f776e65726000830152602082019050919050565b60006113ed601a83611712565b91507f436572746966696361746520646f6573206e6f742065786973740000000000006000830152602082019050919050565b60006080830160008301516114386000860182611491565b506020830151848203602086015261145082826111a2565b9150506040830151848203604086015261146a82826111a2565b9150506060830151848203606086015261148482826111a2565b9150508091505092915050565b61149a816117eb565b82525050565b6114a9816117eb565b82525050565b60006020820190506114c4600083018461110f565b92915050565b600060208201905081810360008301526114e4818461111e565b905092915050565b60006020820190506115016000830184611193565b92915050565b6000602082019050818103600083015261152081611214565b9050919050565b600060208201905081810360008301526115408161127a565b9050919050565b60006020820190508181036000830152611560816112e0565b9050919050565b6000602082019050818103600083015261158081611320565b9050919050565b600060208201905081810360008301526115a081611360565b9050919050565b600060208201905081810360008301526115c0816113a0565b9050919050565b600060208201905081810360008301526115e0816113e0565b9050919050565b60006020820190506115fc60008301846114a0565b92915050565b600060808201905061161760008301876114a0565b818103602083015261162981866111db565b9050818103604083015261163d81856111db565b9050818103606083015261165181846111db565b905095945050505050565b6000604051905081810181811067ffffffffffffffff8211171561168357611682611910565b5b8060405250919050565b600067ffffffffffffffff8211156116a8576116a7611910565b5b601f19601f8301169050602081019050919050565b6000819050602082019050919050565b600081519050919050565b600081519050919050565b6000602082019050919050565b600082825260208201905092915050565b600082825260208201905092915050565b600082825260208201905092915050565b600061172e826117eb565b9150611739836117eb565b9250827fffffffffffffffffffffffffffffffffffffffffffffffffffffffffffffffff0382111561176e5761176d6118b2565b5b828201905092915050565b6000611784826117eb565b915061178f836117eb565b9250828210156117a2576117a16118b2565b5b828203905092915050565b60006117b8826117cb565b9050919050565b60008115159050919050565b600073ffffffffffffffffffffffffffffffffffffffff82169050919050565b6000819050919050565b82818337600083830152505050565b60005b83811015611822578082015181840152602081019050611807565b83811115611831576000848401525b50505050565b6000600282049050600182168061184f57607f821691505b60208210811415611863576118626118e1565b5b50919050565b6000611874826117eb565b91507fffffffffffffffffffffffffffffffffffffffffffffffffffffffffffffffff8214156118a7576118a66118b2565b5b600182019050919050565b7f4e487b7100000000000000000000000000000000000000000000000000000000600052601160045260246000fd5b7f4e487b7100000000000000000000000000000000000000000000000000000000600052602260045260246000fd5b7f4e487b7100000000000000000000000000000000000000000000000000000000600052604160045260246000fd5b6000601f19601f8301169050919050565b611959816117ad565b811461196457600080fd5b50565b611970816117eb565b811461197b57600080fd5b5056fea26469706673582212201bba6e04fd125da042141adff7ded5e22bf53f87578f5f4275be6a15b3010af564736f6c63430008000033",
  "linkReferences": {},
  "deployedLinkReferences": {}
}