{
  "_format": "hh-sol-artifact-1",
  "contractName": "CertificateStore",
  "sourceName": "contracts/Certificate.sol",
  "abi": [
    {
      "anonymous": false,
      "inputs": [
        {
          "indexed": false,
          "internalType": "string",
          "name": "operation",
          "type": "string"
        }
      ],
      "name": "CertificateOperation",
      "type": "event"
    },
    {
      "anonymous": false,
      "inputs": [
        {
          "indexed": true,
          "internalType": "address",
          "name": "previousOwner",
          "type": "address"
        },
        {
          "indexed": true,
          "internalType": "address",
          "name": "newOwner",
          "type": "address"
        }
      ],
      "name": "OwnershipTransferred",
      "type": "event"
    },
    {
      "inputs": [
        {
          "internalType": "uint256",
          "name": "id",
          "type": "uint256"
        },
        {
          "internalType": "string",
          "name": "url",
          "type": "string"
        }
      ],
      "name": "addCertificate",
      "outputs": [
        {
          "internalType": "bool",
          "name": "",
          "type": "bool"
        }
      ],
      "stateMutability": "nonpayable",
      "type": "function"
    },
    {
      "inputs": [
        {
          "internalType": "uint256",
          "name": "id",
          "type": "uint256"
        }
      ],
      "name": "getCertificate",
      "outputs": [
        {
          "internalType": "uint256",
          "name": "",
          "type": "uint256"
        },
        {
          "internalType": "string",
          "name": "",
          "type": "string"
        }
      ],
      "stateMutability": "view",
      "type": "function"
    },
    {
      "inputs": [],
      "name": "owner",
      "outputs": [
        {
          "internalType": "address",
          "name": "",
          "type": "address"
        }
      ],
      "stateMutability": "view",
      "type": "function"
    },
    {
      "inputs": [
        {
          "internalType": "uint256",
          "name": "id",
          "type": "uint256"
        }
      ],
      "name": "removeCertificate",
      "outputs": [
        {
          "internalType": "bool",
          "name": "",
          "type": "bool"
        }
      ],
      "stateMutability": "nonpayable",
      "type": "function"
    },
    {
      "inputs": [],
      "name": "renounceOwnership",
      "outputs": [],
      "stateMutability": "nonpayable",
      "type": "function"
    },
    {
      "inputs": [
        {
          "internalType": "address",
          "name": "newOwner",
          "type": "address"
        }
      ],
      "name": "transferOwnership",
      "outputs": [],
      "stateMutability": "nonpayable",
      "type": "function"
    },
    {
      "inputs": [
        {
          "internalType": "uint256",
          "name": "id",
          "type": "uint256"
        },
        {
          "internalType": "string",
          "name": "url",
          "type": "string"
        }
      ],
      "name": "updateCertificate",
      "outputs": [
        {
          "internalType": "bool",
          "name": "",
          "type": "bool"
        }
      ],
      "stateMutability": "nonpayable",
      "type": "function"
    }
  ],
  "bytecode": "0x608060405234801561001057600080fd5b5061002d61002261003260201b60201c565b61003a60201b60201c565b6100fe565b600033905090565b60008060009054906101000a900473ffffffffffffffffffffffffffffffffffffffff169050816000806101000a81548173ffffffffffffffffffffffffffffffffffffffff021916908373ffffffffffffffffffffffffffffffffffffffff1602179055508173ffffffffffffffffffffffffffffffffffffffff168173ffffffffffffffffffffffffffffffffffffffff167f8be0079c531659141344cd1fd0a4f28419497f9722a3daafe3b4186f6b6457e060405160405180910390a35050565b610e628061010d6000396000f3fe608060405234801561001057600080fd5b506004361061007d5760003560e01c806399523eaf1161005b57806399523eaf146100db578063ccb1173b1461010b578063d610d85f1461013b578063f2fde38b1461016b5761007d565b806351640fee14610082578063715018a6146100b35780638da5cb5b146100bd575b600080fd5b61009c600480360381019061009791906108a7565b610187565b6040516100aa929190610c26565b60405180910390f35b6100bb61024d565b005b6100c5610261565b6040516100d29190610b30565b60405180910390f35b6100f560048036038101906100f091906108d0565b61028a565b6040516101029190610b4b565b60405180910390f35b610125600480360381019061012091906108d0565b610384565b6040516101329190610b4b565b60405180910390f35b610155600480360381019061015091906108a7565b610426565b6040516101629190610b4b565b60405180910390f35b6101856004803603810190610180919061087e565b6104fc565b005b600060606001600084815260200190815260200160002060000154600160008581526020019081526020016000206001018080546101c490610d5d565b80601f01602080910402602001604051908101604052809291908181526020018280546101f090610d5d565b801561023d5780601f106102125761010080835404028352916020019161023d565b820191906000526020600020905b81548152906001019060200180831161022057829003601f168201915b5050505050905091509150915091565b610255610580565b61025f60006105fe565b565b60008060009054906101000a900473ffffffffffffffffffffffffffffffffffffffff16905090565b6000610294610580565b826001600085815260200190815260200160002060000154146102ec576040517f08c379a00000000000000000000000000000000000000000000000000000000081526004016102e390610c06565b60405180910390fd5b6040518060400160405280848152602001838152506001600085815260200190815260200160002060008201518160000155602082015181600101908051906020019061033a929190610709565b509050507f43559942947455eafef5537d51d4d8afbd4ed2f3818d51601e517e2f3bb8738460405161036b90610b86565b60405180910390a161037c836106c2565b905092915050565b600061038e610580565b604051806040016040528084815260200183815250600160008581526020019081526020016000206000820151816000015560208201518160010190805190602001906103dc929190610709565b509050507f43559942947455eafef5537d51d4d8afbd4ed2f3818d51601e517e2f3bb8738460405161040d90610bc6565b60405180910390a161041e836106c2565b905092915050565b6000610430610580565b81600160008481526020019081526020016000206000015414610488576040517f08c379a000000000000000000000000000000000000000000000000000000000815260040161047f90610c06565b60405180910390fd5b600160008381526020019081526020016000206000808201600090556001820160006104b4919061078f565b50507f43559942947455eafef5537d51d4d8afbd4ed2f3818d51601e517e2f3bb873846040516104e390610ba6565b60405180910390a16104f4826106c2565b159050919050565b610504610580565b600073ffffffffffffffffffffffffffffffffffffffff168173ffffffffffffffffffffffffffffffffffffffff161415610574576040517f08c379a000000000000000000000000000000000000000000000000000000000815260040161056b90610b66565b60405180910390fd5b61057d816105fe565b50565b610588610701565b73ffffffffffffffffffffffffffffffffffffffff166105a6610261565b73ffffffffffffffffffffffffffffffffffffffff16146105fc576040517f08c379a00000000000000000000000000000000000000000000000000000000081526004016105f390610be6565b60405180910390fd5b565b60008060009054906101000a900473ffffffffffffffffffffffffffffffffffffffff169050816000806101000a81548173ffffffffffffffffffffffffffffffffffffffff021916908373ffffffffffffffffffffffffffffffffffffffff1602179055508173ffffffffffffffffffffffffffffffffffffffff168173ffffffffffffffffffffffffffffffffffffffff167f8be0079c531659141344cd1fd0a4f28419497f9722a3daafe3b4186f6b6457e060405160405180910390a35050565b6000806001600084815260200190815260200160002060010180546106e690610d5d565b905011156106f757600190506106fc565b600090505b919050565b600033905090565b82805461071590610d5d565b90600052602060002090601f016020900481019282610737576000855561077e565b82601f1061075057805160ff191683800117855561077e565b8280016001018555821561077e579182015b8281111561077d578251825591602001919060010190610762565b5b50905061078b91906107cf565b5090565b50805461079b90610d5d565b6000825580601f106107ad57506107cc565b601f0160209004906000526020600020908101906107cb91906107cf565b5b50565b5b808211156107e85760008160009055506001016107d0565b5090565b60006107ff6107fa84610c87565b610c56565b90508281526020810184848401111561081757600080fd5b610822848285610d1b565b509392505050565b60008135905061083981610dfe565b92915050565b600082601f83011261085057600080fd5b81356108608482602086016107ec565b91505092915050565b60008135905061087881610e15565b92915050565b60006020828403121561089057600080fd5b600061089e8482850161082a565b91505092915050565b6000602082840312156108b957600080fd5b60006108c784828501610869565b91505092915050565b600080604083850312156108e357600080fd5b60006108f185828601610869565b925050602083013567ffffffffffffffff81111561090e57600080fd5b61091a8582860161083f565b9150509250929050565b61092d81610cd3565b82525050565b61093c81610ce5565b82525050565b600061094d82610cb7565b6109578185610cc2565b9350610967818560208601610d2a565b61097081610ded565b840191505092915050565b6000610988602683610cc2565b91507f4f776e61626c653a206e6577206f776e657220697320746865207a65726f206160008301527f64647265737300000000000000000000000000000000000000000000000000006020830152604082019050919050565b60006109ee601483610cc2565b91507f43657274696669636174652055706461746564210000000000000000000000006000830152602082019050919050565b6000610a2e601483610cc2565b91507f43657274696669636174652052656d6f766564210000000000000000000000006000830152602082019050919050565b6000610a6e601283610cc2565b91507f43657274696669636174652041646465642100000000000000000000000000006000830152602082019050919050565b6000610aae602083610cc2565b91507f4f776e61626c653a2063616c6c6572206973206e6f7420746865206f776e65726000830152602082019050919050565b6000610aee601a83610cc2565b91507f436572746966696361746520646f6573206e6f742065786973740000000000006000830152602082019050919050565b610b2a81610d11565b82525050565b6000602082019050610b456000830184610924565b92915050565b6000602082019050610b606000830184610933565b92915050565b60006020820190508181036000830152610b7f8161097b565b9050919050565b60006020820190508181036000830152610b9f816109e1565b9050919050565b60006020820190508181036000830152610bbf81610a21565b9050919050565b60006020820190508181036000830152610bdf81610a61565b9050919050565b60006020820190508181036000830152610bff81610aa1565b9050919050565b60006020820190508181036000830152610c1f81610ae1565b9050919050565b6000604082019050610c3b6000830185610b21565b8181036020830152610c4d8184610942565b90509392505050565b6000604051905081810181811067ffffffffffffffff82111715610c7d57610c7c610dbe565b5b8060405250919050565b600067ffffffffffffffff821115610ca257610ca1610dbe565b5b601f19601f8301169050602081019050919050565b600081519050919050565b600082825260208201905092915050565b6000610cde82610cf1565b9050919050565b60008115159050919050565b600073ffffffffffffffffffffffffffffffffffffffff82169050919050565b6000819050919050565b82818337600083830152505050565b60005b83811015610d48578082015181840152602081019050610d2d565b83811115610d57576000848401525b50505050565b60006002820490506001821680610d7557607f821691505b60208210811415610d8957610d88610d8f565b5b50919050565b7f4e487b7100000000000000000000000000000000000000000000000000000000600052602260045260246000fd5b7f4e487b7100000000000000000000000000000000000000000000000000000000600052604160045260246000fd5b6000601f19601f8301169050919050565b610e0781610cd3565b8114610e1257600080fd5b50565b610e1e81610d11565b8114610e2957600080fd5b5056fea26469706673582212205bac6c247e91b6e81ced7ed336d87794c0d087196ce5a1c32b554734ea5e98ea64736f6c63430008000033",
  "linkReferences": {},
  "deployedLinkReferences": {}
}