{
  "_format": "hh-sol-artifact-1",
  "contractName": "CertificateStore",
  "sourceName": "contracts/Certificate.sol",
  "abi": [
    {
      "anonymous": false,
      "inputs": [
        {
          "indexed": false,
          "internalType": "string",
          "name": "operation",
          "type": "string"
        }
      ],
      "name": "CertificateOperation",
      "type": "event"
    },
    {
      "anonymous": false,
      "inputs": [
        {
          "indexed": true,
          "internalType": "address",
          "name": "previousOwner",
          "type": "address"
        },
        {
          "indexed": true,
          "internalType": "address",
          "name": "newOwner",
          "type": "address"
        }
      ],
      "name": "OwnershipTransferred",
      "type": "event"
    },
    {
      "inputs": [
        {
          "internalType": "uint256",
          "name": "id",
          "type": "uint256"
        },
        {
          "internalType": "string",
          "name": "url",
          "type": "string"
        }
      ],
      "name": "addCertificate",
      "outputs": [],
      "stateMutability": "nonpayable",
      "type": "function"
    },
    {
      "inputs": [
        {
          "internalType": "uint256",
          "name": "id",
          "type": "uint256"
        }
      ],
      "name": "getCertificate",
      "outputs": [
        {
          "internalType": "uint256",
          "name": "",
          "type": "uint256"
        },
        {
          "internalType": "string",
          "name": "",
          "type": "string"
        }
      ],
      "stateMutability": "view",
      "type": "function"
    },
    {
      "inputs": [],
      "name": "owner",
      "outputs": [
        {
          "internalType": "address",
          "name": "",
          "type": "address"
        }
      ],
      "stateMutability": "view",
      "type": "function"
    },
    {
      "inputs": [
        {
          "internalType": "uint256",
          "name": "id",
          "type": "uint256"
        }
      ],
      "name": "removeCertificate",
      "outputs": [],
      "stateMutability": "nonpayable",
      "type": "function"
    },
    {
      "inputs": [],
      "name": "renounceOwnership",
      "outputs": [],
      "stateMutability": "nonpayable",
      "type": "function"
    },
    {
      "inputs": [
        {
          "internalType": "address",
          "name": "newOwner",
          "type": "address"
        }
      ],
      "name": "transferOwnership",
      "outputs": [],
      "stateMutability": "nonpayable",
      "type": "function"
    },
    {
      "inputs": [
        {
          "internalType": "uint256",
          "name": "id",
          "type": "uint256"
        },
        {
          "internalType": "string",
          "name": "url",
          "type": "string"
        }
      ],
      "name": "updateCertificate",
      "outputs": [],
      "stateMutability": "nonpayable",
      "type": "function"
    }
  ],
  "bytecode": "0x608060405234801561001057600080fd5b5061002d61002261003260201b60201c565b61003a60201b60201c565b6100fe565b600033905090565b60008060009054906101000a900473ffffffffffffffffffffffffffffffffffffffff169050816000806101000a81548173ffffffffffffffffffffffffffffffffffffffff021916908373ffffffffffffffffffffffffffffffffffffffff1602179055508173ffffffffffffffffffffffffffffffffffffffff168173ffffffffffffffffffffffffffffffffffffffff167f8be0079c531659141344cd1fd0a4f28419497f9722a3daafe3b4186f6b6457e060405160405180910390a35050565b610d838061010d6000396000f3fe608060405234801561001057600080fd5b506004361061007d5760003560e01c806399523eaf1161005b57806399523eaf146100db578063ccb1173b146100f7578063d610d85f14610113578063f2fde38b1461012f5761007d565b806351640fee14610082578063715018a6146100b35780638da5cb5b146100bd575b600080fd5b61009c600480360381019061009791906107fe565b61014b565b6040516100aa929190610b53565b60405180910390f35b6100bb610211565b005b6100c5610225565b6040516100d29190610a78565b60405180910390f35b6100f560048036038101906100f09190610827565b61024e565b005b610111600480360381019061010c9190610827565b610339565b005b61012d600480360381019061012891906107fe565b6103cc565b005b610149600480360381019061014491906107d5565b610492565b005b6000606060016000848152602001908152602001600020600001546001600085815260200190815260200160002060010180805461018890610c7e565b80601f01602080910402602001604051908101604052809291908181526020018280546101b490610c7e565b80156102015780601f106101d657610100808354040283529160200191610201565b820191906000526020600020905b8154815290600101906020018083116101e457829003601f168201915b5050505050905091509150915091565b610219610516565b6102236000610594565b565b60008060009054906101000a900473ffffffffffffffffffffffffffffffffffffffff16905090565b610256610516565b816001600084815260200190815260200160002060000154146102ae576040517f08c379a00000000000000000000000000000000000000000000000000000000081526004016102a590610b33565b60405180910390fd5b604051806040016040528083815260200182815250600160008481526020019081526020016000206000820151816000015560208201518160010190805190602001906102fc929190610660565b509050507f43559942947455eafef5537d51d4d8afbd4ed2f3818d51601e517e2f3bb8738460405161032d90610ab3565b60405180910390a15050565b610341610516565b6040518060400160405280838152602001828152506001600084815260200190815260200160002060008201518160000155602082015181600101908051906020019061038f929190610660565b509050507f43559942947455eafef5537d51d4d8afbd4ed2f3818d51601e517e2f3bb873846040516103c090610af3565b60405180910390a15050565b6103d4610516565b8060016000838152602001908152602001600020600001541461042c576040517f08c379a000000000000000000000000000000000000000000000000000000000815260040161042390610b33565b60405180910390fd5b6001600082815260200190815260200160002060008082016000905560018201600061045891906106e6565b50507f43559942947455eafef5537d51d4d8afbd4ed2f3818d51601e517e2f3bb8738460405161048790610ad3565b60405180910390a150565b61049a610516565b600073ffffffffffffffffffffffffffffffffffffffff168173ffffffffffffffffffffffffffffffffffffffff16141561050a576040517f08c379a000000000000000000000000000000000000000000000000000000000815260040161050190610a93565b60405180910390fd5b61051381610594565b50565b61051e610658565b73ffffffffffffffffffffffffffffffffffffffff1661053c610225565b73ffffffffffffffffffffffffffffffffffffffff1614610592576040517f08c379a000000000000000000000000000000000000000000000000000000000815260040161058990610b13565b60405180910390fd5b565b60008060009054906101000a900473ffffffffffffffffffffffffffffffffffffffff169050816000806101000a81548173ffffffffffffffffffffffffffffffffffffffff021916908373ffffffffffffffffffffffffffffffffffffffff1602179055508173ffffffffffffffffffffffffffffffffffffffff168173ffffffffffffffffffffffffffffffffffffffff167f8be0079c531659141344cd1fd0a4f28419497f9722a3daafe3b4186f6b6457e060405160405180910390a35050565b600033905090565b82805461066c90610c7e565b90600052602060002090601f01602090048101928261068e57600085556106d5565b82601f106106a757805160ff19168380011785556106d5565b828001600101855582156106d5579182015b828111156106d45782518255916020019190600101906106b9565b5b5090506106e29190610726565b5090565b5080546106f290610c7e565b6000825580601f106107045750610723565b601f0160209004906000526020600020908101906107229190610726565b5b50565b5b8082111561073f576000816000905550600101610727565b5090565b600061075661075184610bb4565b610b83565b90508281526020810184848401111561076e57600080fd5b610779848285610c3c565b509392505050565b60008135905061079081610d1f565b92915050565b600082601f8301126107a757600080fd5b81356107b7848260208601610743565b91505092915050565b6000813590506107cf81610d36565b92915050565b6000602082840312156107e757600080fd5b60006107f584828501610781565b91505092915050565b60006020828403121561081057600080fd5b600061081e848285016107c0565b91505092915050565b6000806040838503121561083a57600080fd5b6000610848858286016107c0565b925050602083013567ffffffffffffffff81111561086557600080fd5b61087185828601610796565b9150509250929050565b61088481610c00565b82525050565b600061089582610be4565b61089f8185610bef565b93506108af818560208601610c4b565b6108b881610d0e565b840191505092915050565b60006108d0602683610bef565b91507f4f776e61626c653a206e6577206f776e657220697320746865207a65726f206160008301527f64647265737300000000000000000000000000000000000000000000000000006020830152604082019050919050565b6000610936601483610bef565b91507f43657274696669636174652055706461746564210000000000000000000000006000830152602082019050919050565b6000610976601483610bef565b91507f43657274696669636174652052656d6f766564210000000000000000000000006000830152602082019050919050565b60006109b6601283610bef565b91507f43657274696669636174652041646465642100000000000000000000000000006000830152602082019050919050565b60006109f6602083610bef565b91507f4f776e61626c653a2063616c6c6572206973206e6f7420746865206f776e65726000830152602082019050919050565b6000610a36601a83610bef565b91507f436572746966696361746520646f6573206e6f742065786973740000000000006000830152602082019050919050565b610a7281610c32565b82525050565b6000602082019050610a8d600083018461087b565b92915050565b60006020820190508181036000830152610aac816108c3565b9050919050565b60006020820190508181036000830152610acc81610929565b9050919050565b60006020820190508181036000830152610aec81610969565b9050919050565b60006020820190508181036000830152610b0c816109a9565b9050919050565b60006020820190508181036000830152610b2c816109e9565b9050919050565b60006020820190508181036000830152610b4c81610a29565b9050919050565b6000604082019050610b686000830185610a69565b8181036020830152610b7a818461088a565b90509392505050565b6000604051905081810181811067ffffffffffffffff82111715610baa57610ba9610cdf565b5b8060405250919050565b600067ffffffffffffffff821115610bcf57610bce610cdf565b5b601f19601f8301169050602081019050919050565b600081519050919050565b600082825260208201905092915050565b6000610c0b82610c12565b9050919050565b600073ffffffffffffffffffffffffffffffffffffffff82169050919050565b6000819050919050565b82818337600083830152505050565b60005b83811015610c69578082015181840152602081019050610c4e565b83811115610c78576000848401525b50505050565b60006002820490506001821680610c9657607f821691505b60208210811415610caa57610ca9610cb0565b5b50919050565b7f4e487b7100000000000000000000000000000000000000000000000000000000600052602260045260246000fd5b7f4e487b7100000000000000000000000000000000000000000000000000000000600052604160045260246000fd5b6000601f19601f8301169050919050565b610d2881610c00565b8114610d3357600080fd5b50565b610d3f81610c32565b8114610d4a57600080fd5b5056fea26469706673582212207e396afa110876cc0e1a053ccdf68a2ad51faa04e2e78234ef7b4a4b6314218364736f6c63430008000033",
  "linkReferences": {},
  "deployedLinkReferences": {}
}