{
  "_format": "hh-sol-artifact-1",
  "contractName": "CertificateStore",
  "sourceName": "contracts/Certificate.sol",
  "abi": [
    {
      "anonymous": false,
      "inputs": [
        {
          "indexed": false,
          "internalType": "string",
          "name": "operation",
          "type": "string"
        }
      ],
      "name": "CertificateOperation",
      "type": "event"
    },
    {
      "anonymous": false,
      "inputs": [
        {
          "indexed": true,
          "internalType": "address",
          "name": "previousOwner",
          "type": "address"
        },
        {
          "indexed": true,
          "internalType": "address",
          "name": "newOwner",
          "type": "address"
        }
      ],
      "name": "OwnershipTransferred",
      "type": "event"
    },
    {
      "inputs": [
        {
          "internalType": "string",
          "name": "id",
          "type": "string"
        },
        {
          "internalType": "string",
          "name": "name",
          "type": "string"
        },
        {
          "internalType": "string",
          "name": "email",
          "type": "string"
        },
        {
          "internalType": "string",
          "name": "url",
          "type": "string"
        }
      ],
      "name": "addCertificate",
      "outputs": [
        {
          "internalType": "bool",
          "name": "",
          "type": "bool"
        }
      ],
      "stateMutability": "nonpayable",
      "type": "function"
    },
    {
      "inputs": [
        {
          "internalType": "string",
          "name": "id",
          "type": "string"
        }
      ],
      "name": "getCertificate",
      "outputs": [
        {
          "internalType": "string",
          "name": "",
          "type": "string"
        },
        {
          "internalType": "string",
          "name": "",
          "type": "string"
        },
        {
          "internalType": "string",
          "name": "",
          "type": "string"
        },
        {
          "internalType": "string",
          "name": "",
          "type": "string"
        }
      ],
      "stateMutability": "view",
      "type": "function"
    },
    {
      "inputs": [],
      "name": "getCertificateCount",
      "outputs": [
        {
          "internalType": "uint256",
          "name": "",
          "type": "uint256"
        }
      ],
      "stateMutability": "view",
      "type": "function"
    },
    {
      "inputs": [
        {
          "internalType": "uint256",
          "name": "from",
          "type": "uint256"
        },
        {
          "internalType": "uint256",
          "name": "to",
          "type": "uint256"
        }
      ],
      "name": "getCertificatesWithPagination",
      "outputs": [
        {
          "components": [
            {
              "internalType": "string",
              "name": "id",
              "type": "string"
            },
            {
              "internalType": "string",
              "name": "name",
              "type": "string"
            },
            {
              "internalType": "string",
              "name": "email",
              "type": "string"
            },
            {
              "internalType": "string",
              "name": "url",
              "type": "string"
            }
          ],
          "internalType": "struct CertificateStore.Certificate[]",
          "name": "",
          "type": "tuple[]"
        }
      ],
      "stateMutability": "view",
      "type": "function"
    },
    {
      "inputs": [],
      "name": "owner",
      "outputs": [
        {
          "internalType": "address",
          "name": "",
          "type": "address"
        }
      ],
      "stateMutability": "view",
      "type": "function"
    },
    {
      "inputs": [
        {
          "internalType": "string",
          "name": "id",
          "type": "string"
        }
      ],
      "name": "removeCertificate",
      "outputs": [
        {
          "internalType": "bool",
          "name": "",
          "type": "bool"
        }
      ],
      "stateMutability": "nonpayable",
      "type": "function"
    },
    {
      "inputs": [],
      "name": "renounceOwnership",
      "outputs": [],
      "stateMutability": "nonpayable",
      "type": "function"
    },
    {
      "inputs": [
        {
          "internalType": "address",
          "name": "newOwner",
          "type": "address"
        }
      ],
      "name": "transferOwnership",
      "outputs": [],
      "stateMutability": "nonpayable",
      "type": "function"
    },
    {
      "inputs": [
        {
          "internalType": "string",
          "name": "id",
          "type": "string"
        },
        {
          "internalType": "string",
          "name": "name",
          "type": "string"
        },
        {
          "internalType": "string",
          "name": "email",
          "type": "string"
        },
        {
          "internalType": "string",
          "name": "url",
          "type": "string"
        }
      ],
      "name": "updateCertificate",
      "outputs": [
        {
          "internalType": "bool",
          "name": "",
          "type": "bool"
        }
      ],
      "stateMutability": "nonpayable",
      "type": "function"
    }
  ],
  "bytecode": "0x6080604052600060015534801561001557600080fd5b5061003261002761003760201b60201c565b61003f60201b60201c565b610103565b600033905090565b60008060009054906101000a900473ffffffffffffffffffffffffffffffffffffffff169050816000806101000a81548173ffffffffffffffffffffffffffffffffffffffff021916908373ffffffffffffffffffffffffffffffffffffffff1602179055508173ffffffffffffffffffffffffffffffffffffffff168173ffffffffffffffffffffffffffffffffffffffff167f8be0079c531659141344cd1fd0a4f28419497f9722a3daafe3b4186f6b6457e060405160405180910390a35050565b6122d680620001136000396000f3fe608060405234801561001057600080fd5b50600436106100935760003560e01c80638809f727116100665780638809f727146101325780638b78095f146101505780638da5cb5b14610180578063ed0f2e751461019e578063f2fde38b146101d157610093565b80633bd3bc5014610098578063546a16d5146100c8578063715018a6146100f857806372c4463814610102575b600080fd5b6100b260048036038101906100ad91906117e6565b6101ed565b6040516100bf9190611dbc565b60405180910390f35b6100e260048036038101906100dd91906117a5565b6103e7565b6040516100ef9190611dbc565b60405180910390f35b6101006105f4565b005b61011c600480360381019061011791906117e6565b610608565b6040516101299190611dbc565b60405180910390f35b61013a610854565b6040516101479190611f58565b60405180910390f35b61016a600480360381019061016591906118a9565b61085e565b6040516101779190611d9a565b60405180910390f35b610188610ea9565b6040516101959190611d7f565b60405180910390f35b6101b860048036038101906101b391906117a5565b610ed2565b6040516101c89493929190611dd7565b60405180910390f35b6101eb60048036038101906101e6919061177c565b61119b565b005b60006101f761121f565b6102aa60028660405161020a9190611d68565b9081526020016040518091039020600001805461022690612159565b80601f016020809104026020016040519081016040528092919081815260200182805461025290612159565b801561029f5780601f106102745761010080835404028352916020019161029f565b820191906000526020600020905b81548152906001019060200180831161028257829003601f168201915b50505050508661129d565b6102e9576040517f08c379a00000000000000000000000000000000000000000000000000000000081526004016102e090611f38565b60405180910390fd5b60405180608001604052808681526020018581526020018481526020018381525060028660405161031a9190611d68565b90815260200160405180910390206000820151816000019080519060200190610344929190611552565b506020820151816001019080519060200190610361929190611552565b50604082015181600201908051906020019061037e929190611552565b50606082015181600301908051906020019061039b929190611552565b509050507f43559942947455eafef5537d51d4d8afbd4ed2f3818d51601e517e2f3bb873846040516103cc90611e98565b60405180910390a16103dd856112f6565b9050949350505050565b60006103f161121f565b6104a46002836040516104049190611d68565b9081526020016040518091039020600001805461042090612159565b80601f016020809104026020016040519081016040528092919081815260200182805461044c90612159565b80156104995780601f1061046e57610100808354040283529160200191610499565b820191906000526020600020905b81548152906001019060200180831161047c57829003601f168201915b50505050508361129d565b6104e3576040517f08c379a00000000000000000000000000000000000000000000000000000000081526004016104da90611f38565b60405180910390fd5b6002826040516104f39190611d68565b90815260200160405180910390206000808201600061051291906115d8565b60018201600061052291906115d8565b60028201600061053291906115d8565b60038201600061054291906115d8565b5050600061054f83611340565b90506003600060018054610563919061209b565b81526020019081526020016000206003600083815260200190815260200160002090805461059090612159565b61059b929190611618565b5060018060008282546105ae919061209b565b925050819055507f43559942947455eafef5537d51d4d8afbd4ed2f3818d51601e517e2f3bb873846040516105e290611ed8565b60405180910390a16001915050919050565b6105fc61121f565b6106066000611459565b565b600061061261121f565b6106d46002866040516106259190611d68565b9081526020016040518091039020600001805461064190612159565b80601f016020809104026020016040519081016040528092919081815260200182805461066d90612159565b80156106ba5780601f1061068f576101008083540402835291602001916106ba565b820191906000526020600020905b81548152906001019060200180831161069d57829003601f168201915b50505050506040518060200160405280600081525061129d565b610713576040517f08c379a000000000000000000000000000000000000000000000000000000000815260040161070a90611eb8565b60405180910390fd5b84600360006001548152602001908152602001600020908051906020019061073c929190611552565b5060405180608001604052808681526020018581526020018481526020018381525060028660405161076e9190611d68565b90815260200160405180910390206000820151816000019080519060200190610798929190611552565b5060208201518160010190805190602001906107b5929190611552565b5060408201518160020190805190602001906107d2929190611552565b5060608201518160030190805190602001906107ef929190611552565b5090505060018060008282546108059190612045565b925050819055507f43559942947455eafef5537d51d4d8afbd4ed2f3818d51601e517e2f3bb8738460405161083990611ef8565b60405180910390a161084a856112f6565b9050949350505050565b6000600154905090565b606061086a838361151d565b6108a9576040517f08c379a00000000000000000000000000000000000000000000000000000000081526004016108a090611e58565b60405180910390fd5b6000600184846108b9919061209b565b6108c39190612045565b67ffffffffffffffff811115610902577f4e487b7100000000000000000000000000000000000000000000000000000000600052604160045260246000fd5b60405190808252806020026020018201604052801561093b57816020015b6109286116a5565b8152602001906001900390816109205790505b5090506000808590505b848111610e9d57600060036000838152602001908152602001600020805461096c90612159565b80601f016020809104026020016040519081016040528092919081815260200182805461099890612159565b80156109e55780601f106109ba576101008083540402835291602001916109e5565b820191906000526020600020905b8154815290600101906020018083116109c857829003601f168201915b50505050509050610aae6002826040516109ff9190611d68565b90815260200160405180910390206000018054610a1b90612159565b80601f0160208091040260200160405190810160405280929190818152602001828054610a4790612159565b8015610a945780601f10610a6957610100808354040283529160200191610a94565b820191906000526020600020905b815481529060010190602001808311610a7757829003601f168201915b50505050506040518060200160405280600081525061129d565b610e8957600281604051610ac29190611d68565b90815260200160405180910390206000018054610ade90612159565b80601f0160208091040260200160405190810160405280929190818152602001828054610b0a90612159565b8015610b575780601f10610b2c57610100808354040283529160200191610b57565b820191906000526020600020905b815481529060010190602001808311610b3a57829003601f168201915b5050505050848481518110610b95577f4e487b7100000000000000000000000000000000000000000000000000000000600052603260045260246000fd5b602002602001015160000181905250600281604051610bb49190611d68565b90815260200160405180910390206001018054610bd090612159565b80601f0160208091040260200160405190810160405280929190818152602001828054610bfc90612159565b8015610c495780601f10610c1e57610100808354040283529160200191610c49565b820191906000526020600020905b815481529060010190602001808311610c2c57829003601f168201915b5050505050848481518110610c87577f4e487b7100000000000000000000000000000000000000000000000000000000600052603260045260246000fd5b602002602001015160200181905250600281604051610ca69190611d68565b90815260200160405180910390206002018054610cc290612159565b80601f0160208091040260200160405190810160405280929190818152602001828054610cee90612159565b8015610d3b5780601f10610d1057610100808354040283529160200191610d3b565b820191906000526020600020905b815481529060010190602001808311610d1e57829003601f168201915b5050505050848481518110610d79577f4e487b7100000000000000000000000000000000000000000000000000000000600052603260045260246000fd5b602002602001015160400181905250600281604051610d989190611d68565b90815260200160405180910390206003018054610db490612159565b80601f0160208091040260200160405190810160405280929190818152602001828054610de090612159565b8015610e2d5780601f10610e0257610100808354040283529160200191610e2d565b820191906000526020600020905b815481529060010190602001808311610e1057829003601f168201915b5050505050848481518110610e6b577f4e487b7100000000000000000000000000000000000000000000000000000000600052603260045260246000fd5b6020026020010151606001819052508280610e859061218b565b9350505b508080610e959061218b565b915050610945565b50819250505092915050565b60008060009054906101000a900473ffffffffffffffffffffffffffffffffffffffff16905090565b606080606080600285604051610ee89190611d68565b9081526020016040518091039020600001600286604051610f099190611d68565b9081526020016040518091039020600101600287604051610f2a9190611d68565b9081526020016040518091039020600201600288604051610f4b9190611d68565b9081526020016040518091039020600301838054610f6890612159565b80601f0160208091040260200160405190810160405280929190818152602001828054610f9490612159565b8015610fe15780601f10610fb657610100808354040283529160200191610fe1565b820191906000526020600020905b815481529060010190602001808311610fc457829003601f168201915b50505050509350828054610ff490612159565b80601f016020809104026020016040519081016040528092919081815260200182805461102090612159565b801561106d5780601f106110425761010080835404028352916020019161106d565b820191906000526020600020905b81548152906001019060200180831161105057829003601f168201915b5050505050925081805461108090612159565b80601f01602080910402602001604051908101604052809291908181526020018280546110ac90612159565b80156110f95780601f106110ce576101008083540402835291602001916110f9565b820191906000526020600020905b8154815290600101906020018083116110dc57829003601f168201915b5050505050915080805461110c90612159565b80601f016020809104026020016040519081016040528092919081815260200182805461113890612159565b80156111855780601f1061115a57610100808354040283529160200191611185565b820191906000526020600020905b81548152906001019060200180831161116857829003601f168201915b5050505050905093509350935093509193509193565b6111a361121f565b600073ffffffffffffffffffffffffffffffffffffffff168173ffffffffffffffffffffffffffffffffffffffff161415611213576040517f08c379a000000000000000000000000000000000000000000000000000000000815260040161120a90611e78565b60405180910390fd5b61121c81611459565b50565b61122761154a565b73ffffffffffffffffffffffffffffffffffffffff16611245610ea9565b73ffffffffffffffffffffffffffffffffffffffff161461129b576040517f08c379a000000000000000000000000000000000000000000000000000000000815260040161129290611f18565b60405180910390fd5b565b6000816040516020016112b09190611d68565b60405160208183030381529060405280519060200120836040516020016112d79190611d68565b6040516020818303038152906040528051906020012014905092915050565b6000806002836040516113099190611d68565b9081526020016040518091039020600301805461132590612159565b90501115611336576001905061133b565b600090505b919050565b600080600090505b600154811015611418576113f760036000838152602001908152602001600020805461137390612159565b80601f016020809104026020016040519081016040528092919081815260200182805461139f90612159565b80156113ec5780601f106113c1576101008083540402835291602001916113ec565b820191906000526020600020905b8154815290600101906020018083116113cf57829003601f168201915b50505050508461129d565b156114055780915050611454565b80806114109061218b565b915050611348565b506040517f08c379a000000000000000000000000000000000000000000000000000000000815260040161144b90611e38565b60405180910390fd5b919050565b60008060009054906101000a900473ffffffffffffffffffffffffffffffffffffffff169050816000806101000a81548173ffffffffffffffffffffffffffffffffffffffff021916908373ffffffffffffffffffffffffffffffffffffffff1602179055508173ffffffffffffffffffffffffffffffffffffffff168173ffffffffffffffffffffffffffffffffffffffff167f8be0079c531659141344cd1fd0a4f28419497f9722a3daafe3b4186f6b6457e060405160405180910390a35050565b600080831015801561153157506001548211155b1561153f5760019050611544565b600090505b92915050565b600033905090565b82805461155e90612159565b90600052602060002090601f01602090048101928261158057600085556115c7565b82601f1061159957805160ff19168380011785556115c7565b828001600101855582156115c7579182015b828111156115c65782518255916020019190600101906115ab565b5b5090506115d491906116cd565b5090565b5080546115e490612159565b6000825580601f106115f65750611615565b601f01602090049060005260206000209081019061161491906116cd565b5b50565b82805461162490612159565b90600052602060002090601f0160209004810192826116465760008555611694565b82601f106116575780548555611694565b8280016001018555821561169457600052602060002091601f016020900482015b82811115611693578254825591600101919060010190611678565b5b5090506116a191906116cd565b5090565b6040518060800160405280606081526020016060815260200160608152602001606081525090565b5b808211156116e65760008160009055506001016116ce565b5090565b60006116fd6116f884611fa4565b611f73565b90508281526020810184848401111561171557600080fd5b611720848285612117565b509392505050565b60008135905061173781612272565b92915050565b600082601f83011261174e57600080fd5b813561175e8482602086016116ea565b91505092915050565b60008135905061177681612289565b92915050565b60006020828403121561178e57600080fd5b600061179c84828501611728565b91505092915050565b6000602082840312156117b757600080fd5b600082013567ffffffffffffffff8111156117d157600080fd5b6117dd8482850161173d565b91505092915050565b600080600080608085870312156117fc57600080fd5b600085013567ffffffffffffffff81111561181657600080fd5b6118228782880161173d565b945050602085013567ffffffffffffffff81111561183f57600080fd5b61184b8782880161173d565b935050604085013567ffffffffffffffff81111561186857600080fd5b6118748782880161173d565b925050606085013567ffffffffffffffff81111561189157600080fd5b61189d8782880161173d565b91505092959194509250565b600080604083850312156118bc57600080fd5b60006118ca85828601611767565b92505060206118db85828601611767565b9150509250929050565b60006118f18383611ce1565b905092915050565b611902816120cf565b82525050565b600061191382611fe4565b61191d8185612007565b93508360208202850161192f85611fd4565b8060005b8581101561196b578484038952815161194c85826118e5565b945061195783611ffa565b925060208a01995050600181019050611933565b50829750879550505050505092915050565b611986816120e1565b82525050565b600061199782611fef565b6119a18185612018565b93506119b1818560208601612126565b6119ba81612261565b840191505092915050565b60006119d082611fef565b6119da8185612029565b93506119ea818560208601612126565b6119f381612261565b840191505092915050565b6000611a0982611fef565b611a13818561203a565b9350611a23818560208601612126565b80840191505092915050565b6000611a3c602783612029565b91507f4365727469666963617465206e6f7420666f756e6420696e206365727469666960008301527f63617465496473000000000000000000000000000000000000000000000000006020830152604082019050919050565b6000611aa2602583612029565b91507f506167696e6174696f6e20636f6f7264696e617465732065786365656473206c60008301527f696d6974210000000000000000000000000000000000000000000000000000006020830152604082019050919050565b6000611b08602683612029565b91507f4f776e61626c653a206e6577206f776e657220697320746865207a65726f206160008301527f64647265737300000000000000000000000000000000000000000000000000006020830152604082019050919050565b6000611b6e601483612029565b91507f43657274696669636174652055706461746564210000000000000000000000006000830152602082019050919050565b6000611bae601183612029565b91507f496420616c7265616479206578697374730000000000000000000000000000006000830152602082019050919050565b6000611bee601483612029565b91507f43657274696669636174652052656d6f766564210000000000000000000000006000830152602082019050919050565b6000611c2e601283612029565b91507f43657274696669636174652041646465642100000000000000000000000000006000830152602082019050919050565b6000611c6e602083612029565b91507f4f776e61626c653a2063616c6c6572206973206e6f7420746865206f776e65726000830152602082019050919050565b6000611cae601a83612029565b91507f436572746966696361746520646f6573206e6f742065786973740000000000006000830152602082019050919050565b60006080830160008301518482036000860152611cfe828261198c565b91505060208301518482036020860152611d18828261198c565b91505060408301518482036040860152611d32828261198c565b91505060608301518482036060860152611d4c828261198c565b9150508091505092915050565b611d628161210d565b82525050565b6000611d7482846119fe565b915081905092915050565b6000602082019050611d9460008301846118f9565b92915050565b60006020820190508181036000830152611db48184611908565b905092915050565b6000602082019050611dd1600083018461197d565b92915050565b60006080820190508181036000830152611df181876119c5565b90508181036020830152611e0581866119c5565b90508181036040830152611e1981856119c5565b90508181036060830152611e2d81846119c5565b905095945050505050565b60006020820190508181036000830152611e5181611a2f565b9050919050565b60006020820190508181036000830152611e7181611a95565b9050919050565b60006020820190508181036000830152611e9181611afb565b9050919050565b60006020820190508181036000830152611eb181611b61565b9050919050565b60006020820190508181036000830152611ed181611ba1565b9050919050565b60006020820190508181036000830152611ef181611be1565b9050919050565b60006020820190508181036000830152611f1181611c21565b9050919050565b60006020820190508181036000830152611f3181611c61565b9050919050565b60006020820190508181036000830152611f5181611ca1565b9050919050565b6000602082019050611f6d6000830184611d59565b92915050565b6000604051905081810181811067ffffffffffffffff82111715611f9a57611f99612232565b5b8060405250919050565b600067ffffffffffffffff821115611fbf57611fbe612232565b5b601f19601f8301169050602081019050919050565b6000819050602082019050919050565b600081519050919050565b600081519050919050565b6000602082019050919050565b600082825260208201905092915050565b600082825260208201905092915050565b600082825260208201905092915050565b600081905092915050565b60006120508261210d565b915061205b8361210d565b9250827fffffffffffffffffffffffffffffffffffffffffffffffffffffffffffffffff038211156120905761208f6121d4565b5b828201905092915050565b60006120a68261210d565b91506120b18361210d565b9250828210156120c4576120c36121d4565b5b828203905092915050565b60006120da826120ed565b9050919050565b60008115159050919050565b600073ffffffffffffffffffffffffffffffffffffffff82169050919050565b6000819050919050565b82818337600083830152505050565b60005b83811015612144578082015181840152602081019050612129565b83811115612153576000848401525b50505050565b6000600282049050600182168061217157607f821691505b6020821081141561218557612184612203565b5b50919050565b60006121968261210d565b91507fffffffffffffffffffffffffffffffffffffffffffffffffffffffffffffffff8214156121c9576121c86121d4565b5b600182019050919050565b7f4e487b7100000000000000000000000000000000000000000000000000000000600052601160045260246000fd5b7f4e487b7100000000000000000000000000000000000000000000000000000000600052602260045260246000fd5b7f4e487b7100000000000000000000000000000000000000000000000000000000600052604160045260246000fd5b6000601f19601f8301169050919050565b61227b816120cf565b811461228657600080fd5b50565b6122928161210d565b811461229d57600080fd5b5056fea2646970667358221220c380d6c9bbfb70f5c8e96549449d26aa3bd87d67a0e0a05c4df8b24b027e7bb064736f6c63430008000033",
  "linkReferences": {},
  "deployedLinkReferences": {}
}