{
  "_format": "hh-sol-artifact-1",
  "contractName": "SemesterStore",
  "sourceName": "contracts/SemesterResult.sol",
  "abi": [
    {
      "anonymous": false,
      "inputs": [
        {
          "indexed": true,
          "internalType": "address",
          "name": "previousOwner",
          "type": "address"
        },
        {
          "indexed": true,
          "internalType": "address",
          "name": "newOwner",
          "type": "address"
        }
      ],
      "name": "OwnershipTransferred",
      "type": "event"
    },
    {
      "anonymous": false,
      "inputs": [
        {
          "indexed": false,
          "internalType": "string",
          "name": "operation",
          "type": "string"
        }
      ],
      "name": "SemesterOperation",
      "type": "event"
    },
    {
      "inputs": [
        {
          "internalType": "string",
          "name": "semesterType",
          "type": "string"
        },
        {
          "internalType": "uint256",
          "name": "year",
          "type": "uint256"
        },
        {
          "internalType": "string",
          "name": "url",
          "type": "string"
        }
      ],
      "name": "addSemester",
      "outputs": [
        {
          "internalType": "bool",
          "name": "",
          "type": "bool"
        }
      ],
      "stateMutability": "nonpayable",
      "type": "function"
    },
    {
      "inputs": [
        {
          "internalType": "uint256",
          "name": "from",
          "type": "uint256"
        },
        {
          "internalType": "uint256",
          "name": "to",
          "type": "uint256"
        }
      ],
      "name": "getAllSemestersWithPagination",
      "outputs": [
        {
          "components": [
            {
              "internalType": "string",
              "name": "semesterType",
              "type": "string"
            },
            {
              "internalType": "uint256",
              "name": "year",
              "type": "uint256"
            },
            {
              "internalType": "string",
              "name": "url",
              "type": "string"
            }
          ],
          "internalType": "struct SemesterStore.Semester[]",
          "name": "",
          "type": "tuple[]"
        }
      ],
      "stateMutability": "view",
      "type": "function"
    },
    {
      "inputs": [
        {
          "internalType": "string",
          "name": "id",
          "type": "string"
        }
      ],
      "name": "getSemester",
      "outputs": [
        {
          "internalType": "string",
          "name": "",
          "type": "string"
        }
      ],
      "stateMutability": "view",
      "type": "function"
    },
    {
      "inputs": [],
      "name": "owner",
      "outputs": [
        {
          "internalType": "address",
          "name": "",
          "type": "address"
        }
      ],
      "stateMutability": "view",
      "type": "function"
    },
    {
      "inputs": [
        {
          "internalType": "string",
          "name": "id",
          "type": "string"
        }
      ],
      "name": "removeSemester",
      "outputs": [
        {
          "internalType": "bool",
          "name": "",
          "type": "bool"
        }
      ],
      "stateMutability": "nonpayable",
      "type": "function"
    },
    {
      "inputs": [],
      "name": "renounceOwnership",
      "outputs": [],
      "stateMutability": "nonpayable",
      "type": "function"
    },
    {
      "inputs": [
        {
          "internalType": "address",
          "name": "newOwner",
          "type": "address"
        }
      ],
      "name": "transferOwnership",
      "outputs": [],
      "stateMutability": "nonpayable",
      "type": "function"
    },
    {
      "inputs": [
        {
          "internalType": "string",
          "name": "id",
          "type": "string"
        },
        {
          "internalType": "string",
          "name": "url",
          "type": "string"
        }
      ],
      "name": "updateSemester",
      "outputs": [
        {
          "internalType": "bool",
          "name": "",
          "type": "bool"
        }
      ],
      "stateMutability": "nonpayable",
      "type": "function"
    }
  ],
  "bytecode": "0x6080604052600060015534801561001557600080fd5b5061003261002761003760201b60201c565b61003f60201b60201c565b610103565b600033905090565b60008060009054906101000a900473ffffffffffffffffffffffffffffffffffffffff169050816000806101000a81548173ffffffffffffffffffffffffffffffffffffffff021916908373ffffffffffffffffffffffffffffffffffffffff1602179055508173ffffffffffffffffffffffffffffffffffffffff168173ffffffffffffffffffffffffffffffffffffffff167f8be0079c531659141344cd1fd0a4f28419497f9722a3daafe3b4186f6b6457e060405160405180910390a35050565b611ff3806101126000396000f3fe608060405234801561001057600080fd5b50600436106100885760003560e01c8063715018a61161005b578063715018a61461014d5780638da5cb5b14610157578063cf346e3d14610175578063f2fde38b146101a557610088565b8063234b10291461008d57806331556643146100bd57806344a4918d146100ed5780635b5c343d1461011d575b600080fd5b6100a760048036038101906100a29190611579565b6101c1565b6040516100b49190611b33565b60405180910390f35b6100d760048036038101906100d291906114cc565b610377565b6040516100e49190611b33565b60405180910390f35b6101076004803603810190610102919061150d565b610499565b6040516101149190611b33565b60405180910390f35b610137600480360381019061013291906114cc565b61058f565b6040516101449190611b4e565b60405180910390f35b610155610642565b005b61015f610656565b60405161016c9190611af6565b60405180910390f35b61018f600480360381019061018a91906115f8565b61067f565b60405161019c9190611b11565b60405180910390f35b6101bf60048036038101906101ba91906114a3565b610adf565b005b60006101cb610b63565b6101d58484610be1565b610214576040517f08c379a000000000000000000000000000000000000000000000000000000000815260040161020b90611c10565b60405180910390fd5b60006102208585610ce1565b905061022d858583610d1b565b1561026d576040517f08c379a000000000000000000000000000000000000000000000000000000000815260040161026490611bb0565b60405180910390fd5b80600360006001548152602001908152602001600020908051906020019061029692919061130d565b506040518060600160405280868152602001858152602001848152506002826040516102c29190611ab0565b908152602001604051809103902060008201518160000190805190602001906102ec92919061130d565b5060208201518160010155604082015181600201908051906020019061031392919061130d565b509050506001600081548092919061032a90611ea8565b91905055507fbf9e209486578dce952c592532e6bb250286cc3686fdcb00116f7b1c9e81dadf60405161035c90611c70565b60405180910390a161036d81610e16565b9150509392505050565b6000610381610b63565b60006002836040516103939190611ab0565b908152602001604051809103902060000180546103af90611e76565b9050116103f1576040517f08c379a00000000000000000000000000000000000000000000000000000000081526004016103e890611bf0565b60405180910390fd5b6002826040516104019190611ab0565b9081526020016040518091039020600080820160006104209190611393565b60018201600090556002820160006104389190611393565b5050600180600082825461044c9190611db8565b925050819055507fbf9e209486578dce952c592532e6bb250286cc3686fdcb00116f7b1c9e81dadf60405161048090611b70565b60405180910390a161049182610e16565b159050919050565b60006104a3610b63565b60006002846040516104b59190611ab0565b908152602001604051809103902060000180546104d190611e76565b905011610513576040517f08c379a000000000000000000000000000000000000000000000000000000000815260040161050a90611bf0565b60405180910390fd5b816002846040516105249190611ab0565b9081526020016040518091039020600201908051906020019061054892919061130d565b507fbf9e209486578dce952c592532e6bb250286cc3686fdcb00116f7b1c9e81dadf60405161057690611c50565b60405180910390a161058783610e16565b905092915050565b60606002826040516105a19190611ab0565b908152602001604051809103902060020180546105bd90611e76565b80601f01602080910402602001604051908101604052809291908181526020018280546105e990611e76565b80156106365780601f1061060b57610100808354040283529160200191610636565b820191906000526020600020905b81548152906001019060200180831161061957829003601f168201915b50505050509050919050565b61064a610b63565b6106546000610e60565b565b60008060009054906101000a900473ffffffffffffffffffffffffffffffffffffffff16905090565b6060610689610b63565b6106938383610f24565b6106d2576040517f08c379a00000000000000000000000000000000000000000000000000000000081526004016106c990611b90565b60405180910390fd5b6000600184846106e29190611db8565b6106ec9190611d62565b67ffffffffffffffff81111561072b577f4e487b7100000000000000000000000000000000000000000000000000000000600052604160045260246000fd5b60405190808252806020026020018201604052801561076457816020015b6107516113d3565b8152602001906001900390816107495790505b5090506000808590505b848111610ad357600060036000838152602001908152602001600020805461079590611e76565b80601f01602080910402602001604051908101604052809291908181526020018280546107c190611e76565b801561080e5780601f106107e35761010080835404028352916020019161080e565b820191906000526020600020905b8154815290600101906020018083116107f157829003601f168201915b5050505050905061082e8160405180602001604052806000815250610f51565b15801561085c575060006002826040516108489190611ab0565b908152602001604051809103902060010154115b15610abf576002816040516108719190611ab0565b9081526020016040518091039020600001805461088d90611e76565b80601f01602080910402602001604051908101604052809291908181526020018280546108b990611e76565b80156109065780601f106108db57610100808354040283529160200191610906565b820191906000526020600020905b8154815290600101906020018083116108e957829003601f168201915b5050505050848481518110610944577f4e487b7100000000000000000000000000000000000000000000000000000000600052603260045260246000fd5b6020026020010151600001819052506002816040516109639190611ab0565b9081526020016040518091039020600101548484815181106109ae577f4e487b7100000000000000000000000000000000000000000000000000000000600052603260045260246000fd5b602002602001015160200181815250506002816040516109ce9190611ab0565b908152602001604051809103902060020180546109ea90611e76565b80601f0160208091040260200160405190810160405280929190818152602001828054610a1690611e76565b8015610a635780601f10610a3857610100808354040283529160200191610a63565b820191906000526020600020905b815481529060010190602001808311610a4657829003601f168201915b5050505050848481518110610aa1577f4e487b7100000000000000000000000000000000000000000000000000000000600052603260045260246000fd5b6020026020010151604001819052508280610abb90611ea8565b9350505b508080610acb90611ea8565b91505061076e565b50819250505092915050565b610ae7610b63565b600073ffffffffffffffffffffffffffffffffffffffff168173ffffffffffffffffffffffffffffffffffffffff161415610b57576040517f08c379a0000000000000000000000000000000000000000000000000000000008152600401610b4e90611bd0565b60405180910390fd5b610b6081610e60565b50565b610b6b610faa565b73ffffffffffffffffffffffffffffffffffffffff16610b89610656565b73ffffffffffffffffffffffffffffffffffffffff1614610bdf576040517f08c379a0000000000000000000000000000000000000000000000000000000008152600401610bd690611c30565b60405180910390fd5b565b60006107de8210158015610bf757506108338211155b15610cd657610c3b836040518060400160405280600481526020017f46414c4c00000000000000000000000000000000000000000000000000000000815250610f51565b80610c815750610c80836040518060400160405280600681526020017f535052494e470000000000000000000000000000000000000000000000000000815250610f51565b5b80610cc75750610cc6836040518060400160405280600681526020017f53554d4d45520000000000000000000000000000000000000000000000000000815250610f51565b5b15610cd55760019050610cdb565b5b600090505b92915050565b60606000610cee83610fb2565b90508381604051602001610d03929190611ac7565b60405160208183030381529060405291505092915050565b6000610dd0600283604051610d309190611ab0565b90815260200160405180910390206000018054610d4c90611e76565b80601f0160208091040260200160405190810160405280929190818152602001828054610d7890611e76565b8015610dc55780601f10610d9a57610100808354040283529160200191610dc5565b820191906000526020600020905b815481529060010190602001808311610da857829003601f168201915b505050505085610f51565b8015610dfc575082600283604051610de89190611ab0565b908152602001604051809103902060010154145b15610e0a5760019050610e0f565b600090505b9392505050565b600080600283604051610e299190611ab0565b90815260200160405180910390206000018054610e4590611e76565b90501115610e565760019050610e5b565b600090505b919050565b60008060009054906101000a900473ffffffffffffffffffffffffffffffffffffffff169050816000806101000a81548173ffffffffffffffffffffffffffffffffffffffff021916908373ffffffffffffffffffffffffffffffffffffffff1602179055508173ffffffffffffffffffffffffffffffffffffffff168173ffffffffffffffffffffffffffffffffffffffff167f8be0079c531659141344cd1fd0a4f28419497f9722a3daafe3b4186f6b6457e060405160405180910390a35050565b6000808310158015610f3857506001548211155b15610f465760019050610f4b565b600090505b92915050565b600081604051602001610f649190611ab0565b6040516020818303038152906040528051906020012083604051602001610f8b9190611ab0565b6040516020818303038152906040528051906020012014905092915050565b600033905090565b606060006001610fc1846110d6565b01905060008167ffffffffffffffff811115611006577f4e487b7100000000000000000000000000000000000000000000000000000000600052604160045260246000fd5b6040519080825280601f01601f1916602001820160405280156110385781602001600182028036833780820191505090505b509050600082602001820190505b6001156110cb578080600190039150507f3031323334353637383961626364656600000000000000000000000000000000600a86061a8153600a85816110b5577f4e487b7100000000000000000000000000000000000000000000000000000000600052601260045260246000fd5b04945060008514156110c6576110cb565b611046565b819350505050919050565b600080600090507a184f03e93ff9f4daa797ed6e38ed64bf6a1f010000000000000000831061115a577a184f03e93ff9f4daa797ed6e38ed64bf6a1f0100000000000000008381611150577f4e487b7100000000000000000000000000000000000000000000000000000000600052601260045260246000fd5b0492506040810190505b6d04ee2d6d415b85acef810000000083106111bd576d04ee2d6d415b85acef810000000083816111b3577f4e487b7100000000000000000000000000000000000000000000000000000000600052601260045260246000fd5b0492506020810190505b662386f26fc10000831061121257662386f26fc100008381611208577f4e487b7100000000000000000000000000000000000000000000000000000000600052601260045260246000fd5b0492506010810190505b6305f5e1008310611261576305f5e1008381611257577f4e487b7100000000000000000000000000000000000000000000000000000000600052601260045260246000fd5b0492506008810190505b61271083106112ac5761271083816112a2577f4e487b7100000000000000000000000000000000000000000000000000000000600052601260045260246000fd5b0492506004810190505b606483106112f557606483816112eb577f4e487b7100000000000000000000000000000000000000000000000000000000600052601260045260246000fd5b0492506002810190505b600a8310611304576001810190505b80915050919050565b82805461131990611e76565b90600052602060002090601f01602090048101928261133b5760008555611382565b82601f1061135457805160ff1916838001178555611382565b82800160010185558215611382579182015b82811115611381578251825591602001919060010190611366565b5b50905061138f91906113f4565b5090565b50805461139f90611e76565b6000825580601f106113b157506113d0565b601f0160209004906000526020600020908101906113cf91906113f4565b5b50565b60405180606001604052806060815260200160008152602001606081525090565b5b8082111561140d5760008160009055506001016113f5565b5090565b600061142461141f84611cc1565b611c90565b90508281526020810184848401111561143c57600080fd5b611447848285611e34565b509392505050565b60008135905061145e81611f8f565b92915050565b600082601f83011261147557600080fd5b8135611485848260208601611411565b91505092915050565b60008135905061149d81611fa6565b92915050565b6000602082840312156114b557600080fd5b60006114c38482850161144f565b91505092915050565b6000602082840312156114de57600080fd5b600082013567ffffffffffffffff8111156114f857600080fd5b61150484828501611464565b91505092915050565b6000806040838503121561152057600080fd5b600083013567ffffffffffffffff81111561153a57600080fd5b61154685828601611464565b925050602083013567ffffffffffffffff81111561156357600080fd5b61156f85828601611464565b9150509250929050565b60008060006060848603121561158e57600080fd5b600084013567ffffffffffffffff8111156115a857600080fd5b6115b486828701611464565b93505060206115c58682870161148e565b925050604084013567ffffffffffffffff8111156115e257600080fd5b6115ee86828701611464565b9150509250925092565b6000806040838503121561160b57600080fd5b60006116198582860161148e565b925050602061162a8582860161148e565b9150509250929050565b60006116408383611a4a565b905092915050565b61165181611dec565b82525050565b600061166282611d01565b61166c8185611d24565b93508360208202850161167e85611cf1565b8060005b858110156116ba578484038952815161169b8582611634565b94506116a683611d17565b925060208a01995050600181019050611682565b50829750879550505050505092915050565b6116d581611dfe565b82525050565b60006116e682611d0c565b6116f08185611d35565b9350611700818560208601611e43565b61170981611f7e565b840191505092915050565b600061171f82611d0c565b6117298185611d46565b9350611739818560208601611e43565b61174281611f7e565b840191505092915050565b600061175882611d0c565b6117628185611d57565b9350611772818560208601611e43565b80840191505092915050565b600061178b601183611d46565b91507f53656d65737465722052656d6f766564210000000000000000000000000000006000830152602082019050919050565b60006117cb602583611d46565b91507f506167696e6174696f6e20636f6f7264696e617465732065786365656473206c60008301527f696d6974210000000000000000000000000000000000000000000000000000006020830152604082019050919050565b6000611831600a83611d46565b91507f49642065786973747321000000000000000000000000000000000000000000006000830152602082019050919050565b6000611871602683611d46565b91507f4f776e61626c653a206e6577206f776e657220697320746865207a65726f206160008301527f64647265737300000000000000000000000000000000000000000000000000006020830152604082019050919050565b60006118d7601783611d46565b91507f53656d657374657220646f6573206e6f742065786973740000000000000000006000830152602082019050919050565b6000611917600e83611d46565b91507f466f726d617420496e76616c69640000000000000000000000000000000000006000830152602082019050919050565b6000611957602083611d46565b91507f4f776e61626c653a2063616c6c6572206973206e6f7420746865206f776e65726000830152602082019050919050565b6000611997601183611d46565b91507f53656d65737465722055706461746564210000000000000000000000000000006000830152602082019050919050565b60006119d7600183611d57565b91507f5f000000000000000000000000000000000000000000000000000000000000006000830152600182019050919050565b6000611a17600f83611d46565b91507f53656d65737465722041646465642100000000000000000000000000000000006000830152602082019050919050565b60006060830160008301518482036000860152611a6782826116db565b9150506020830151611a7c6020860182611aa1565b5060408301518482036040860152611a9482826116db565b9150508091505092915050565b611aaa81611e2a565b82525050565b6000611abc828461174d565b915081905092915050565b6000611ad3828561174d565b9150611ade826119ca565b9150611aea828461174d565b91508190509392505050565b6000602082019050611b0b6000830184611648565b92915050565b60006020820190508181036000830152611b2b8184611657565b905092915050565b6000602082019050611b4860008301846116cc565b92915050565b60006020820190508181036000830152611b688184611714565b905092915050565b60006020820190508181036000830152611b898161177e565b9050919050565b60006020820190508181036000830152611ba9816117be565b9050919050565b60006020820190508181036000830152611bc981611824565b9050919050565b60006020820190508181036000830152611be981611864565b9050919050565b60006020820190508181036000830152611c09816118ca565b9050919050565b60006020820190508181036000830152611c298161190a565b9050919050565b60006020820190508181036000830152611c498161194a565b9050919050565b60006020820190508181036000830152611c698161198a565b9050919050565b60006020820190508181036000830152611c8981611a0a565b9050919050565b6000604051905081810181811067ffffffffffffffff82111715611cb757611cb6611f4f565b5b8060405250919050565b600067ffffffffffffffff821115611cdc57611cdb611f4f565b5b601f19601f8301169050602081019050919050565b6000819050602082019050919050565b600081519050919050565b600081519050919050565b6000602082019050919050565b600082825260208201905092915050565b600082825260208201905092915050565b600082825260208201905092915050565b600081905092915050565b6000611d6d82611e2a565b9150611d7883611e2a565b9250827fffffffffffffffffffffffffffffffffffffffffffffffffffffffffffffffff03821115611dad57611dac611ef1565b5b828201905092915050565b6000611dc382611e2a565b9150611dce83611e2a565b925082821015611de157611de0611ef1565b5b828203905092915050565b6000611df782611e0a565b9050919050565b60008115159050919050565b600073ffffffffffffffffffffffffffffffffffffffff82169050919050565b6000819050919050565b82818337600083830152505050565b60005b83811015611e61578082015181840152602081019050611e46565b83811115611e70576000848401525b50505050565b60006002820490506001821680611e8e57607f821691505b60208210811415611ea257611ea1611f20565b5b50919050565b6000611eb382611e2a565b91507fffffffffffffffffffffffffffffffffffffffffffffffffffffffffffffffff821415611ee657611ee5611ef1565b5b600182019050919050565b7f4e487b7100000000000000000000000000000000000000000000000000000000600052601160045260246000fd5b7f4e487b7100000000000000000000000000000000000000000000000000000000600052602260045260246000fd5b7f4e487b7100000000000000000000000000000000000000000000000000000000600052604160045260246000fd5b6000601f19601f8301169050919050565b611f9881611dec565b8114611fa357600080fd5b50565b611faf81611e2a565b8114611fba57600080fd5b5056fea2646970667358221220616d3ac06ea7b7ed9026418a6d41569adc154238fdbe645f1ce4956ad7df529764736f6c63430008000033",
  "linkReferences": {},
  "deployedLinkReferences": {}
}