{
  "_format": "hh-sol-artifact-1",
  "contractName": "SemesterStore",
  "sourceName": "contracts/SemesterResult.sol",
  "abi": [
    {
      "anonymous": false,
      "inputs": [
        {
          "indexed": true,
          "internalType": "address",
          "name": "previousOwner",
          "type": "address"
        },
        {
          "indexed": true,
          "internalType": "address",
          "name": "newOwner",
          "type": "address"
        }
      ],
      "name": "OwnershipTransferred",
      "type": "event"
    },
    {
      "anonymous": false,
      "inputs": [
        {
          "indexed": false,
          "internalType": "string",
          "name": "operation",
          "type": "string"
        }
      ],
      "name": "SemesterOperation",
      "type": "event"
    },
    {
      "inputs": [
        {
          "internalType": "string",
          "name": "semesterType",
          "type": "string"
        },
        {
          "internalType": "uint256",
          "name": "year",
          "type": "uint256"
        },
        {
          "internalType": "string",
          "name": "url",
          "type": "string"
        }
      ],
      "name": "addSemester",
      "outputs": [
        {
          "internalType": "bool",
          "name": "",
          "type": "bool"
        }
      ],
      "stateMutability": "nonpayable",
      "type": "function"
    },
    {
      "inputs": [],
      "name": "getAllSemesters",
      "outputs": [
        {
          "components": [
            {
              "internalType": "string",
              "name": "semesterType",
              "type": "string"
            },
            {
              "internalType": "uint256",
              "name": "year",
              "type": "uint256"
            },
            {
              "internalType": "string",
              "name": "url",
              "type": "string"
            }
          ],
          "internalType": "struct SemesterStore.Semester[]",
          "name": "",
          "type": "tuple[]"
        }
      ],
      "stateMutability": "view",
      "type": "function"
    },
    {
      "inputs": [
        {
          "internalType": "string",
          "name": "id",
          "type": "string"
        }
      ],
      "name": "getSemester",
      "outputs": [
        {
          "internalType": "string",
          "name": "",
          "type": "string"
        }
      ],
      "stateMutability": "view",
      "type": "function"
    },
    {
      "inputs": [],
      "name": "owner",
      "outputs": [
        {
          "internalType": "address",
          "name": "",
          "type": "address"
        }
      ],
      "stateMutability": "view",
      "type": "function"
    },
    {
      "inputs": [
        {
          "internalType": "string",
          "name": "id",
          "type": "string"
        }
      ],
      "name": "removeSemester",
      "outputs": [
        {
          "internalType": "bool",
          "name": "",
          "type": "bool"
        }
      ],
      "stateMutability": "nonpayable",
      "type": "function"
    },
    {
      "inputs": [],
      "name": "renounceOwnership",
      "outputs": [],
      "stateMutability": "nonpayable",
      "type": "function"
    },
    {
      "inputs": [
        {
          "internalType": "address",
          "name": "newOwner",
          "type": "address"
        }
      ],
      "name": "transferOwnership",
      "outputs": [],
      "stateMutability": "nonpayable",
      "type": "function"
    },
    {
      "inputs": [
        {
          "internalType": "string",
          "name": "id",
          "type": "string"
        },
        {
          "internalType": "string",
          "name": "url",
          "type": "string"
        }
      ],
      "name": "updateSemester",
      "outputs": [
        {
          "internalType": "bool",
          "name": "",
          "type": "bool"
        }
      ],
      "stateMutability": "nonpayable",
      "type": "function"
    }
  ],
  "bytecode": "0x6080604052600060015534801561001557600080fd5b5061003261002761003760201b60201c565b61003f60201b60201c565b610103565b600033905090565b60008060009054906101000a900473ffffffffffffffffffffffffffffffffffffffff169050816000806101000a81548173ffffffffffffffffffffffffffffffffffffffff021916908373ffffffffffffffffffffffffffffffffffffffff1602179055508173ffffffffffffffffffffffffffffffffffffffff168173ffffffffffffffffffffffffffffffffffffffff167f8be0079c531659141344cd1fd0a4f28419497f9722a3daafe3b4186f6b6457e060405160405180910390a35050565b611d9b806101126000396000f3fe608060405234801561001057600080fd5b50600436106100885760003560e01c8063715018a61161005b578063715018a61461014d5780638da5cb5b14610157578063d97b91a014610175578063f2fde38b1461019357610088565b8063234b10291461008d57806331556643146100bd57806344a4918d146100ed5780635b5c343d1461011d575b600080fd5b6100a760048036038101906100a29190611439565b6101af565b6040516100b49190611951565b60405180910390f35b6100d760048036038101906100d2919061138c565b610365565b6040516100e49190611951565b60405180910390f35b610107600480360381019061010291906113cd565b610417565b6040516101149190611951565b60405180910390f35b6101376004803603810190610132919061138c565b61050d565b604051610144919061196c565b60405180910390f35b6101556105c0565b005b61015f6105d4565b60405161016c9190611914565b60405180910390f35b61017d6105fd565b60405161018a919061192f565b60405180910390f35b6101ad60048036038101906101a89190611363565b6109cc565b005b60006101b9610a50565b6101c38484610ace565b610202576040517f08c379a00000000000000000000000000000000000000000000000000000000081526004016101f990611a0e565b60405180910390fd5b600061020e8585610bce565b905061021b858583610c08565b1561025b576040517f08c379a0000000000000000000000000000000000000000000000000000000008152600401610252906119ae565b60405180910390fd5b8060036000600154815260200190815260200160002090805190602001906102849291906111cd565b506040518060600160405280868152602001858152602001848152506002826040516102b091906118ce565b908152602001604051809103902060008201518160000190805190602001906102da9291906111cd565b506020820151816001015560408201518160020190805190602001906103019291906111cd565b509050506001600081548092919061031890611c50565b91905055507fbf9e209486578dce952c592532e6bb250286cc3686fdcb00116f7b1c9e81dadf60405161034a90611a6e565b60405180910390a161035b81610d03565b9150509392505050565b600061036f610a50565b60028260405161037f91906118ce565b90815260200160405180910390206000808201600061039e9190611253565b60018201600090556002820160006103b69190611253565b505060018060008282546103ca9190611b60565b925050819055507fbf9e209486578dce952c592532e6bb250286cc3686fdcb00116f7b1c9e81dadf6040516103fe9061198e565b60405180910390a161040f82610d03565b159050919050565b6000610421610a50565b600060028460405161043391906118ce565b9081526020016040518091039020600001805461044f90611c1e565b905011610491576040517f08c379a0000000000000000000000000000000000000000000000000000000008152600401610488906119ee565b60405180910390fd5b816002846040516104a291906118ce565b908152602001604051809103902060020190805190602001906104c69291906111cd565b507fbf9e209486578dce952c592532e6bb250286cc3686fdcb00116f7b1c9e81dadf6040516104f490611a4e565b60405180910390a161050583610d03565b905092915050565b606060028260405161051f91906118ce565b9081526020016040518091039020600201805461053b90611c1e565b80601f016020809104026020016040519081016040528092919081815260200182805461056790611c1e565b80156105b45780601f10610589576101008083540402835291602001916105b4565b820191906000526020600020905b81548152906001019060200180831161059757829003601f168201915b50505050509050919050565b6105c8610a50565b6105d26000610d4d565b565b60008060009054906101000a900473ffffffffffffffffffffffffffffffffffffffff16905090565b6060610607610a50565b600060015467ffffffffffffffff81111561064b577f4e487b7100000000000000000000000000000000000000000000000000000000600052604160045260246000fd5b60405190808252806020026020018201604052801561068457816020015b610671611293565b8152602001906001900390816106695790505b5090506000805b60015481116109c35760006003600083815260200190815260200160002080546106b490611c1e565b80601f01602080910402602001604051908101604052809291908181526020018280546106e090611c1e565b801561072d5780601f106107025761010080835404028352916020019161072d565b820191906000526020600020905b81548152906001019060200180831161071057829003601f168201915b5050505050905061074d8160405180602001604052806000815250610e11565b6109af5760028160405161076191906118ce565b9081526020016040518091039020600001805461077d90611c1e565b80601f01602080910402602001604051908101604052809291908181526020018280546107a990611c1e565b80156107f65780601f106107cb576101008083540402835291602001916107f6565b820191906000526020600020905b8154815290600101906020018083116107d957829003601f168201915b5050505050848481518110610834577f4e487b7100000000000000000000000000000000000000000000000000000000600052603260045260246000fd5b60200260200101516000018190525060028160405161085391906118ce565b90815260200160405180910390206001015484848151811061089e577f4e487b7100000000000000000000000000000000000000000000000000000000600052603260045260246000fd5b602002602001015160200181815250506002816040516108be91906118ce565b908152602001604051809103902060020180546108da90611c1e565b80601f016020809104026020016040519081016040528092919081815260200182805461090690611c1e565b80156109535780601f1061092857610100808354040283529160200191610953565b820191906000526020600020905b81548152906001019060200180831161093657829003601f168201915b5050505050848481518110610991577f4e487b7100000000000000000000000000000000000000000000000000000000600052603260045260246000fd5b60200260200101516040018190525082806109ab90611c50565b9350505b5080806109bb90611c50565b91505061068b565b50819250505090565b6109d4610a50565b600073ffffffffffffffffffffffffffffffffffffffff168173ffffffffffffffffffffffffffffffffffffffff161415610a44576040517f08c379a0000000000000000000000000000000000000000000000000000000008152600401610a3b906119ce565b60405180910390fd5b610a4d81610d4d565b50565b610a58610e6a565b73ffffffffffffffffffffffffffffffffffffffff16610a766105d4565b73ffffffffffffffffffffffffffffffffffffffff1614610acc576040517f08c379a0000000000000000000000000000000000000000000000000000000008152600401610ac390611a2e565b60405180910390fd5b565b60006107de8210158015610ae457506108338211155b15610bc357610b28836040518060400160405280600481526020017f46414c4c00000000000000000000000000000000000000000000000000000000815250610e11565b80610b6e5750610b6d836040518060400160405280600681526020017f535052494e470000000000000000000000000000000000000000000000000000815250610e11565b5b80610bb45750610bb3836040518060400160405280600681526020017f53554d4d45520000000000000000000000000000000000000000000000000000815250610e11565b5b15610bc25760019050610bc8565b5b600090505b92915050565b60606000610bdb83610e72565b90508381604051602001610bf09291906118e5565b60405160208183030381529060405291505092915050565b6000610cbd600283604051610c1d91906118ce565b90815260200160405180910390206000018054610c3990611c1e565b80601f0160208091040260200160405190810160405280929190818152602001828054610c6590611c1e565b8015610cb25780601f10610c8757610100808354040283529160200191610cb2565b820191906000526020600020905b815481529060010190602001808311610c9557829003601f168201915b505050505085610e11565b8015610ce9575082600283604051610cd591906118ce565b908152602001604051809103902060010154145b15610cf75760019050610cfc565b600090505b9392505050565b600080600283604051610d1691906118ce565b90815260200160405180910390206000018054610d3290611c1e565b90501115610d435760019050610d48565b600090505b919050565b60008060009054906101000a900473ffffffffffffffffffffffffffffffffffffffff169050816000806101000a81548173ffffffffffffffffffffffffffffffffffffffff021916908373ffffffffffffffffffffffffffffffffffffffff1602179055508173ffffffffffffffffffffffffffffffffffffffff168173ffffffffffffffffffffffffffffffffffffffff167f8be0079c531659141344cd1fd0a4f28419497f9722a3daafe3b4186f6b6457e060405160405180910390a35050565b600081604051602001610e2491906118ce565b6040516020818303038152906040528051906020012083604051602001610e4b91906118ce565b6040516020818303038152906040528051906020012014905092915050565b600033905090565b606060006001610e8184610f96565b01905060008167ffffffffffffffff811115610ec6577f4e487b7100000000000000000000000000000000000000000000000000000000600052604160045260246000fd5b6040519080825280601f01601f191660200182016040528015610ef85781602001600182028036833780820191505090505b509050600082602001820190505b600115610f8b578080600190039150507f3031323334353637383961626364656600000000000000000000000000000000600a86061a8153600a8581610f75577f4e487b7100000000000000000000000000000000000000000000000000000000600052601260045260246000fd5b0494506000851415610f8657610f8b565b610f06565b819350505050919050565b600080600090507a184f03e93ff9f4daa797ed6e38ed64bf6a1f010000000000000000831061101a577a184f03e93ff9f4daa797ed6e38ed64bf6a1f0100000000000000008381611010577f4e487b7100000000000000000000000000000000000000000000000000000000600052601260045260246000fd5b0492506040810190505b6d04ee2d6d415b85acef8100000000831061107d576d04ee2d6d415b85acef81000000008381611073577f4e487b7100000000000000000000000000000000000000000000000000000000600052601260045260246000fd5b0492506020810190505b662386f26fc1000083106110d257662386f26fc1000083816110c8577f4e487b7100000000000000000000000000000000000000000000000000000000600052601260045260246000fd5b0492506010810190505b6305f5e1008310611121576305f5e1008381611117577f4e487b7100000000000000000000000000000000000000000000000000000000600052601260045260246000fd5b0492506008810190505b612710831061116c576127108381611162577f4e487b7100000000000000000000000000000000000000000000000000000000600052601260045260246000fd5b0492506004810190505b606483106111b557606483816111ab577f4e487b7100000000000000000000000000000000000000000000000000000000600052601260045260246000fd5b0492506002810190505b600a83106111c4576001810190505b80915050919050565b8280546111d990611c1e565b90600052602060002090601f0160209004810192826111fb5760008555611242565b82601f1061121457805160ff1916838001178555611242565b82800160010185558215611242579182015b82811115611241578251825591602001919060010190611226565b5b50905061124f91906112b4565b5090565b50805461125f90611c1e565b6000825580601f106112715750611290565b601f01602090049060005260206000209081019061128f91906112b4565b5b50565b60405180606001604052806060815260200160008152602001606081525090565b5b808211156112cd5760008160009055506001016112b5565b5090565b60006112e46112df84611abf565b611a8e565b9050828152602081018484840111156112fc57600080fd5b611307848285611bdc565b509392505050565b60008135905061131e81611d37565b92915050565b600082601f83011261133557600080fd5b81356113458482602086016112d1565b91505092915050565b60008135905061135d81611d4e565b92915050565b60006020828403121561137557600080fd5b60006113838482850161130f565b91505092915050565b60006020828403121561139e57600080fd5b600082013567ffffffffffffffff8111156113b857600080fd5b6113c484828501611324565b91505092915050565b600080604083850312156113e057600080fd5b600083013567ffffffffffffffff8111156113fa57600080fd5b61140685828601611324565b925050602083013567ffffffffffffffff81111561142357600080fd5b61142f85828601611324565b9150509250929050565b60008060006060848603121561144e57600080fd5b600084013567ffffffffffffffff81111561146857600080fd5b61147486828701611324565b93505060206114858682870161134e565b925050604084013567ffffffffffffffff8111156114a257600080fd5b6114ae86828701611324565b9150509250925092565b60006114c48383611868565b905092915050565b6114d581611b94565b82525050565b60006114e682611aff565b6114f08185611b22565b93508360208202850161150285611aef565b8060005b8581101561153e578484038952815161151f85826114b8565b945061152a83611b15565b925060208a01995050600181019050611506565b50829750879550505050505092915050565b61155981611ba6565b82525050565b600061156a82611b0a565b6115748185611b33565b9350611584818560208601611beb565b61158d81611d26565b840191505092915050565b60006115a382611b0a565b6115ad8185611b44565b93506115bd818560208601611beb565b6115c681611d26565b840191505092915050565b60006115dc82611b0a565b6115e68185611b55565b93506115f6818560208601611beb565b80840191505092915050565b600061160f601183611b44565b91507f53656d65737465722052656d6f766564210000000000000000000000000000006000830152602082019050919050565b600061164f600a83611b44565b91507f49642065786973747321000000000000000000000000000000000000000000006000830152602082019050919050565b600061168f602683611b44565b91507f4f776e61626c653a206e6577206f776e657220697320746865207a65726f206160008301527f64647265737300000000000000000000000000000000000000000000000000006020830152604082019050919050565b60006116f5601783611b44565b91507f53656d657374657220646f6573206e6f742065786973740000000000000000006000830152602082019050919050565b6000611735600e83611b44565b91507f466f726d617420496e76616c69640000000000000000000000000000000000006000830152602082019050919050565b6000611775602083611b44565b91507f4f776e61626c653a2063616c6c6572206973206e6f7420746865206f776e65726000830152602082019050919050565b60006117b5601183611b44565b91507f53656d65737465722055706461746564210000000000000000000000000000006000830152602082019050919050565b60006117f5600183611b55565b91507f5f000000000000000000000000000000000000000000000000000000000000006000830152600182019050919050565b6000611835600f83611b44565b91507f53656d65737465722041646465642100000000000000000000000000000000006000830152602082019050919050565b60006060830160008301518482036000860152611885828261155f565b915050602083015161189a60208601826118bf565b50604083015184820360408601526118b2828261155f565b9150508091505092915050565b6118c881611bd2565b82525050565b60006118da82846115d1565b915081905092915050565b60006118f182856115d1565b91506118fc826117e8565b915061190882846115d1565b91508190509392505050565b600060208201905061192960008301846114cc565b92915050565b6000602082019050818103600083015261194981846114db565b905092915050565b60006020820190506119666000830184611550565b92915050565b600060208201905081810360008301526119868184611598565b905092915050565b600060208201905081810360008301526119a781611602565b9050919050565b600060208201905081810360008301526119c781611642565b9050919050565b600060208201905081810360008301526119e781611682565b9050919050565b60006020820190508181036000830152611a07816116e8565b9050919050565b60006020820190508181036000830152611a2781611728565b9050919050565b60006020820190508181036000830152611a4781611768565b9050919050565b60006020820190508181036000830152611a67816117a8565b9050919050565b60006020820190508181036000830152611a8781611828565b9050919050565b6000604051905081810181811067ffffffffffffffff82111715611ab557611ab4611cf7565b5b8060405250919050565b600067ffffffffffffffff821115611ada57611ad9611cf7565b5b601f19601f8301169050602081019050919050565b6000819050602082019050919050565b600081519050919050565b600081519050919050565b6000602082019050919050565b600082825260208201905092915050565b600082825260208201905092915050565b600082825260208201905092915050565b600081905092915050565b6000611b6b82611bd2565b9150611b7683611bd2565b925082821015611b8957611b88611c99565b5b828203905092915050565b6000611b9f82611bb2565b9050919050565b60008115159050919050565b600073ffffffffffffffffffffffffffffffffffffffff82169050919050565b6000819050919050565b82818337600083830152505050565b60005b83811015611c09578082015181840152602081019050611bee565b83811115611c18576000848401525b50505050565b60006002820490506001821680611c3657607f821691505b60208210811415611c4a57611c49611cc8565b5b50919050565b6000611c5b82611bd2565b91507fffffffffffffffffffffffffffffffffffffffffffffffffffffffffffffffff821415611c8e57611c8d611c99565b5b600182019050919050565b7f4e487b7100000000000000000000000000000000000000000000000000000000600052601160045260246000fd5b7f4e487b7100000000000000000000000000000000000000000000000000000000600052602260045260246000fd5b7f4e487b7100000000000000000000000000000000000000000000000000000000600052604160045260246000fd5b6000601f19601f8301169050919050565b611d4081611b94565b8114611d4b57600080fd5b50565b611d5781611bd2565b8114611d6257600080fd5b5056fea2646970667358221220f05d5ce45417b3d7df034a523006767140fefd75f55bacd5e6416fcc9cb586ac64736f6c63430008000033",
  "linkReferences": {},
  "deployedLinkReferences": {}
}