{
  "_format": "hh-sol-artifact-1",
  "contractName": "SemesterStore",
  "sourceName": "contracts/SemesterResult.sol",
  "abi": [
    {
      "anonymous": false,
      "inputs": [
        {
          "indexed": true,
          "internalType": "address",
          "name": "previousOwner",
          "type": "address"
        },
        {
          "indexed": true,
          "internalType": "address",
          "name": "newOwner",
          "type": "address"
        }
      ],
      "name": "OwnershipTransferred",
      "type": "event"
    },
    {
      "anonymous": false,
      "inputs": [
        {
          "indexed": false,
          "internalType": "string",
          "name": "operation",
          "type": "string"
        }
      ],
      "name": "SemesterOperation",
      "type": "event"
    },
    {
      "inputs": [
        {
          "internalType": "string",
          "name": "semesterType",
          "type": "string"
        },
        {
          "internalType": "uint256",
          "name": "year",
          "type": "uint256"
        },
        {
          "internalType": "string",
          "name": "url",
          "type": "string"
        }
      ],
      "name": "addSemester",
      "outputs": [
        {
          "internalType": "bool",
          "name": "",
          "type": "bool"
        }
      ],
      "stateMutability": "nonpayable",
      "type": "function"
    },
    {
      "inputs": [
        {
          "internalType": "uint256",
          "name": "from",
          "type": "uint256"
        },
        {
          "internalType": "uint256",
          "name": "to",
          "type": "uint256"
        }
      ],
      "name": "getAllSemestersWithPagination",
      "outputs": [
        {
          "components": [
            {
              "internalType": "string",
              "name": "semesterType",
              "type": "string"
            },
            {
              "internalType": "uint256",
              "name": "year",
              "type": "uint256"
            },
            {
              "internalType": "string",
              "name": "url",
              "type": "string"
            }
          ],
          "internalType": "struct SemesterStore.Semester[]",
          "name": "",
          "type": "tuple[]"
        }
      ],
      "stateMutability": "view",
      "type": "function"
    },
    {
      "inputs": [
        {
          "internalType": "string",
          "name": "id",
          "type": "string"
        }
      ],
      "name": "getSemester",
      "outputs": [
        {
          "internalType": "string",
          "name": "",
          "type": "string"
        }
      ],
      "stateMutability": "view",
      "type": "function"
    },
    {
      "inputs": [],
      "name": "getSemesterCount",
      "outputs": [
        {
          "internalType": "uint256",
          "name": "",
          "type": "uint256"
        }
      ],
      "stateMutability": "view",
      "type": "function"
    },
    {
      "inputs": [],
      "name": "owner",
      "outputs": [
        {
          "internalType": "address",
          "name": "",
          "type": "address"
        }
      ],
      "stateMutability": "view",
      "type": "function"
    },
    {
      "inputs": [
        {
          "internalType": "string",
          "name": "id",
          "type": "string"
        }
      ],
      "name": "removeSemester",
      "outputs": [
        {
          "internalType": "bool",
          "name": "",
          "type": "bool"
        }
      ],
      "stateMutability": "nonpayable",
      "type": "function"
    },
    {
      "inputs": [],
      "name": "renounceOwnership",
      "outputs": [],
      "stateMutability": "nonpayable",
      "type": "function"
    },
    {
      "inputs": [
        {
          "internalType": "address",
          "name": "newOwner",
          "type": "address"
        }
      ],
      "name": "transferOwnership",
      "outputs": [],
      "stateMutability": "nonpayable",
      "type": "function"
    },
    {
      "inputs": [
        {
          "internalType": "string",
          "name": "id",
          "type": "string"
        },
        {
          "internalType": "string",
          "name": "url",
          "type": "string"
        }
      ],
      "name": "updateSemester",
      "outputs": [
        {
          "internalType": "bool",
          "name": "",
          "type": "bool"
        }
      ],
      "stateMutability": "nonpayable",
      "type": "function"
    }
  ],
  "bytecode": "0x6080604052600060015534801561001557600080fd5b5061003261002761003760201b60201c565b61003f60201b60201c565b610103565b600033905090565b60008060009054906101000a900473ffffffffffffffffffffffffffffffffffffffff169050816000806101000a81548173ffffffffffffffffffffffffffffffffffffffff021916908373ffffffffffffffffffffffffffffffffffffffff1602179055508173ffffffffffffffffffffffffffffffffffffffff168173ffffffffffffffffffffffffffffffffffffffff167f8be0079c531659141344cd1fd0a4f28419497f9722a3daafe3b4186f6b6457e060405160405180910390a35050565b6122d580620001136000396000f3fe608060405234801561001057600080fd5b50600436106100935760003560e01c8063715018a611610066578063715018a6146101585780638da5cb5b14610162578063c0a7efb014610180578063cf346e3d1461019e578063f2fde38b146101ce57610093565b8063234b10291461009857806331556643146100c857806344a4918d146100f85780635b5c343d14610128575b600080fd5b6100b260048036038101906100ad91906117ab565b6101ea565b6040516100bf9190611dda565b60405180910390f35b6100e260048036038101906100dd91906116fe565b6103a0565b6040516100ef9190611dda565b60405180910390f35b610112600480360381019061010d919061173f565b61051b565b60405161011f9190611dda565b60405180910390f35b610142600480360381019061013d91906116fe565b610611565b60405161014f9190611df5565b60405180910390f35b6101606106c4565b005b61016a6106d8565b6040516101779190611d9d565b60405180910390f35b610188610701565b6040516101959190611f57565b60405180910390f35b6101b860048036038101906101b3919061182a565b61070b565b6040516101c59190611db8565b60405180910390f35b6101e860048036038101906101e391906116d5565b610b6b565b005b60006101f4610bef565b6101fe8484610c6d565b61023d576040517f08c379a000000000000000000000000000000000000000000000000000000000815260040161023490611eb7565b60405180910390fd5b60006102498585610d6d565b9050610256858583610da7565b15610296576040517f08c379a000000000000000000000000000000000000000000000000000000000815260040161028d90611e57565b60405180910390fd5b8060036000600154815260200190815260200160002090805190602001906102bf9291906114b2565b506040518060600160405280868152602001858152602001848152506002826040516102eb9190611d57565b908152602001604051809103902060008201518160000190805190602001906103159291906114b2565b5060208201518160010155604082015181600201908051906020019061033c9291906114b2565b50905050600160008154809291906103539061218a565b91905055507fbf9e209486578dce952c592532e6bb250286cc3686fdcb00116f7b1c9e81dadf60405161038590611f37565b60405180910390a161039681610ea2565b9150509392505050565b60006103aa610bef565b60006002836040516103bc9190611d57565b908152602001604051809103902060000180546103d890612158565b90501161041a576040517f08c379a000000000000000000000000000000000000000000000000000000000815260040161041190611e97565b60405180910390fd5b60028260405161042a9190611d57565b9081526020016040518091039020600080820160006104499190611538565b60018201600090556002820160006104619190611538565b5050600061046e83610eec565b90506003600060018054610482919061209a565b8152602001908152602001600020600360008381526020019081526020016000209080546104af90612158565b6104ba929190611578565b5060018060008282546104cd919061209a565b925050819055507fbf9e209486578dce952c592532e6bb250286cc3686fdcb00116f7b1c9e81dadf60405161050190611e17565b60405180910390a161051283610ea2565b15915050919050565b6000610525610bef565b60006002846040516105379190611d57565b9081526020016040518091039020600001805461055390612158565b905011610595576040517f08c379a000000000000000000000000000000000000000000000000000000000815260040161058c90611e97565b60405180910390fd5b816002846040516105a69190611d57565b908152602001604051809103902060020190805190602001906105ca9291906114b2565b507fbf9e209486578dce952c592532e6bb250286cc3686fdcb00116f7b1c9e81dadf6040516105f890611f17565b60405180910390a161060983610ea2565b905092915050565b60606002826040516106239190611d57565b9081526020016040518091039020600201805461063f90612158565b80601f016020809104026020016040519081016040528092919081815260200182805461066b90612158565b80156106b85780601f1061068d576101008083540402835291602001916106b8565b820191906000526020600020905b81548152906001019060200180831161069b57829003601f168201915b50505050509050919050565b6106cc610bef565b6106d66000611005565b565b60008060009054906101000a900473ffffffffffffffffffffffffffffffffffffffff16905090565b6000600154905090565b6060610715610bef565b61071f83836110c9565b61075e576040517f08c379a000000000000000000000000000000000000000000000000000000000815260040161075590611e37565b60405180910390fd5b60006001848461076e919061209a565b6107789190612044565b67ffffffffffffffff8111156107b7577f4e487b7100000000000000000000000000000000000000000000000000000000600052604160045260246000fd5b6040519080825280602002602001820160405280156107f057816020015b6107dd611605565b8152602001906001900390816107d55790505b5090506000808590505b848111610b5f57600060036000838152602001908152602001600020805461082190612158565b80601f016020809104026020016040519081016040528092919081815260200182805461084d90612158565b801561089a5780601f1061086f5761010080835404028352916020019161089a565b820191906000526020600020905b81548152906001019060200180831161087d57829003601f168201915b505050505090506108ba81604051806020016040528060008152506110f6565b1580156108e8575060006002826040516108d49190611d57565b908152602001604051809103902060010154115b15610b4b576002816040516108fd9190611d57565b9081526020016040518091039020600001805461091990612158565b80601f016020809104026020016040519081016040528092919081815260200182805461094590612158565b80156109925780601f1061096757610100808354040283529160200191610992565b820191906000526020600020905b81548152906001019060200180831161097557829003601f168201915b50505050508484815181106109d0577f4e487b7100000000000000000000000000000000000000000000000000000000600052603260045260246000fd5b6020026020010151600001819052506002816040516109ef9190611d57565b908152602001604051809103902060010154848481518110610a3a577f4e487b7100000000000000000000000000000000000000000000000000000000600052603260045260246000fd5b60200260200101516020018181525050600281604051610a5a9190611d57565b90815260200160405180910390206002018054610a7690612158565b80601f0160208091040260200160405190810160405280929190818152602001828054610aa290612158565b8015610aef5780601f10610ac457610100808354040283529160200191610aef565b820191906000526020600020905b815481529060010190602001808311610ad257829003601f168201915b5050505050848481518110610b2d577f4e487b7100000000000000000000000000000000000000000000000000000000600052603260045260246000fd5b6020026020010151604001819052508280610b479061218a565b9350505b508080610b579061218a565b9150506107fa565b50819250505092915050565b610b73610bef565b600073ffffffffffffffffffffffffffffffffffffffff168173ffffffffffffffffffffffffffffffffffffffff161415610be3576040517f08c379a0000000000000000000000000000000000000000000000000000000008152600401610bda90611e77565b60405180910390fd5b610bec81611005565b50565b610bf761114f565b73ffffffffffffffffffffffffffffffffffffffff16610c156106d8565b73ffffffffffffffffffffffffffffffffffffffff1614610c6b576040517f08c379a0000000000000000000000000000000000000000000000000000000008152600401610c6290611ed7565b60405180910390fd5b565b60006107de8210158015610c8357506108338211155b15610d6257610cc7836040518060400160405280600481526020017f46414c4c000000000000000000000000000000000000000000000000000000008152506110f6565b80610d0d5750610d0c836040518060400160405280600681526020017f535052494e4700000000000000000000000000000000000000000000000000008152506110f6565b5b80610d535750610d52836040518060400160405280600681526020017f53554d4d455200000000000000000000000000000000000000000000000000008152506110f6565b5b15610d615760019050610d67565b5b600090505b92915050565b60606000610d7a83611157565b90508381604051602001610d8f929190611d6e565b60405160208183030381529060405291505092915050565b6000610e5c600283604051610dbc9190611d57565b90815260200160405180910390206000018054610dd890612158565b80601f0160208091040260200160405190810160405280929190818152602001828054610e0490612158565b8015610e515780601f10610e2657610100808354040283529160200191610e51565b820191906000526020600020905b815481529060010190602001808311610e3457829003601f168201915b5050505050856110f6565b8015610e88575082600283604051610e749190611d57565b908152602001604051809103902060010154145b15610e965760019050610e9b565b600090505b9392505050565b600080600283604051610eb59190611d57565b90815260200160405180910390206000018054610ed190612158565b90501115610ee25760019050610ee7565b600090505b919050565b600080600090505b600154811015610fc457610fa3600360008381526020019081526020016000208054610f1f90612158565b80601f0160208091040260200160405190810160405280929190818152602001828054610f4b90612158565b8015610f985780601f10610f6d57610100808354040283529160200191610f98565b820191906000526020600020905b815481529060010190602001808311610f7b57829003601f168201915b5050505050846110f6565b15610fb15780915050611000565b8080610fbc9061218a565b915050610ef4565b506040517f08c379a0000000000000000000000000000000000000000000000000000000008152600401610ff790611ef7565b60405180910390fd5b919050565b60008060009054906101000a900473ffffffffffffffffffffffffffffffffffffffff169050816000806101000a81548173ffffffffffffffffffffffffffffffffffffffff021916908373ffffffffffffffffffffffffffffffffffffffff1602179055508173ffffffffffffffffffffffffffffffffffffffff168173ffffffffffffffffffffffffffffffffffffffff167f8be0079c531659141344cd1fd0a4f28419497f9722a3daafe3b4186f6b6457e060405160405180910390a35050565b60008083101580156110dd57506001548211155b156110eb57600190506110f0565b600090505b92915050565b6000816040516020016111099190611d57565b60405160208183030381529060405280519060200120836040516020016111309190611d57565b6040516020818303038152906040528051906020012014905092915050565b600033905090565b6060600060016111668461127b565b01905060008167ffffffffffffffff8111156111ab577f4e487b7100000000000000000000000000000000000000000000000000000000600052604160045260246000fd5b6040519080825280601f01601f1916602001820160405280156111dd5781602001600182028036833780820191505090505b509050600082602001820190505b600115611270578080600190039150507f3031323334353637383961626364656600000000000000000000000000000000600a86061a8153600a858161125a577f4e487b7100000000000000000000000000000000000000000000000000000000600052601260045260246000fd5b049450600085141561126b57611270565b6111eb565b819350505050919050565b600080600090507a184f03e93ff9f4daa797ed6e38ed64bf6a1f01000000000000000083106112ff577a184f03e93ff9f4daa797ed6e38ed64bf6a1f01000000000000000083816112f5577f4e487b7100000000000000000000000000000000000000000000000000000000600052601260045260246000fd5b0492506040810190505b6d04ee2d6d415b85acef81000000008310611362576d04ee2d6d415b85acef81000000008381611358577f4e487b7100000000000000000000000000000000000000000000000000000000600052601260045260246000fd5b0492506020810190505b662386f26fc1000083106113b757662386f26fc1000083816113ad577f4e487b7100000000000000000000000000000000000000000000000000000000600052601260045260246000fd5b0492506010810190505b6305f5e1008310611406576305f5e10083816113fc577f4e487b7100000000000000000000000000000000000000000000000000000000600052601260045260246000fd5b0492506008810190505b6127108310611451576127108381611447577f4e487b7100000000000000000000000000000000000000000000000000000000600052601260045260246000fd5b0492506004810190505b6064831061149a5760648381611490577f4e487b7100000000000000000000000000000000000000000000000000000000600052601260045260246000fd5b0492506002810190505b600a83106114a9576001810190505b80915050919050565b8280546114be90612158565b90600052602060002090601f0160209004810192826114e05760008555611527565b82601f106114f957805160ff1916838001178555611527565b82800160010185558215611527579182015b8281111561152657825182559160200191906001019061150b565b5b5090506115349190611626565b5090565b50805461154490612158565b6000825580601f106115565750611575565b601f0160209004906000526020600020908101906115749190611626565b5b50565b82805461158490612158565b90600052602060002090601f0160209004810192826115a657600085556115f4565b82601f106115b757805485556115f4565b828001600101855582156115f457600052602060002091601f016020900482015b828111156115f35782548255916001019190600101906115d8565b5b5090506116019190611626565b5090565b60405180606001604052806060815260200160008152602001606081525090565b5b8082111561163f576000816000905550600101611627565b5090565b600061165661165184611fa3565b611f72565b90508281526020810184848401111561166e57600080fd5b611679848285612116565b509392505050565b60008135905061169081612271565b92915050565b600082601f8301126116a757600080fd5b81356116b7848260208601611643565b91505092915050565b6000813590506116cf81612288565b92915050565b6000602082840312156116e757600080fd5b60006116f584828501611681565b91505092915050565b60006020828403121561171057600080fd5b600082013567ffffffffffffffff81111561172a57600080fd5b61173684828501611696565b91505092915050565b6000806040838503121561175257600080fd5b600083013567ffffffffffffffff81111561176c57600080fd5b61177885828601611696565b925050602083013567ffffffffffffffff81111561179557600080fd5b6117a185828601611696565b9150509250929050565b6000806000606084860312156117c057600080fd5b600084013567ffffffffffffffff8111156117da57600080fd5b6117e686828701611696565b93505060206117f7868287016116c0565b925050604084013567ffffffffffffffff81111561181457600080fd5b61182086828701611696565b9150509250925092565b6000806040838503121561183d57600080fd5b600061184b858286016116c0565b925050602061185c858286016116c0565b9150509250929050565b60006118728383611ce2565b905092915050565b611883816120ce565b82525050565b600061189482611fe3565b61189e8185612006565b9350836020820285016118b085611fd3565b8060005b858110156118ec57848403895281516118cd8582611866565b94506118d883611ff9565b925060208a019950506001810190506118b4565b50829750879550505050505092915050565b611907816120e0565b82525050565b600061191882611fee565b6119228185612017565b9350611932818560208601612125565b61193b81612260565b840191505092915050565b600061195182611fee565b61195b8185612028565b935061196b818560208601612125565b61197481612260565b840191505092915050565b600061198a82611fee565b6119948185612039565b93506119a4818560208601612125565b80840191505092915050565b60006119bd601183612028565b91507f53656d65737465722052656d6f766564210000000000000000000000000000006000830152602082019050919050565b60006119fd602583612028565b91507f506167696e6174696f6e20636f6f7264696e617465732065786365656473206c60008301527f696d6974210000000000000000000000000000000000000000000000000000006020830152604082019050919050565b6000611a63600a83612028565b91507f49642065786973747321000000000000000000000000000000000000000000006000830152602082019050919050565b6000611aa3602683612028565b91507f4f776e61626c653a206e6577206f776e657220697320746865207a65726f206160008301527f64647265737300000000000000000000000000000000000000000000000000006020830152604082019050919050565b6000611b09601783612028565b91507f53656d657374657220646f6573206e6f742065786973740000000000000000006000830152602082019050919050565b6000611b49600e83612028565b91507f466f726d617420496e76616c69640000000000000000000000000000000000006000830152602082019050919050565b6000611b89602083612028565b91507f4f776e61626c653a2063616c6c6572206973206e6f7420746865206f776e65726000830152602082019050919050565b6000611bc9602183612028565b91507f53656d6573746572206e6f7420666f756e6420696e2073656d6573746572496460008301527f73000000000000000000000000000000000000000000000000000000000000006020830152604082019050919050565b6000611c2f601183612028565b91507f53656d65737465722055706461746564210000000000000000000000000000006000830152602082019050919050565b6000611c6f600183612039565b91507f5f000000000000000000000000000000000000000000000000000000000000006000830152600182019050919050565b6000611caf600f83612028565b91507f53656d65737465722041646465642100000000000000000000000000000000006000830152602082019050919050565b60006060830160008301518482036000860152611cff828261190d565b9150506020830151611d146020860182611d39565b5060408301518482036040860152611d2c828261190d565b9150508091505092915050565b611d428161210c565b82525050565b611d518161210c565b82525050565b6000611d63828461197f565b915081905092915050565b6000611d7a828561197f565b9150611d8582611c62565b9150611d91828461197f565b91508190509392505050565b6000602082019050611db2600083018461187a565b92915050565b60006020820190508181036000830152611dd28184611889565b905092915050565b6000602082019050611def60008301846118fe565b92915050565b60006020820190508181036000830152611e0f8184611946565b905092915050565b60006020820190508181036000830152611e30816119b0565b9050919050565b60006020820190508181036000830152611e50816119f0565b9050919050565b60006020820190508181036000830152611e7081611a56565b9050919050565b60006020820190508181036000830152611e9081611a96565b9050919050565b60006020820190508181036000830152611eb081611afc565b9050919050565b60006020820190508181036000830152611ed081611b3c565b9050919050565b60006020820190508181036000830152611ef081611b7c565b9050919050565b60006020820190508181036000830152611f1081611bbc565b9050919050565b60006020820190508181036000830152611f3081611c22565b9050919050565b60006020820190508181036000830152611f5081611ca2565b9050919050565b6000602082019050611f6c6000830184611d48565b92915050565b6000604051905081810181811067ffffffffffffffff82111715611f9957611f98612231565b5b8060405250919050565b600067ffffffffffffffff821115611fbe57611fbd612231565b5b601f19601f8301169050602081019050919050565b6000819050602082019050919050565b600081519050919050565b600081519050919050565b6000602082019050919050565b600082825260208201905092915050565b600082825260208201905092915050565b600082825260208201905092915050565b600081905092915050565b600061204f8261210c565b915061205a8361210c565b9250827fffffffffffffffffffffffffffffffffffffffffffffffffffffffffffffffff0382111561208f5761208e6121d3565b5b828201905092915050565b60006120a58261210c565b91506120b08361210c565b9250828210156120c3576120c26121d3565b5b828203905092915050565b60006120d9826120ec565b9050919050565b60008115159050919050565b600073ffffffffffffffffffffffffffffffffffffffff82169050919050565b6000819050919050565b82818337600083830152505050565b60005b83811015612143578082015181840152602081019050612128565b83811115612152576000848401525b50505050565b6000600282049050600182168061217057607f821691505b6020821081141561218457612183612202565b5b50919050565b60006121958261210c565b91507fffffffffffffffffffffffffffffffffffffffffffffffffffffffffffffffff8214156121c8576121c76121d3565b5b600182019050919050565b7f4e487b7100000000000000000000000000000000000000000000000000000000600052601160045260246000fd5b7f4e487b7100000000000000000000000000000000000000000000000000000000600052602260045260246000fd5b7f4e487b7100000000000000000000000000000000000000000000000000000000600052604160045260246000fd5b6000601f19601f8301169050919050565b61227a816120ce565b811461228557600080fd5b50565b6122918161210c565b811461229c57600080fd5b5056fea2646970667358221220a08169e922dc56ea3923f428cc14dfba19eb67d09ecd34fc6049769c7fef2bed64736f6c63430008000033",
  "linkReferences": {},
  "deployedLinkReferences": {}
}