{
  "_format": "hh-sol-artifact-1",
  "contractName": "SemesterStore",
  "sourceName": "contracts/SemesterResult.sol",
  "abi": [
    {
      "anonymous": false,
      "inputs": [
        {
          "indexed": true,
          "internalType": "address",
          "name": "previousOwner",
          "type": "address"
        },
        {
          "indexed": true,
          "internalType": "address",
          "name": "newOwner",
          "type": "address"
        }
      ],
      "name": "OwnershipTransferred",
      "type": "event"
    },
    {
      "anonymous": false,
      "inputs": [
        {
          "indexed": false,
          "internalType": "string",
          "name": "operation",
          "type": "string"
        }
      ],
      "name": "SemesterOperation",
      "type": "event"
    },
    {
      "inputs": [
        {
          "internalType": "string",
          "name": "semesterType",
          "type": "string"
        },
        {
          "internalType": "uint256",
          "name": "year",
          "type": "uint256"
        },
        {
          "internalType": "string",
          "name": "url",
          "type": "string"
        }
      ],
      "name": "addSemester",
      "outputs": [],
      "stateMutability": "nonpayable",
      "type": "function"
    },
    {
      "inputs": [
        {
          "internalType": "string",
          "name": "id",
          "type": "string"
        }
      ],
      "name": "getSemester",
      "outputs": [
        {
          "internalType": "string",
          "name": "",
          "type": "string"
        }
      ],
      "stateMutability": "view",
      "type": "function"
    },
    {
      "inputs": [],
      "name": "owner",
      "outputs": [
        {
          "internalType": "address",
          "name": "",
          "type": "address"
        }
      ],
      "stateMutability": "view",
      "type": "function"
    },
    {
      "inputs": [
        {
          "internalType": "string",
          "name": "id",
          "type": "string"
        }
      ],
      "name": "removeSemester",
      "outputs": [],
      "stateMutability": "nonpayable",
      "type": "function"
    },
    {
      "inputs": [],
      "name": "renounceOwnership",
      "outputs": [],
      "stateMutability": "nonpayable",
      "type": "function"
    },
    {
      "inputs": [
        {
          "internalType": "address",
          "name": "newOwner",
          "type": "address"
        }
      ],
      "name": "transferOwnership",
      "outputs": [],
      "stateMutability": "nonpayable",
      "type": "function"
    },
    {
      "inputs": [
        {
          "internalType": "string",
          "name": "semesterType",
          "type": "string"
        },
        {
          "internalType": "uint256",
          "name": "year",
          "type": "uint256"
        },
        {
          "internalType": "string",
          "name": "url",
          "type": "string"
        }
      ],
      "name": "updateSemester",
      "outputs": [],
      "stateMutability": "nonpayable",
      "type": "function"
    }
  ],
  "bytecode": "0x60806040526040518060400160405280601281526020017f46414c4c20535052494e472053554d4d45520000000000000000000000000000815250600190805190602001906200005192919062000152565b503480156200005f57600080fd5b5062000080620000746200008660201b60201c565b6200008e60201b60201c565b62000267565b600033905090565b60008060009054906101000a900473ffffffffffffffffffffffffffffffffffffffff169050816000806101000a81548173ffffffffffffffffffffffffffffffffffffffff021916908373ffffffffffffffffffffffffffffffffffffffff1602179055508173ffffffffffffffffffffffffffffffffffffffff168173ffffffffffffffffffffffffffffffffffffffff167f8be0079c531659141344cd1fd0a4f28419497f9722a3daafe3b4186f6b6457e060405160405180910390a35050565b828054620001609062000202565b90600052602060002090601f016020900481019282620001845760008555620001d0565b82601f106200019f57805160ff1916838001178555620001d0565b82800160010185558215620001d0579182015b82811115620001cf578251825591602001919060010190620001b2565b5b509050620001df9190620001e3565b5090565b5b80821115620001fe576000816000905550600101620001e4565b5090565b600060028204905060018216806200021b57607f821691505b6020821081141562000232576200023162000238565b5b50919050565b7f4e487b7100000000000000000000000000000000000000000000000000000000600052602260045260246000fd5b61156380620002776000396000f3fe608060405234801561001057600080fd5b506004361061007d5760003560e01c8063715018a61161005b578063715018a6146100ea5780638da5cb5b146100f4578063d4feee7d14610112578063f2fde38b1461012e5761007d565b8063234b102914610082578063315566431461009e5780635b5c343d146100ba575b600080fd5b61009c60048036038101906100979190610ed7565b61014a565b005b6100b860048036038101906100b39190610e96565b610264565b005b6100d460048036038101906100cf9190610e96565b6102ed565b6040516100e19190611256565b60405180910390f35b6100f26103a0565b005b6100fc6103b4565b604051610109919061123b565b60405180910390f35b61012c60048036038101906101279190610ed7565b6103dd565b005b61014860048036038101906101439190610e6d565b610541565b005b6101526105c5565b61015c8383610643565b61019b576040517f08c379a0000000000000000000000000000000000000000000000000000000008152600401610192906112b8565b60405180910390fd5b60006101a78484610743565b90506040518060600160405280858152602001848152602001838152506002826040516101d491906111f5565b908152602001604051809103902060008201518160000190805190602001906101fe929190610cf8565b50602082015181600101556040820151816002019080519060200190610225929190610cf8565b509050507fbf9e209486578dce952c592532e6bb250286cc3686fdcb00116f7b1c9e81dadf60405161025690611338565b60405180910390a150505050565b61026c6105c5565b60028160405161027c91906111f5565b90815260200160405180910390206000808201600061029b9190610d7e565b60018201600090556002820160006102b39190610d7e565b50507fbf9e209486578dce952c592532e6bb250286cc3686fdcb00116f7b1c9e81dadf6040516102e290611278565b60405180910390a150565b60606002826040516102ff91906111f5565b9081526020016040518091039020600201805461031b9061145e565b80601f01602080910402602001604051908101604052809291908181526020018280546103479061145e565b80156103945780601f1061036957610100808354040283529160200191610394565b820191906000526020600020905b81548152906001019060200180831161037757829003601f168201915b50505050509050919050565b6103a86105c5565b6103b2600061077d565b565b60008060009054906101000a900473ffffffffffffffffffffffffffffffffffffffff16905090565b6103e56105c5565b6103ef8383610643565b61042e576040517f08c379a0000000000000000000000000000000000000000000000000000000008152600401610425906112b8565b60405180910390fd5b600061043a8484610743565b9050610447848483610841565b610486576040517f08c379a000000000000000000000000000000000000000000000000000000000815260040161047d90611318565b60405180910390fd5b6040518060600160405280858152602001848152602001838152506002826040516104b191906111f5565b908152602001604051809103902060008201518160000190805190602001906104db929190610cf8565b50602082015181600101556040820151816002019080519060200190610502929190610cf8565b509050507fbf9e209486578dce952c592532e6bb250286cc3686fdcb00116f7b1c9e81dadf604051610533906112f8565b60405180910390a150505050565b6105496105c5565b600073ffffffffffffffffffffffffffffffffffffffff168173ffffffffffffffffffffffffffffffffffffffff1614156105b9576040517f08c379a00000000000000000000000000000000000000000000000000000000081526004016105b090611298565b60405180910390fd5b6105c28161077d565b50565b6105cd61093c565b73ffffffffffffffffffffffffffffffffffffffff166105eb6103b4565b73ffffffffffffffffffffffffffffffffffffffff1614610641576040517f08c379a0000000000000000000000000000000000000000000000000000000008152600401610638906112d8565b60405180910390fd5b565b60006107de821015801561065957506108338211155b156107385761069d836040518060400160405280600481526020017f46414c4c00000000000000000000000000000000000000000000000000000000815250610944565b806106e357506106e2836040518060400160405280600681526020017f535052494e470000000000000000000000000000000000000000000000000000815250610944565b5b806107295750610728836040518060400160405280600681526020017f53554d4d45520000000000000000000000000000000000000000000000000000815250610944565b5b15610737576001905061073d565b5b600090505b92915050565b606060006107508361099d565b9050838160405160200161076592919061120c565b60405160208183030381529060405291505092915050565b60008060009054906101000a900473ffffffffffffffffffffffffffffffffffffffff169050816000806101000a81548173ffffffffffffffffffffffffffffffffffffffff021916908373ffffffffffffffffffffffffffffffffffffffff1602179055508173ffffffffffffffffffffffffffffffffffffffff168173ffffffffffffffffffffffffffffffffffffffff167f8be0079c531659141344cd1fd0a4f28419497f9722a3daafe3b4186f6b6457e060405160405180910390a35050565b60006108f660028360405161085691906111f5565b908152602001604051809103902060000180546108729061145e565b80601f016020809104026020016040519081016040528092919081815260200182805461089e9061145e565b80156108eb5780601f106108c0576101008083540402835291602001916108eb565b820191906000526020600020905b8154815290600101906020018083116108ce57829003601f168201915b505050505085610944565b801561092257508260028360405161090e91906111f5565b908152602001604051809103902060010154145b156109305760019050610935565b600090505b9392505050565b600033905090565b60008160405160200161095791906111f5565b604051602081830303815290604052805190602001208360405160200161097e91906111f5565b6040516020818303038152906040528051906020012014905092915050565b6060600060016109ac84610ac1565b01905060008167ffffffffffffffff8111156109f1577f4e487b7100000000000000000000000000000000000000000000000000000000600052604160045260246000fd5b6040519080825280601f01601f191660200182016040528015610a235781602001600182028036833780820191505090505b509050600082602001820190505b600115610ab6578080600190039150507f3031323334353637383961626364656600000000000000000000000000000000600a86061a8153600a8581610aa0577f4e487b7100000000000000000000000000000000000000000000000000000000600052601260045260246000fd5b0494506000851415610ab157610ab6565b610a31565b819350505050919050565b600080600090507a184f03e93ff9f4daa797ed6e38ed64bf6a1f0100000000000000008310610b45577a184f03e93ff9f4daa797ed6e38ed64bf6a1f0100000000000000008381610b3b577f4e487b7100000000000000000000000000000000000000000000000000000000600052601260045260246000fd5b0492506040810190505b6d04ee2d6d415b85acef81000000008310610ba8576d04ee2d6d415b85acef81000000008381610b9e577f4e487b7100000000000000000000000000000000000000000000000000000000600052601260045260246000fd5b0492506020810190505b662386f26fc100008310610bfd57662386f26fc100008381610bf3577f4e487b7100000000000000000000000000000000000000000000000000000000600052601260045260246000fd5b0492506010810190505b6305f5e1008310610c4c576305f5e1008381610c42577f4e487b7100000000000000000000000000000000000000000000000000000000600052601260045260246000fd5b0492506008810190505b6127108310610c97576127108381610c8d577f4e487b7100000000000000000000000000000000000000000000000000000000600052601260045260246000fd5b0492506004810190505b60648310610ce05760648381610cd6577f4e487b7100000000000000000000000000000000000000000000000000000000600052601260045260246000fd5b0492506002810190505b600a8310610cef576001810190505b80915050919050565b828054610d049061145e565b90600052602060002090601f016020900481019282610d265760008555610d6d565b82601f10610d3f57805160ff1916838001178555610d6d565b82800160010185558215610d6d579182015b82811115610d6c578251825591602001919060010190610d51565b5b509050610d7a9190610dbe565b5090565b508054610d8a9061145e565b6000825580601f10610d9c5750610dbb565b601f016020900490600052602060002090810190610dba9190610dbe565b5b50565b5b80821115610dd7576000816000905550600101610dbf565b5090565b6000610dee610de984611389565b611358565b905082815260208101848484011115610e0657600080fd5b610e1184828561141c565b509392505050565b600081359050610e28816114ff565b92915050565b600082601f830112610e3f57600080fd5b8135610e4f848260208601610ddb565b91505092915050565b600081359050610e6781611516565b92915050565b600060208284031215610e7f57600080fd5b6000610e8d84828501610e19565b91505092915050565b600060208284031215610ea857600080fd5b600082013567ffffffffffffffff811115610ec257600080fd5b610ece84828501610e2e565b91505092915050565b600080600060608486031215610eec57600080fd5b600084013567ffffffffffffffff811115610f0657600080fd5b610f1286828701610e2e565b9350506020610f2386828701610e58565b925050604084013567ffffffffffffffff811115610f4057600080fd5b610f4c86828701610e2e565b9150509250925092565b610f5f816113e0565b82525050565b6000610f70826113b9565b610f7a81856113c4565b9350610f8a81856020860161142b565b610f93816114ee565b840191505092915050565b6000610fa9826113b9565b610fb381856113d5565b9350610fc381856020860161142b565b80840191505092915050565b6000610fdc6011836113c4565b91507f53656d65737465722052656d6f766564210000000000000000000000000000006000830152602082019050919050565b600061101c6026836113c4565b91507f4f776e61626c653a206e6577206f776e657220697320746865207a65726f206160008301527f64647265737300000000000000000000000000000000000000000000000000006020830152604082019050919050565b6000611082600e836113c4565b91507f466f726d617420496e76616c69640000000000000000000000000000000000006000830152602082019050919050565b60006110c26020836113c4565b91507f4f776e61626c653a2063616c6c6572206973206e6f7420746865206f776e65726000830152602082019050919050565b60006111026011836113c4565b91507f53656d65737465722055706461746564210000000000000000000000000000006000830152602082019050919050565b60006111426010836113c4565b91507f496420646f65736e7420657869737421000000000000000000000000000000006000830152602082019050919050565b60006111826001836113d5565b91507f5f000000000000000000000000000000000000000000000000000000000000006000830152600182019050919050565b60006111c2600f836113c4565b91507f53656d65737465722041646465642100000000000000000000000000000000006000830152602082019050919050565b60006112018284610f9e565b915081905092915050565b60006112188285610f9e565b915061122382611175565b915061122f8284610f9e565b91508190509392505050565b60006020820190506112506000830184610f56565b92915050565b600060208201905081810360008301526112708184610f65565b905092915050565b6000602082019050818103600083015261129181610fcf565b9050919050565b600060208201905081810360008301526112b18161100f565b9050919050565b600060208201905081810360008301526112d181611075565b9050919050565b600060208201905081810360008301526112f1816110b5565b9050919050565b60006020820190508181036000830152611311816110f5565b9050919050565b6000602082019050818103600083015261133181611135565b9050919050565b60006020820190508181036000830152611351816111b5565b9050919050565b6000604051905081810181811067ffffffffffffffff8211171561137f5761137e6114bf565b5b8060405250919050565b600067ffffffffffffffff8211156113a4576113a36114bf565b5b601f19601f8301169050602081019050919050565b600081519050919050565b600082825260208201905092915050565b600081905092915050565b60006113eb826113f2565b9050919050565b600073ffffffffffffffffffffffffffffffffffffffff82169050919050565b6000819050919050565b82818337600083830152505050565b60005b8381101561144957808201518184015260208101905061142e565b83811115611458576000848401525b50505050565b6000600282049050600182168061147657607f821691505b6020821081141561148a57611489611490565b5b50919050565b7f4e487b7100000000000000000000000000000000000000000000000000000000600052602260045260246000fd5b7f4e487b7100000000000000000000000000000000000000000000000000000000600052604160045260246000fd5b6000601f19601f8301169050919050565b611508816113e0565b811461151357600080fd5b50565b61151f81611412565b811461152a57600080fd5b5056fea264697066735822122048ac75b717dd1399bc9086fc890d5dc56fb6d7fb128f7f930c345398632d311d64736f6c63430008000033",
  "linkReferences": {},
  "deployedLinkReferences": {}
}