{
  "_format": "hh-sol-artifact-1",
  "contractName": "SemesterStore",
  "sourceName": "contracts/SemesterResult.sol",
  "abi": [
    {
      "anonymous": false,
      "inputs": [
        {
          "indexed": true,
          "internalType": "address",
          "name": "previousOwner",
          "type": "address"
        },
        {
          "indexed": true,
          "internalType": "address",
          "name": "newOwner",
          "type": "address"
        }
      ],
      "name": "OwnershipTransferred",
      "type": "event"
    },
    {
      "anonymous": false,
      "inputs": [
        {
          "indexed": false,
          "internalType": "string",
          "name": "operation",
          "type": "string"
        }
      ],
      "name": "SemesterOperation",
      "type": "event"
    },
    {
      "inputs": [
        {
          "internalType": "string",
          "name": "semesterType",
          "type": "string"
        },
        {
          "internalType": "uint256",
          "name": "year",
          "type": "uint256"
        },
        {
          "internalType": "string",
          "name": "url",
          "type": "string"
        }
      ],
      "name": "addSemester",
      "outputs": [
        {
          "internalType": "bool",
          "name": "",
          "type": "bool"
        }
      ],
      "stateMutability": "nonpayable",
      "type": "function"
    },
    {
      "inputs": [
        {
          "components": [
            {
              "internalType": "string",
              "name": "semesterType",
              "type": "string"
            },
            {
              "internalType": "uint256",
              "name": "year",
              "type": "uint256"
            },
            {
              "internalType": "string",
              "name": "url",
              "type": "string"
            }
          ],
          "internalType": "struct SemesterStore.Semester[]",
          "name": "_semesters",
          "type": "tuple[]"
        }
      ],
      "name": "addSemesters",
      "outputs": [
        {
          "internalType": "bool",
          "name": "",
          "type": "bool"
        }
      ],
      "stateMutability": "nonpayable",
      "type": "function"
    },
    {
      "inputs": [
        {
          "internalType": "uint256",
          "name": "from",
          "type": "uint256"
        },
        {
          "internalType": "uint256",
          "name": "to",
          "type": "uint256"
        }
      ],
      "name": "getAllSemestersWithPagination",
      "outputs": [
        {
          "components": [
            {
              "internalType": "string",
              "name": "semesterType",
              "type": "string"
            },
            {
              "internalType": "uint256",
              "name": "year",
              "type": "uint256"
            },
            {
              "internalType": "string",
              "name": "url",
              "type": "string"
            }
          ],
          "internalType": "struct SemesterStore.Semester[]",
          "name": "",
          "type": "tuple[]"
        }
      ],
      "stateMutability": "view",
      "type": "function"
    },
    {
      "inputs": [
        {
          "internalType": "string",
          "name": "id",
          "type": "string"
        }
      ],
      "name": "getSemester",
      "outputs": [
        {
          "internalType": "string",
          "name": "",
          "type": "string"
        }
      ],
      "stateMutability": "view",
      "type": "function"
    },
    {
      "inputs": [],
      "name": "getSemesterCount",
      "outputs": [
        {
          "internalType": "uint256",
          "name": "",
          "type": "uint256"
        }
      ],
      "stateMutability": "view",
      "type": "function"
    },
    {
      "inputs": [],
      "name": "owner",
      "outputs": [
        {
          "internalType": "address",
          "name": "",
          "type": "address"
        }
      ],
      "stateMutability": "view",
      "type": "function"
    },
    {
      "inputs": [
        {
          "internalType": "string",
          "name": "id",
          "type": "string"
        }
      ],
      "name": "removeSemester",
      "outputs": [
        {
          "internalType": "bool",
          "name": "",
          "type": "bool"
        }
      ],
      "stateMutability": "nonpayable",
      "type": "function"
    },
    {
      "inputs": [
        {
          "internalType": "string[]",
          "name": "ids",
          "type": "string[]"
        }
      ],
      "name": "removeSemesters",
      "outputs": [
        {
          "internalType": "bool",
          "name": "",
          "type": "bool"
        }
      ],
      "stateMutability": "nonpayable",
      "type": "function"
    },
    {
      "inputs": [],
      "name": "renounceOwnership",
      "outputs": [],
      "stateMutability": "nonpayable",
      "type": "function"
    },
    {
      "inputs": [
        {
          "internalType": "address",
          "name": "newOwner",
          "type": "address"
        }
      ],
      "name": "transferOwnership",
      "outputs": [],
      "stateMutability": "nonpayable",
      "type": "function"
    },
    {
      "inputs": [
        {
          "internalType": "string",
          "name": "id",
          "type": "string"
        },
        {
          "internalType": "string",
          "name": "url",
          "type": "string"
        }
      ],
      "name": "updateSemester",
      "outputs": [
        {
          "internalType": "bool",
          "name": "",
          "type": "bool"
        }
      ],
      "stateMutability": "nonpayable",
      "type": "function"
    }
  ],
  "bytecode": "0x608060405260006001553480156200001657600080fd5b50620000376200002b6200003d60201b60201c565b6200004560201b60201c565b62000109565b600033905090565b60008060009054906101000a900473ffffffffffffffffffffffffffffffffffffffff169050816000806101000a81548173ffffffffffffffffffffffffffffffffffffffff021916908373ffffffffffffffffffffffffffffffffffffffff1602179055508173ffffffffffffffffffffffffffffffffffffffff168173ffffffffffffffffffffffffffffffffffffffff167f8be0079c531659141344cd1fd0a4f28419497f9722a3daafe3b4186f6b6457e060405160405180910390a35050565b6126eb80620001196000396000f3fe608060405234801561001057600080fd5b50600436106100a95760003560e01c8063715018a611610071578063715018a61461019e5780638da5cb5b146101a8578063c0a7efb0146101c6578063cf346e3d146101e4578063e0fdbc9f14610214578063f2fde38b14610244576100a9565b8063234b1029146100ae57806331556643146100de57806344a4918d1461010e5780635b5c343d1461013e5780636207c9db1461016e575b600080fd5b6100c860048036038101906100c39190611b69565b610260565b6040516100d59190612198565b60405180910390f35b6100f860048036038101906100f39190611abc565b61040f565b6040516101059190612198565b60405180910390f35b61012860048036038101906101239190611afd565b610582565b6040516101359190612198565b60405180910390f35b61015860048036038101906101539190611abc565b610671565b60405161016591906121b3565b60405180910390f35b61018860048036038101906101839190611a7b565b610724565b6040516101959190612198565b60405180910390f35b6101a661082f565b005b6101b0610843565b6040516101bd919061215b565b60405180910390f35b6101ce61086c565b6040516101db9190612315565b60405180910390f35b6101fe60048036038101906101f99190611be8565b610876565b60405161020b9190612176565b60405180910390f35b61022e60048036038101906102299190611a3a565b610cd6565b60405161023b9190612198565b60405180910390f35b61025e60048036038101906102599190611a11565b610d53565b005b600061026a610dd7565b6102748484610e55565b6102b3576040517f08c379a00000000000000000000000000000000000000000000000000000000081526004016102aa90612275565b60405180910390fd5b60006102bf8585610f55565b90506102cc858583610f8f565b1561030c576040517f08c379a000000000000000000000000000000000000000000000000000000000815260040161030390612215565b60405180910390fd5b806003600060015481526020019081526020016000209080519060200190610335929190611650565b506040518060600160405280868152602001858152602001848152506002826040516103619190612115565b9081526020016040518091039020600082015181600001908051906020019061038b929190611650565b506020820151816001015560408201518160020190805190602001906103b2929190611650565b50905050600160008154809291906103c9906125a0565b91905055507fbf9e209486578dce952c592532e6bb250286cc3686fdcb00116f7b1c9e81dadf6040516103fb906122f5565b60405180910390a160019150509392505050565b6000610419610dd7565b600060028360405161042b9190612115565b908152602001604051809103902060000180546104479061256e565b905011610489576040517f08c379a000000000000000000000000000000000000000000000000000000000815260040161048090612255565b60405180910390fd5b6002826040516104999190612115565b9081526020016040518091039020600080820160006104b891906116d6565b60018201600090556002820160006104d091906116d6565b505060006104dd8361108a565b905060036000600180546104f191906124b0565b81526020019081526020016000206003600083815260200190815260200160002090805461051e9061256e565b610529929190611716565b50600180600082825461053c91906124b0565b925050819055507fbf9e209486578dce952c592532e6bb250286cc3686fdcb00116f7b1c9e81dadf604051610570906121d5565b60405180910390a16001915050919050565b600061058c610dd7565b600060028460405161059e9190612115565b908152602001604051809103902060000180546105ba9061256e565b9050116105fc576040517f08c379a00000000000000000000000000000000000000000000000000000000081526004016105f390612255565b60405180910390fd5b8160028460405161060d9190612115565b90815260200160405180910390206002019080519060200190610631929190611650565b507fbf9e209486578dce952c592532e6bb250286cc3686fdcb00116f7b1c9e81dadf60405161065f906122d5565b60405180910390a16001905092915050565b60606002826040516106839190612115565b9081526020016040518091039020600201805461069f9061256e565b80601f01602080910402602001604051908101604052809291908181526020018280546106cb9061256e565b80156107185780601f106106ed57610100808354040283529160200191610718565b820191906000526020600020905b8154815290600101906020018083116106fb57829003601f168201915b50505050509050919050565b600061072e610dd7565b60005b825181101561082557610811838281518110610776577f4e487b7100000000000000000000000000000000000000000000000000000000600052603260045260246000fd5b6020026020010151600001518483815181106107bb577f4e487b7100000000000000000000000000000000000000000000000000000000600052603260045260246000fd5b602002602001015160200151858481518110610800577f4e487b7100000000000000000000000000000000000000000000000000000000600052603260045260246000fd5b602002602001015160400151610260565b50808061081d906125a0565b915050610731565b5060019050919050565b610837610dd7565b61084160006111a3565b565b60008060009054906101000a900473ffffffffffffffffffffffffffffffffffffffff16905090565b6000600154905090565b6060610880610dd7565b61088a8383611267565b6108c9576040517f08c379a00000000000000000000000000000000000000000000000000000000081526004016108c0906121f5565b60405180910390fd5b6000600184846108d991906124b0565b6108e3919061245a565b67ffffffffffffffff811115610922577f4e487b7100000000000000000000000000000000000000000000000000000000600052604160045260246000fd5b60405190808252806020026020018201604052801561095b57816020015b6109486117a3565b8152602001906001900390816109405790505b5090506000808590505b848111610cca57600060036000838152602001908152602001600020805461098c9061256e565b80601f01602080910402602001604051908101604052809291908181526020018280546109b89061256e565b8015610a055780601f106109da57610100808354040283529160200191610a05565b820191906000526020600020905b8154815290600101906020018083116109e857829003601f168201915b50505050509050610a258160405180602001604052806000815250611294565b158015610a5357506000600282604051610a3f9190612115565b908152602001604051809103902060010154115b15610cb657600281604051610a689190612115565b90815260200160405180910390206000018054610a849061256e565b80601f0160208091040260200160405190810160405280929190818152602001828054610ab09061256e565b8015610afd5780601f10610ad257610100808354040283529160200191610afd565b820191906000526020600020905b815481529060010190602001808311610ae057829003601f168201915b5050505050848481518110610b3b577f4e487b7100000000000000000000000000000000000000000000000000000000600052603260045260246000fd5b602002602001015160000181905250600281604051610b5a9190612115565b908152602001604051809103902060010154848481518110610ba5577f4e487b7100000000000000000000000000000000000000000000000000000000600052603260045260246000fd5b60200260200101516020018181525050600281604051610bc59190612115565b90815260200160405180910390206002018054610be19061256e565b80601f0160208091040260200160405190810160405280929190818152602001828054610c0d9061256e565b8015610c5a5780601f10610c2f57610100808354040283529160200191610c5a565b820191906000526020600020905b815481529060010190602001808311610c3d57829003601f168201915b5050505050848481518110610c98577f4e487b7100000000000000000000000000000000000000000000000000000000600052603260045260246000fd5b6020026020010151604001819052508280610cb2906125a0565b9350505b508080610cc2906125a0565b915050610965565b50819250505092915050565b6000610ce0610dd7565b60005b8251811015610d4957610d35838281518110610d28577f4e487b7100000000000000000000000000000000000000000000000000000000600052603260045260246000fd5b602002602001015161040f565b508080610d41906125a0565b915050610ce3565b5060019050919050565b610d5b610dd7565b600073ffffffffffffffffffffffffffffffffffffffff168173ffffffffffffffffffffffffffffffffffffffff161415610dcb576040517f08c379a0000000000000000000000000000000000000000000000000000000008152600401610dc290612235565b60405180910390fd5b610dd4816111a3565b50565b610ddf6112ed565b73ffffffffffffffffffffffffffffffffffffffff16610dfd610843565b73ffffffffffffffffffffffffffffffffffffffff1614610e53576040517f08c379a0000000000000000000000000000000000000000000000000000000008152600401610e4a90612295565b60405180910390fd5b565b60006107de8210158015610e6b57506108338211155b15610f4a57610eaf836040518060400160405280600481526020017f46414c4c00000000000000000000000000000000000000000000000000000000815250611294565b80610ef55750610ef4836040518060400160405280600681526020017f535052494e470000000000000000000000000000000000000000000000000000815250611294565b5b80610f3b5750610f3a836040518060400160405280600681526020017f53554d4d45520000000000000000000000000000000000000000000000000000815250611294565b5b15610f495760019050610f4f565b5b600090505b92915050565b60606000610f62836112f5565b90508381604051602001610f7792919061212c565b60405160208183030381529060405291505092915050565b6000611044600283604051610fa49190612115565b90815260200160405180910390206000018054610fc09061256e565b80601f0160208091040260200160405190810160405280929190818152602001828054610fec9061256e565b80156110395780601f1061100e57610100808354040283529160200191611039565b820191906000526020600020905b81548152906001019060200180831161101c57829003601f168201915b505050505085611294565b801561107057508260028360405161105c9190612115565b908152602001604051809103902060010154145b1561107e5760019050611083565b600090505b9392505050565b600080600090505b600154811015611162576111416003600083815260200190815260200160002080546110bd9061256e565b80601f01602080910402602001604051908101604052809291908181526020018280546110e99061256e565b80156111365780601f1061110b57610100808354040283529160200191611136565b820191906000526020600020905b81548152906001019060200180831161111957829003601f168201915b505050505084611294565b1561114f578091505061119e565b808061115a906125a0565b915050611092565b506040517f08c379a0000000000000000000000000000000000000000000000000000000008152600401611195906122b5565b60405180910390fd5b919050565b60008060009054906101000a900473ffffffffffffffffffffffffffffffffffffffff169050816000806101000a81548173ffffffffffffffffffffffffffffffffffffffff021916908373ffffffffffffffffffffffffffffffffffffffff1602179055508173ffffffffffffffffffffffffffffffffffffffff168173ffffffffffffffffffffffffffffffffffffffff167f8be0079c531659141344cd1fd0a4f28419497f9722a3daafe3b4186f6b6457e060405160405180910390a35050565b600080831015801561127b57506001548211155b15611289576001905061128e565b600090505b92915050565b6000816040516020016112a79190612115565b60405160208183030381529060405280519060200120836040516020016112ce9190612115565b6040516020818303038152906040528051906020012014905092915050565b600033905090565b60606000600161130484611419565b01905060008167ffffffffffffffff811115611349577f4e487b7100000000000000000000000000000000000000000000000000000000600052604160045260246000fd5b6040519080825280601f01601f19166020018201604052801561137b5781602001600182028036833780820191505090505b509050600082602001820190505b60011561140e578080600190039150507f3031323334353637383961626364656600000000000000000000000000000000600a86061a8153600a85816113f8577f4e487b7100000000000000000000000000000000000000000000000000000000600052601260045260246000fd5b04945060008514156114095761140e565b611389565b819350505050919050565b600080600090507a184f03e93ff9f4daa797ed6e38ed64bf6a1f010000000000000000831061149d577a184f03e93ff9f4daa797ed6e38ed64bf6a1f0100000000000000008381611493577f4e487b7100000000000000000000000000000000000000000000000000000000600052601260045260246000fd5b0492506040810190505b6d04ee2d6d415b85acef81000000008310611500576d04ee2d6d415b85acef810000000083816114f6577f4e487b7100000000000000000000000000000000000000000000000000000000600052601260045260246000fd5b0492506020810190505b662386f26fc10000831061155557662386f26fc10000838161154b577f4e487b7100000000000000000000000000000000000000000000000000000000600052601260045260246000fd5b0492506010810190505b6305f5e10083106115a4576305f5e100838161159a577f4e487b7100000000000000000000000000000000000000000000000000000000600052601260045260246000fd5b0492506008810190505b61271083106115ef5761271083816115e5577f4e487b7100000000000000000000000000000000000000000000000000000000600052601260045260246000fd5b0492506004810190505b60648310611638576064838161162e577f4e487b7100000000000000000000000000000000000000000000000000000000600052601260045260246000fd5b0492506002810190505b600a8310611647576001810190505b80915050919050565b82805461165c9061256e565b90600052602060002090601f01602090048101928261167e57600085556116c5565b82601f1061169757805160ff19168380011785556116c5565b828001600101855582156116c5579182015b828111156116c45782518255916020019190600101906116a9565b5b5090506116d291906117c4565b5090565b5080546116e29061256e565b6000825580601f106116f45750611713565b601f01602090049060005260206000209081019061171291906117c4565b5b50565b8280546117229061256e565b90600052602060002090601f0160209004810192826117445760008555611792565b82601f106117555780548555611792565b8280016001018555821561179257600052602060002091601f016020900482015b82811115611791578254825591600101919060010190611776565b5b50905061179f91906117c4565b5090565b60405180606001604052806060815260200160008152602001606081525090565b5b808211156117dd5760008160009055506001016117c5565b5090565b60006117f46117ef84612361565b612330565b9050808382526020820190508260005b85811015611834578135850161181a8882611942565b845260208401935060208301925050600181019050611804565b5050509392505050565b600061185161184c8461238d565b612330565b9050808382526020820190508260005b858110156118915781358501611877888261196c565b845260208401935060208301925050600181019050611861565b5050509392505050565b60006118ae6118a9846123b9565b612330565b9050828152602081018484840111156118c657600080fd5b6118d184828561252c565b509392505050565b6000813590506118e881612687565b92915050565b600082601f8301126118ff57600080fd5b813561190f8482602086016117e1565b91505092915050565b600082601f83011261192957600080fd5b813561193984826020860161183e565b91505092915050565b600082601f83011261195357600080fd5b813561196384826020860161189b565b91505092915050565b60006060828403121561197e57600080fd5b6119886060612330565b9050600082013567ffffffffffffffff8111156119a457600080fd5b6119b084828501611942565b60008301525060206119c4848285016119fc565b602083015250604082013567ffffffffffffffff8111156119e457600080fd5b6119f084828501611942565b60408301525092915050565b600081359050611a0b8161269e565b92915050565b600060208284031215611a2357600080fd5b6000611a31848285016118d9565b91505092915050565b600060208284031215611a4c57600080fd5b600082013567ffffffffffffffff811115611a6657600080fd5b611a72848285016118ee565b91505092915050565b600060208284031215611a8d57600080fd5b600082013567ffffffffffffffff811115611aa757600080fd5b611ab384828501611918565b91505092915050565b600060208284031215611ace57600080fd5b600082013567ffffffffffffffff811115611ae857600080fd5b611af484828501611942565b91505092915050565b60008060408385031215611b1057600080fd5b600083013567ffffffffffffffff811115611b2a57600080fd5b611b3685828601611942565b925050602083013567ffffffffffffffff811115611b5357600080fd5b611b5f85828601611942565b9150509250929050565b600080600060608486031215611b7e57600080fd5b600084013567ffffffffffffffff811115611b9857600080fd5b611ba486828701611942565b9350506020611bb5868287016119fc565b925050604084013567ffffffffffffffff811115611bd257600080fd5b611bde86828701611942565b9150509250925092565b60008060408385031215611bfb57600080fd5b6000611c09858286016119fc565b9250506020611c1a858286016119fc565b9150509250929050565b6000611c3083836120a0565b905092915050565b611c41816124e4565b82525050565b6000611c52826123f9565b611c5c818561241c565b935083602082028501611c6e856123e9565b8060005b85811015611caa5784840389528151611c8b8582611c24565b9450611c968361240f565b925060208a01995050600181019050611c72565b50829750879550505050505092915050565b611cc5816124f6565b82525050565b6000611cd682612404565b611ce0818561242d565b9350611cf081856020860161253b565b611cf981612676565b840191505092915050565b6000611d0f82612404565b611d19818561243e565b9350611d2981856020860161253b565b611d3281612676565b840191505092915050565b6000611d4882612404565b611d52818561244f565b9350611d6281856020860161253b565b80840191505092915050565b6000611d7b60118361243e565b91507f53656d65737465722052656d6f766564210000000000000000000000000000006000830152602082019050919050565b6000611dbb60258361243e565b91507f506167696e6174696f6e20636f6f7264696e617465732065786365656473206c60008301527f696d6974210000000000000000000000000000000000000000000000000000006020830152604082019050919050565b6000611e21600a8361243e565b91507f49642065786973747321000000000000000000000000000000000000000000006000830152602082019050919050565b6000611e6160268361243e565b91507f4f776e61626c653a206e6577206f776e657220697320746865207a65726f206160008301527f64647265737300000000000000000000000000000000000000000000000000006020830152604082019050919050565b6000611ec760178361243e565b91507f53656d657374657220646f6573206e6f742065786973740000000000000000006000830152602082019050919050565b6000611f07600e8361243e565b91507f466f726d617420496e76616c69640000000000000000000000000000000000006000830152602082019050919050565b6000611f4760208361243e565b91507f4f776e61626c653a2063616c6c6572206973206e6f7420746865206f776e65726000830152602082019050919050565b6000611f8760218361243e565b91507f53656d6573746572206e6f7420666f756e6420696e2073656d6573746572496460008301527f73000000000000000000000000000000000000000000000000000000000000006020830152604082019050919050565b6000611fed60118361243e565b91507f53656d65737465722055706461746564210000000000000000000000000000006000830152602082019050919050565b600061202d60018361244f565b91507f5f000000000000000000000000000000000000000000000000000000000000006000830152600182019050919050565b600061206d600f8361243e565b91507f53656d65737465722041646465642100000000000000000000000000000000006000830152602082019050919050565b600060608301600083015184820360008601526120bd8282611ccb565b91505060208301516120d260208601826120f7565b50604083015184820360408601526120ea8282611ccb565b9150508091505092915050565b61210081612522565b82525050565b61210f81612522565b82525050565b60006121218284611d3d565b915081905092915050565b60006121388285611d3d565b915061214382612020565b915061214f8284611d3d565b91508190509392505050565b60006020820190506121706000830184611c38565b92915050565b600060208201905081810360008301526121908184611c47565b905092915050565b60006020820190506121ad6000830184611cbc565b92915050565b600060208201905081810360008301526121cd8184611d04565b905092915050565b600060208201905081810360008301526121ee81611d6e565b9050919050565b6000602082019050818103600083015261220e81611dae565b9050919050565b6000602082019050818103600083015261222e81611e14565b9050919050565b6000602082019050818103600083015261224e81611e54565b9050919050565b6000602082019050818103600083015261226e81611eba565b9050919050565b6000602082019050818103600083015261228e81611efa565b9050919050565b600060208201905081810360008301526122ae81611f3a565b9050919050565b600060208201905081810360008301526122ce81611f7a565b9050919050565b600060208201905081810360008301526122ee81611fe0565b9050919050565b6000602082019050818103600083015261230e81612060565b9050919050565b600060208201905061232a6000830184612106565b92915050565b6000604051905081810181811067ffffffffffffffff8211171561235757612356612647565b5b8060405250919050565b600067ffffffffffffffff82111561237c5761237b612647565b5b602082029050602081019050919050565b600067ffffffffffffffff8211156123a8576123a7612647565b5b602082029050602081019050919050565b600067ffffffffffffffff8211156123d4576123d3612647565b5b601f19601f8301169050602081019050919050565b6000819050602082019050919050565b600081519050919050565b600081519050919050565b6000602082019050919050565b600082825260208201905092915050565b600082825260208201905092915050565b600082825260208201905092915050565b600081905092915050565b600061246582612522565b915061247083612522565b9250827fffffffffffffffffffffffffffffffffffffffffffffffffffffffffffffffff038211156124a5576124a46125e9565b5b828201905092915050565b60006124bb82612522565b91506124c683612522565b9250828210156124d9576124d86125e9565b5b828203905092915050565b60006124ef82612502565b9050919050565b60008115159050919050565b600073ffffffffffffffffffffffffffffffffffffffff82169050919050565b6000819050919050565b82818337600083830152505050565b60005b8381101561255957808201518184015260208101905061253e565b83811115612568576000848401525b50505050565b6000600282049050600182168061258657607f821691505b6020821081141561259a57612599612618565b5b50919050565b60006125ab82612522565b91507fffffffffffffffffffffffffffffffffffffffffffffffffffffffffffffffff8214156125de576125dd6125e9565b5b600182019050919050565b7f4e487b7100000000000000000000000000000000000000000000000000000000600052601160045260246000fd5b7f4e487b7100000000000000000000000000000000000000000000000000000000600052602260045260246000fd5b7f4e487b7100000000000000000000000000000000000000000000000000000000600052604160045260246000fd5b6000601f19601f8301169050919050565b612690816124e4565b811461269b57600080fd5b50565b6126a781612522565b81146126b257600080fd5b5056fea26469706673582212207e863a427de4ae67f8c8243b98eaeae4ca60fe57c316c0cb85fd02c942da210864736f6c63430008000033",
  "linkReferences": {},
  "deployedLinkReferences": {}
}