{
  "_format": "hh-sol-artifact-1",
  "contractName": "SemesterStore",
  "sourceName": "contracts/SemesterResult.sol",
  "abi": [
    {
      "anonymous": false,
      "inputs": [
        {
          "indexed": true,
          "internalType": "address",
          "name": "previousOwner",
          "type": "address"
        },
        {
          "indexed": true,
          "internalType": "address",
          "name": "newOwner",
          "type": "address"
        }
      ],
      "name": "OwnershipTransferred",
      "type": "event"
    },
    {
      "anonymous": false,
      "inputs": [
        {
          "indexed": false,
          "internalType": "string",
          "name": "operation",
          "type": "string"
        }
      ],
      "name": "SemesterOperation",
      "type": "event"
    },
    {
      "inputs": [
        {
          "internalType": "string",
          "name": "semesterType",
          "type": "string"
        },
        {
          "internalType": "uint256",
          "name": "year",
          "type": "uint256"
        },
        {
          "internalType": "string",
          "name": "url",
          "type": "string"
        }
      ],
      "name": "addSemester",
      "outputs": [
        {
          "internalType": "bool",
          "name": "",
          "type": "bool"
        }
      ],
      "stateMutability": "nonpayable",
      "type": "function"
    },
    {
      "inputs": [
        {
          "internalType": "uint256",
          "name": "from",
          "type": "uint256"
        },
        {
          "internalType": "uint256",
          "name": "to",
          "type": "uint256"
        }
      ],
      "name": "getAllSemestersWithPagination",
      "outputs": [
        {
          "components": [
            {
              "internalType": "string",
              "name": "semesterType",
              "type": "string"
            },
            {
              "internalType": "uint256",
              "name": "year",
              "type": "uint256"
            },
            {
              "internalType": "string",
              "name": "url",
              "type": "string"
            }
          ],
          "internalType": "struct SemesterStore.Semester[]",
          "name": "",
          "type": "tuple[]"
        }
      ],
      "stateMutability": "view",
      "type": "function"
    },
    {
      "inputs": [
        {
          "internalType": "string",
          "name": "id",
          "type": "string"
        }
      ],
      "name": "getSemester",
      "outputs": [
        {
          "internalType": "string",
          "name": "",
          "type": "string"
        }
      ],
      "stateMutability": "view",
      "type": "function"
    },
    {
      "inputs": [],
      "name": "getSemesterCount",
      "outputs": [
        {
          "internalType": "uint256",
          "name": "",
          "type": "uint256"
        }
      ],
      "stateMutability": "view",
      "type": "function"
    },
    {
      "inputs": [],
      "name": "owner",
      "outputs": [
        {
          "internalType": "address",
          "name": "",
          "type": "address"
        }
      ],
      "stateMutability": "view",
      "type": "function"
    },
    {
      "inputs": [
        {
          "internalType": "string",
          "name": "id",
          "type": "string"
        }
      ],
      "name": "removeSemester",
      "outputs": [
        {
          "internalType": "bool",
          "name": "",
          "type": "bool"
        }
      ],
      "stateMutability": "nonpayable",
      "type": "function"
    },
    {
      "inputs": [],
      "name": "renounceOwnership",
      "outputs": [],
      "stateMutability": "nonpayable",
      "type": "function"
    },
    {
      "inputs": [
        {
          "internalType": "address",
          "name": "newOwner",
          "type": "address"
        }
      ],
      "name": "transferOwnership",
      "outputs": [],
      "stateMutability": "nonpayable",
      "type": "function"
    },
    {
      "inputs": [
        {
          "internalType": "string",
          "name": "id",
          "type": "string"
        },
        {
          "internalType": "string",
          "name": "url",
          "type": "string"
        }
      ],
      "name": "updateSemester",
      "outputs": [
        {
          "internalType": "bool",
          "name": "",
          "type": "bool"
        }
      ],
      "stateMutability": "nonpayable",
      "type": "function"
    }
  ],
  "bytecode": "0x6080604052600060015534801561001557600080fd5b5061003261002761003760201b60201c565b61003f60201b60201c565b610103565b600033905090565b60008060009054906101000a900473ffffffffffffffffffffffffffffffffffffffff169050816000806101000a81548173ffffffffffffffffffffffffffffffffffffffff021916908373ffffffffffffffffffffffffffffffffffffffff1602179055508173ffffffffffffffffffffffffffffffffffffffff168173ffffffffffffffffffffffffffffffffffffffff167f8be0079c531659141344cd1fd0a4f28419497f9722a3daafe3b4186f6b6457e060405160405180910390a35050565b61205080620001136000396000f3fe608060405234801561001057600080fd5b50600436106100935760003560e01c8063715018a611610066578063715018a6146101585780638da5cb5b14610162578063c0a7efb014610180578063cf346e3d1461019e578063f2fde38b146101ce57610093565b8063234b10291461009857806331556643146100c857806344a4918d146100f85780635b5c343d14610128575b600080fd5b6100b260048036038101906100ad91906115ac565b6101ea565b6040516100bf9190611b75565b60405180910390f35b6100e260048036038101906100dd91906114ff565b6103a0565b6040516100ef9190611b75565b60405180910390f35b610112600480360381019061010d9190611540565b6104c2565b60405161011f9190611b75565b60405180910390f35b610142600480360381019061013d91906114ff565b6105b8565b60405161014f9190611b90565b60405180910390f35b61016061066b565b005b61016a61067f565b6040516101779190611b38565b60405180910390f35b6101886106a8565b6040516101959190611cd2565b60405180910390f35b6101b860048036038101906101b3919061162b565b6106b2565b6040516101c59190611b53565b60405180910390f35b6101e860048036038101906101e391906114d6565b610b12565b005b60006101f4610b96565b6101fe8484610c14565b61023d576040517f08c379a000000000000000000000000000000000000000000000000000000000815260040161023490611c52565b60405180910390fd5b60006102498585610d14565b9050610256858583610d4e565b15610296576040517f08c379a000000000000000000000000000000000000000000000000000000000815260040161028d90611bf2565b60405180910390fd5b8060036000600154815260200190815260200160002090805190602001906102bf929190611340565b506040518060600160405280868152602001858152602001848152506002826040516102eb9190611af2565b90815260200160405180910390206000820151816000019080519060200190610315929190611340565b5060208201518160010155604082015181600201908051906020019061033c929190611340565b509050506001600081548092919061035390611f05565b91905055507fbf9e209486578dce952c592532e6bb250286cc3686fdcb00116f7b1c9e81dadf60405161038590611cb2565b60405180910390a161039681610e49565b9150509392505050565b60006103aa610b96565b60006002836040516103bc9190611af2565b908152602001604051809103902060000180546103d890611ed3565b90501161041a576040517f08c379a000000000000000000000000000000000000000000000000000000000815260040161041190611c32565b60405180910390fd5b60028260405161042a9190611af2565b90815260200160405180910390206000808201600061044991906113c6565b600182016000905560028201600061046191906113c6565b505060018060008282546104759190611e15565b925050819055507fbf9e209486578dce952c592532e6bb250286cc3686fdcb00116f7b1c9e81dadf6040516104a990611bb2565b60405180910390a16104ba82610e49565b159050919050565b60006104cc610b96565b60006002846040516104de9190611af2565b908152602001604051809103902060000180546104fa90611ed3565b90501161053c576040517f08c379a000000000000000000000000000000000000000000000000000000000815260040161053390611c32565b60405180910390fd5b8160028460405161054d9190611af2565b90815260200160405180910390206002019080519060200190610571929190611340565b507fbf9e209486578dce952c592532e6bb250286cc3686fdcb00116f7b1c9e81dadf60405161059f90611c92565b60405180910390a16105b083610e49565b905092915050565b60606002826040516105ca9190611af2565b908152602001604051809103902060020180546105e690611ed3565b80601f016020809104026020016040519081016040528092919081815260200182805461061290611ed3565b801561065f5780601f106106345761010080835404028352916020019161065f565b820191906000526020600020905b81548152906001019060200180831161064257829003601f168201915b50505050509050919050565b610673610b96565b61067d6000610e93565b565b60008060009054906101000a900473ffffffffffffffffffffffffffffffffffffffff16905090565b6000600154905090565b60606106bc610b96565b6106c68383610f57565b610705576040517f08c379a00000000000000000000000000000000000000000000000000000000081526004016106fc90611bd2565b60405180910390fd5b6000600184846107159190611e15565b61071f9190611dbf565b67ffffffffffffffff81111561075e577f4e487b7100000000000000000000000000000000000000000000000000000000600052604160045260246000fd5b60405190808252806020026020018201604052801561079757816020015b610784611406565b81526020019060019003908161077c5790505b5090506000808590505b848111610b065760006003600083815260200190815260200160002080546107c890611ed3565b80601f01602080910402602001604051908101604052809291908181526020018280546107f490611ed3565b80156108415780601f1061081657610100808354040283529160200191610841565b820191906000526020600020905b81548152906001019060200180831161082457829003601f168201915b505050505090506108618160405180602001604052806000815250610f84565b15801561088f5750600060028260405161087b9190611af2565b908152602001604051809103902060010154115b15610af2576002816040516108a49190611af2565b908152602001604051809103902060000180546108c090611ed3565b80601f01602080910402602001604051908101604052809291908181526020018280546108ec90611ed3565b80156109395780601f1061090e57610100808354040283529160200191610939565b820191906000526020600020905b81548152906001019060200180831161091c57829003601f168201915b5050505050848481518110610977577f4e487b7100000000000000000000000000000000000000000000000000000000600052603260045260246000fd5b6020026020010151600001819052506002816040516109969190611af2565b9081526020016040518091039020600101548484815181106109e1577f4e487b7100000000000000000000000000000000000000000000000000000000600052603260045260246000fd5b60200260200101516020018181525050600281604051610a019190611af2565b90815260200160405180910390206002018054610a1d90611ed3565b80601f0160208091040260200160405190810160405280929190818152602001828054610a4990611ed3565b8015610a965780601f10610a6b57610100808354040283529160200191610a96565b820191906000526020600020905b815481529060010190602001808311610a7957829003601f168201915b5050505050848481518110610ad4577f4e487b7100000000000000000000000000000000000000000000000000000000600052603260045260246000fd5b6020026020010151604001819052508280610aee90611f05565b9350505b508080610afe90611f05565b9150506107a1565b50819250505092915050565b610b1a610b96565b600073ffffffffffffffffffffffffffffffffffffffff168173ffffffffffffffffffffffffffffffffffffffff161415610b8a576040517f08c379a0000000000000000000000000000000000000000000000000000000008152600401610b8190611c12565b60405180910390fd5b610b9381610e93565b50565b610b9e610fdd565b73ffffffffffffffffffffffffffffffffffffffff16610bbc61067f565b73ffffffffffffffffffffffffffffffffffffffff1614610c12576040517f08c379a0000000000000000000000000000000000000000000000000000000008152600401610c0990611c72565b60405180910390fd5b565b60006107de8210158015610c2a57506108338211155b15610d0957610c6e836040518060400160405280600481526020017f46414c4c00000000000000000000000000000000000000000000000000000000815250610f84565b80610cb45750610cb3836040518060400160405280600681526020017f535052494e470000000000000000000000000000000000000000000000000000815250610f84565b5b80610cfa5750610cf9836040518060400160405280600681526020017f53554d4d45520000000000000000000000000000000000000000000000000000815250610f84565b5b15610d085760019050610d0e565b5b600090505b92915050565b60606000610d2183610fe5565b90508381604051602001610d36929190611b09565b60405160208183030381529060405291505092915050565b6000610e03600283604051610d639190611af2565b90815260200160405180910390206000018054610d7f90611ed3565b80601f0160208091040260200160405190810160405280929190818152602001828054610dab90611ed3565b8015610df85780601f10610dcd57610100808354040283529160200191610df8565b820191906000526020600020905b815481529060010190602001808311610ddb57829003601f168201915b505050505085610f84565b8015610e2f575082600283604051610e1b9190611af2565b908152602001604051809103902060010154145b15610e3d5760019050610e42565b600090505b9392505050565b600080600283604051610e5c9190611af2565b90815260200160405180910390206000018054610e7890611ed3565b90501115610e895760019050610e8e565b600090505b919050565b60008060009054906101000a900473ffffffffffffffffffffffffffffffffffffffff169050816000806101000a81548173ffffffffffffffffffffffffffffffffffffffff021916908373ffffffffffffffffffffffffffffffffffffffff1602179055508173ffffffffffffffffffffffffffffffffffffffff168173ffffffffffffffffffffffffffffffffffffffff167f8be0079c531659141344cd1fd0a4f28419497f9722a3daafe3b4186f6b6457e060405160405180910390a35050565b6000808310158015610f6b57506001548211155b15610f795760019050610f7e565b600090505b92915050565b600081604051602001610f979190611af2565b6040516020818303038152906040528051906020012083604051602001610fbe9190611af2565b6040516020818303038152906040528051906020012014905092915050565b600033905090565b606060006001610ff484611109565b01905060008167ffffffffffffffff811115611039577f4e487b7100000000000000000000000000000000000000000000000000000000600052604160045260246000fd5b6040519080825280601f01601f19166020018201604052801561106b5781602001600182028036833780820191505090505b509050600082602001820190505b6001156110fe578080600190039150507f3031323334353637383961626364656600000000000000000000000000000000600a86061a8153600a85816110e8577f4e487b7100000000000000000000000000000000000000000000000000000000600052601260045260246000fd5b04945060008514156110f9576110fe565b611079565b819350505050919050565b600080600090507a184f03e93ff9f4daa797ed6e38ed64bf6a1f010000000000000000831061118d577a184f03e93ff9f4daa797ed6e38ed64bf6a1f0100000000000000008381611183577f4e487b7100000000000000000000000000000000000000000000000000000000600052601260045260246000fd5b0492506040810190505b6d04ee2d6d415b85acef810000000083106111f0576d04ee2d6d415b85acef810000000083816111e6577f4e487b7100000000000000000000000000000000000000000000000000000000600052601260045260246000fd5b0492506020810190505b662386f26fc10000831061124557662386f26fc10000838161123b577f4e487b7100000000000000000000000000000000000000000000000000000000600052601260045260246000fd5b0492506010810190505b6305f5e1008310611294576305f5e100838161128a577f4e487b7100000000000000000000000000000000000000000000000000000000600052601260045260246000fd5b0492506008810190505b61271083106112df5761271083816112d5577f4e487b7100000000000000000000000000000000000000000000000000000000600052601260045260246000fd5b0492506004810190505b60648310611328576064838161131e577f4e487b7100000000000000000000000000000000000000000000000000000000600052601260045260246000fd5b0492506002810190505b600a8310611337576001810190505b80915050919050565b82805461134c90611ed3565b90600052602060002090601f01602090048101928261136e57600085556113b5565b82601f1061138757805160ff19168380011785556113b5565b828001600101855582156113b5579182015b828111156113b4578251825591602001919060010190611399565b5b5090506113c29190611427565b5090565b5080546113d290611ed3565b6000825580601f106113e45750611403565b601f0160209004906000526020600020908101906114029190611427565b5b50565b60405180606001604052806060815260200160008152602001606081525090565b5b80821115611440576000816000905550600101611428565b5090565b600061145761145284611d1e565b611ced565b90508281526020810184848401111561146f57600080fd5b61147a848285611e91565b509392505050565b60008135905061149181611fec565b92915050565b600082601f8301126114a857600080fd5b81356114b8848260208601611444565b91505092915050565b6000813590506114d081612003565b92915050565b6000602082840312156114e857600080fd5b60006114f684828501611482565b91505092915050565b60006020828403121561151157600080fd5b600082013567ffffffffffffffff81111561152b57600080fd5b61153784828501611497565b91505092915050565b6000806040838503121561155357600080fd5b600083013567ffffffffffffffff81111561156d57600080fd5b61157985828601611497565b925050602083013567ffffffffffffffff81111561159657600080fd5b6115a285828601611497565b9150509250929050565b6000806000606084860312156115c157600080fd5b600084013567ffffffffffffffff8111156115db57600080fd5b6115e786828701611497565b93505060206115f8868287016114c1565b925050604084013567ffffffffffffffff81111561161557600080fd5b61162186828701611497565b9150509250925092565b6000806040838503121561163e57600080fd5b600061164c858286016114c1565b925050602061165d858286016114c1565b9150509250929050565b60006116738383611a7d565b905092915050565b61168481611e49565b82525050565b600061169582611d5e565b61169f8185611d81565b9350836020820285016116b185611d4e565b8060005b858110156116ed57848403895281516116ce8582611667565b94506116d983611d74565b925060208a019950506001810190506116b5565b50829750879550505050505092915050565b61170881611e5b565b82525050565b600061171982611d69565b6117238185611d92565b9350611733818560208601611ea0565b61173c81611fdb565b840191505092915050565b600061175282611d69565b61175c8185611da3565b935061176c818560208601611ea0565b61177581611fdb565b840191505092915050565b600061178b82611d69565b6117958185611db4565b93506117a5818560208601611ea0565b80840191505092915050565b60006117be601183611da3565b91507f53656d65737465722052656d6f766564210000000000000000000000000000006000830152602082019050919050565b60006117fe602583611da3565b91507f506167696e6174696f6e20636f6f7264696e617465732065786365656473206c60008301527f696d6974210000000000000000000000000000000000000000000000000000006020830152604082019050919050565b6000611864600a83611da3565b91507f49642065786973747321000000000000000000000000000000000000000000006000830152602082019050919050565b60006118a4602683611da3565b91507f4f776e61626c653a206e6577206f776e657220697320746865207a65726f206160008301527f64647265737300000000000000000000000000000000000000000000000000006020830152604082019050919050565b600061190a601783611da3565b91507f53656d657374657220646f6573206e6f742065786973740000000000000000006000830152602082019050919050565b600061194a600e83611da3565b91507f466f726d617420496e76616c69640000000000000000000000000000000000006000830152602082019050919050565b600061198a602083611da3565b91507f4f776e61626c653a2063616c6c6572206973206e6f7420746865206f776e65726000830152602082019050919050565b60006119ca601183611da3565b91507f53656d65737465722055706461746564210000000000000000000000000000006000830152602082019050919050565b6000611a0a600183611db4565b91507f5f000000000000000000000000000000000000000000000000000000000000006000830152600182019050919050565b6000611a4a600f83611da3565b91507f53656d65737465722041646465642100000000000000000000000000000000006000830152602082019050919050565b60006060830160008301518482036000860152611a9a828261170e565b9150506020830151611aaf6020860182611ad4565b5060408301518482036040860152611ac7828261170e565b9150508091505092915050565b611add81611e87565b82525050565b611aec81611e87565b82525050565b6000611afe8284611780565b915081905092915050565b6000611b158285611780565b9150611b20826119fd565b9150611b2c8284611780565b91508190509392505050565b6000602082019050611b4d600083018461167b565b92915050565b60006020820190508181036000830152611b6d818461168a565b905092915050565b6000602082019050611b8a60008301846116ff565b92915050565b60006020820190508181036000830152611baa8184611747565b905092915050565b60006020820190508181036000830152611bcb816117b1565b9050919050565b60006020820190508181036000830152611beb816117f1565b9050919050565b60006020820190508181036000830152611c0b81611857565b9050919050565b60006020820190508181036000830152611c2b81611897565b9050919050565b60006020820190508181036000830152611c4b816118fd565b9050919050565b60006020820190508181036000830152611c6b8161193d565b9050919050565b60006020820190508181036000830152611c8b8161197d565b9050919050565b60006020820190508181036000830152611cab816119bd565b9050919050565b60006020820190508181036000830152611ccb81611a3d565b9050919050565b6000602082019050611ce76000830184611ae3565b92915050565b6000604051905081810181811067ffffffffffffffff82111715611d1457611d13611fac565b5b8060405250919050565b600067ffffffffffffffff821115611d3957611d38611fac565b5b601f19601f8301169050602081019050919050565b6000819050602082019050919050565b600081519050919050565b600081519050919050565b6000602082019050919050565b600082825260208201905092915050565b600082825260208201905092915050565b600082825260208201905092915050565b600081905092915050565b6000611dca82611e87565b9150611dd583611e87565b9250827fffffffffffffffffffffffffffffffffffffffffffffffffffffffffffffffff03821115611e0a57611e09611f4e565b5b828201905092915050565b6000611e2082611e87565b9150611e2b83611e87565b925082821015611e3e57611e3d611f4e565b5b828203905092915050565b6000611e5482611e67565b9050919050565b60008115159050919050565b600073ffffffffffffffffffffffffffffffffffffffff82169050919050565b6000819050919050565b82818337600083830152505050565b60005b83811015611ebe578082015181840152602081019050611ea3565b83811115611ecd576000848401525b50505050565b60006002820490506001821680611eeb57607f821691505b60208210811415611eff57611efe611f7d565b5b50919050565b6000611f1082611e87565b91507fffffffffffffffffffffffffffffffffffffffffffffffffffffffffffffffff821415611f4357611f42611f4e565b5b600182019050919050565b7f4e487b7100000000000000000000000000000000000000000000000000000000600052601160045260246000fd5b7f4e487b7100000000000000000000000000000000000000000000000000000000600052602260045260246000fd5b7f4e487b7100000000000000000000000000000000000000000000000000000000600052604160045260246000fd5b6000601f19601f8301169050919050565b611ff581611e49565b811461200057600080fd5b50565b61200c81611e87565b811461201757600080fd5b5056fea26469706673582212201f859dc2bc5bb2d140328c9383620ec9f8e44718252aab97e43a64ecfdae618964736f6c63430008000033",
  "linkReferences": {},
  "deployedLinkReferences": {}
}