{
  "_format": "hh-sol-artifact-1",
  "contractName": "SemesterStore",
  "sourceName": "contracts/SemesterResult.sol",
  "abi": [
    {
      "anonymous": false,
      "inputs": [
        {
          "indexed": true,
          "internalType": "address",
          "name": "previousOwner",
          "type": "address"
        },
        {
          "indexed": true,
          "internalType": "address",
          "name": "newOwner",
          "type": "address"
        }
      ],
      "name": "OwnershipTransferred",
      "type": "event"
    },
    {
      "anonymous": false,
      "inputs": [
        {
          "indexed": false,
          "internalType": "string",
          "name": "operation",
          "type": "string"
        }
      ],
      "name": "SemesterOperation",
      "type": "event"
    },
    {
      "inputs": [
        {
          "internalType": "string",
          "name": "semesterType",
          "type": "string"
        },
        {
          "internalType": "uint256",
          "name": "year",
          "type": "uint256"
        },
        {
          "internalType": "string",
          "name": "url",
          "type": "string"
        }
      ],
      "name": "addSemester",
      "outputs": [
        {
          "internalType": "bool",
          "name": "",
          "type": "bool"
        }
      ],
      "stateMutability": "nonpayable",
      "type": "function"
    },
    {
      "inputs": [
        {
          "internalType": "uint256",
          "name": "from",
          "type": "uint256"
        },
        {
          "internalType": "uint256",
          "name": "to",
          "type": "uint256"
        }
      ],
      "name": "getAllSemestersWithPagination",
      "outputs": [
        {
          "components": [
            {
              "internalType": "string",
              "name": "semesterType",
              "type": "string"
            },
            {
              "internalType": "uint256",
              "name": "year",
              "type": "uint256"
            },
            {
              "internalType": "string",
              "name": "url",
              "type": "string"
            }
          ],
          "internalType": "struct SemesterStore.Semester[]",
          "name": "",
          "type": "tuple[]"
        }
      ],
      "stateMutability": "view",
      "type": "function"
    },
    {
      "inputs": [
        {
          "internalType": "string",
          "name": "id",
          "type": "string"
        }
      ],
      "name": "getSemester",
      "outputs": [
        {
          "internalType": "string",
          "name": "",
          "type": "string"
        }
      ],
      "stateMutability": "view",
      "type": "function"
    },
    {
      "inputs": [],
      "name": "getSemesterCount",
      "outputs": [
        {
          "internalType": "uint256",
          "name": "",
          "type": "uint256"
        }
      ],
      "stateMutability": "view",
      "type": "function"
    },
    {
      "inputs": [],
      "name": "owner",
      "outputs": [
        {
          "internalType": "address",
          "name": "",
          "type": "address"
        }
      ],
      "stateMutability": "view",
      "type": "function"
    },
    {
      "inputs": [
        {
          "internalType": "string",
          "name": "id",
          "type": "string"
        }
      ],
      "name": "removeSemester",
      "outputs": [
        {
          "internalType": "bool",
          "name": "",
          "type": "bool"
        }
      ],
      "stateMutability": "nonpayable",
      "type": "function"
    },
    {
      "inputs": [
        {
          "internalType": "string[]",
          "name": "ids",
          "type": "string[]"
        }
      ],
      "name": "removeSemesters",
      "outputs": [
        {
          "internalType": "bool",
          "name": "",
          "type": "bool"
        }
      ],
      "stateMutability": "nonpayable",
      "type": "function"
    },
    {
      "inputs": [],
      "name": "renounceOwnership",
      "outputs": [],
      "stateMutability": "nonpayable",
      "type": "function"
    },
    {
      "inputs": [
        {
          "internalType": "address",
          "name": "newOwner",
          "type": "address"
        }
      ],
      "name": "transferOwnership",
      "outputs": [],
      "stateMutability": "nonpayable",
      "type": "function"
    },
    {
      "inputs": [
        {
          "internalType": "string",
          "name": "id",
          "type": "string"
        },
        {
          "internalType": "string",
          "name": "url",
          "type": "string"
        }
      ],
      "name": "updateSemester",
      "outputs": [
        {
          "internalType": "bool",
          "name": "",
          "type": "bool"
        }
      ],
      "stateMutability": "nonpayable",
      "type": "function"
    }
  ],
  "bytecode": "0x6080604052600060015534801561001557600080fd5b5061003261002761003760201b60201c565b61003f60201b60201c565b610103565b600033905090565b60008060009054906101000a900473ffffffffffffffffffffffffffffffffffffffff169050816000806101000a81548173ffffffffffffffffffffffffffffffffffffffff021916908373ffffffffffffffffffffffffffffffffffffffff1602179055508173ffffffffffffffffffffffffffffffffffffffff168173ffffffffffffffffffffffffffffffffffffffff167f8be0079c531659141344cd1fd0a4f28419497f9722a3daafe3b4186f6b6457e060405160405180910390a35050565b61242180620001136000396000f3fe608060405234801561001057600080fd5b506004361061009e5760003560e01c80638da5cb5b116100665780638da5cb5b1461016d578063c0a7efb01461018b578063cf346e3d146101a9578063e0fdbc9f146101d9578063f2fde38b146102095761009e565b8063234b1029146100a357806331556643146100d357806344a4918d146101035780635b5c343d14610133578063715018a614610163575b600080fd5b6100bd60048036038101906100b891906118cb565b610225565b6040516100ca9190611efa565b60405180910390f35b6100ed60048036038101906100e8919061181e565b6103d4565b6040516100fa9190611efa565b60405180910390f35b61011d6004803603810190610118919061185f565b610547565b60405161012a9190611efa565b60405180910390f35b61014d6004803603810190610148919061181e565b610636565b60405161015a9190611f15565b60405180910390f35b61016b6106e9565b005b6101756106fd565b6040516101829190611ebd565b60405180910390f35b610193610726565b6040516101a09190612077565b60405180910390f35b6101c360048036038101906101be919061194a565b610730565b6040516101d09190611ed8565b60405180910390f35b6101f360048036038101906101ee91906117dd565b610b90565b6040516102009190611efa565b60405180910390f35b610223600480360381019061021e91906117b4565b610c0d565b005b600061022f610c91565b6102398484610d0f565b610278576040517f08c379a000000000000000000000000000000000000000000000000000000000815260040161026f90611fd7565b60405180910390fd5b60006102848585610e0f565b9050610291858583610e49565b156102d1576040517f08c379a00000000000000000000000000000000000000000000000000000000081526004016102c890611f77565b60405180910390fd5b8060036000600154815260200190815260200160002090805190602001906102fa92919061150a565b506040518060600160405280868152602001858152602001848152506002826040516103269190611e77565b9081526020016040518091039020600082015181600001908051906020019061035092919061150a565b5060208201518160010155604082015181600201908051906020019061037792919061150a565b509050506001600081548092919061038e906122d6565b91905055507fbf9e209486578dce952c592532e6bb250286cc3686fdcb00116f7b1c9e81dadf6040516103c090612057565b60405180910390a160019150509392505050565b60006103de610c91565b60006002836040516103f09190611e77565b9081526020016040518091039020600001805461040c906122a4565b90501161044e576040517f08c379a000000000000000000000000000000000000000000000000000000000815260040161044590611fb7565b60405180910390fd5b60028260405161045e9190611e77565b90815260200160405180910390206000808201600061047d9190611590565b60018201600090556002820160006104959190611590565b505060006104a283610f44565b905060036000600180546104b691906121e6565b8152602001908152602001600020600360008381526020019081526020016000209080546104e3906122a4565b6104ee9291906115d0565b50600180600082825461050191906121e6565b925050819055507fbf9e209486578dce952c592532e6bb250286cc3686fdcb00116f7b1c9e81dadf60405161053590611f37565b60405180910390a16001915050919050565b6000610551610c91565b60006002846040516105639190611e77565b9081526020016040518091039020600001805461057f906122a4565b9050116105c1576040517f08c379a00000000000000000000000000000000000000000000000000000000081526004016105b890611fb7565b60405180910390fd5b816002846040516105d29190611e77565b908152602001604051809103902060020190805190602001906105f692919061150a565b507fbf9e209486578dce952c592532e6bb250286cc3686fdcb00116f7b1c9e81dadf60405161062490612037565b60405180910390a16001905092915050565b60606002826040516106489190611e77565b90815260200160405180910390206002018054610664906122a4565b80601f0160208091040260200160405190810160405280929190818152602001828054610690906122a4565b80156106dd5780601f106106b2576101008083540402835291602001916106dd565b820191906000526020600020905b8154815290600101906020018083116106c057829003601f168201915b50505050509050919050565b6106f1610c91565b6106fb600061105d565b565b60008060009054906101000a900473ffffffffffffffffffffffffffffffffffffffff16905090565b6000600154905090565b606061073a610c91565b6107448383611121565b610783576040517f08c379a000000000000000000000000000000000000000000000000000000000815260040161077a90611f57565b60405180910390fd5b60006001848461079391906121e6565b61079d9190612190565b67ffffffffffffffff8111156107dc577f4e487b7100000000000000000000000000000000000000000000000000000000600052604160045260246000fd5b60405190808252806020026020018201604052801561081557816020015b61080261165d565b8152602001906001900390816107fa5790505b5090506000808590505b848111610b84576000600360008381526020019081526020016000208054610846906122a4565b80601f0160208091040260200160405190810160405280929190818152602001828054610872906122a4565b80156108bf5780601f10610894576101008083540402835291602001916108bf565b820191906000526020600020905b8154815290600101906020018083116108a257829003601f168201915b505050505090506108df816040518060200160405280600081525061114e565b15801561090d575060006002826040516108f99190611e77565b908152602001604051809103902060010154115b15610b70576002816040516109229190611e77565b9081526020016040518091039020600001805461093e906122a4565b80601f016020809104026020016040519081016040528092919081815260200182805461096a906122a4565b80156109b75780601f1061098c576101008083540402835291602001916109b7565b820191906000526020600020905b81548152906001019060200180831161099a57829003601f168201915b50505050508484815181106109f5577f4e487b7100000000000000000000000000000000000000000000000000000000600052603260045260246000fd5b602002602001015160000181905250600281604051610a149190611e77565b908152602001604051809103902060010154848481518110610a5f577f4e487b7100000000000000000000000000000000000000000000000000000000600052603260045260246000fd5b60200260200101516020018181525050600281604051610a7f9190611e77565b90815260200160405180910390206002018054610a9b906122a4565b80601f0160208091040260200160405190810160405280929190818152602001828054610ac7906122a4565b8015610b145780601f10610ae957610100808354040283529160200191610b14565b820191906000526020600020905b815481529060010190602001808311610af757829003601f168201915b5050505050848481518110610b52577f4e487b7100000000000000000000000000000000000000000000000000000000600052603260045260246000fd5b6020026020010151604001819052508280610b6c906122d6565b9350505b508080610b7c906122d6565b91505061081f565b50819250505092915050565b6000610b9a610c91565b60005b8251811015610c0357610bef838281518110610be2577f4e487b7100000000000000000000000000000000000000000000000000000000600052603260045260246000fd5b60200260200101516103d4565b508080610bfb906122d6565b915050610b9d565b5060019050919050565b610c15610c91565b600073ffffffffffffffffffffffffffffffffffffffff168173ffffffffffffffffffffffffffffffffffffffff161415610c85576040517f08c379a0000000000000000000000000000000000000000000000000000000008152600401610c7c90611f97565b60405180910390fd5b610c8e8161105d565b50565b610c996111a7565b73ffffffffffffffffffffffffffffffffffffffff16610cb76106fd565b73ffffffffffffffffffffffffffffffffffffffff1614610d0d576040517f08c379a0000000000000000000000000000000000000000000000000000000008152600401610d0490611ff7565b60405180910390fd5b565b60006107de8210158015610d2557506108338211155b15610e0457610d69836040518060400160405280600481526020017f46414c4c0000000000000000000000000000000000000000000000000000000081525061114e565b80610daf5750610dae836040518060400160405280600681526020017f535052494e47000000000000000000000000000000000000000000000000000081525061114e565b5b80610df55750610df4836040518060400160405280600681526020017f53554d4d4552000000000000000000000000000000000000000000000000000081525061114e565b5b15610e035760019050610e09565b5b600090505b92915050565b60606000610e1c836111af565b90508381604051602001610e31929190611e8e565b60405160208183030381529060405291505092915050565b6000610efe600283604051610e5e9190611e77565b90815260200160405180910390206000018054610e7a906122a4565b80601f0160208091040260200160405190810160405280929190818152602001828054610ea6906122a4565b8015610ef35780601f10610ec857610100808354040283529160200191610ef3565b820191906000526020600020905b815481529060010190602001808311610ed657829003601f168201915b50505050508561114e565b8015610f2a575082600283604051610f169190611e77565b908152602001604051809103902060010154145b15610f385760019050610f3d565b600090505b9392505050565b600080600090505b60015481101561101c57610ffb600360008381526020019081526020016000208054610f77906122a4565b80601f0160208091040260200160405190810160405280929190818152602001828054610fa3906122a4565b8015610ff05780601f10610fc557610100808354040283529160200191610ff0565b820191906000526020600020905b815481529060010190602001808311610fd357829003601f168201915b50505050508461114e565b156110095780915050611058565b8080611014906122d6565b915050610f4c565b506040517f08c379a000000000000000000000000000000000000000000000000000000000815260040161104f90612017565b60405180910390fd5b919050565b60008060009054906101000a900473ffffffffffffffffffffffffffffffffffffffff169050816000806101000a81548173ffffffffffffffffffffffffffffffffffffffff021916908373ffffffffffffffffffffffffffffffffffffffff1602179055508173ffffffffffffffffffffffffffffffffffffffff168173ffffffffffffffffffffffffffffffffffffffff167f8be0079c531659141344cd1fd0a4f28419497f9722a3daafe3b4186f6b6457e060405160405180910390a35050565b600080831015801561113557506001548211155b156111435760019050611148565b600090505b92915050565b6000816040516020016111619190611e77565b60405160208183030381529060405280519060200120836040516020016111889190611e77565b6040516020818303038152906040528051906020012014905092915050565b600033905090565b6060600060016111be846112d3565b01905060008167ffffffffffffffff811115611203577f4e487b7100000000000000000000000000000000000000000000000000000000600052604160045260246000fd5b6040519080825280601f01601f1916602001820160405280156112355781602001600182028036833780820191505090505b509050600082602001820190505b6001156112c8578080600190039150507f3031323334353637383961626364656600000000000000000000000000000000600a86061a8153600a85816112b2577f4e487b7100000000000000000000000000000000000000000000000000000000600052601260045260246000fd5b04945060008514156112c3576112c8565b611243565b819350505050919050565b600080600090507a184f03e93ff9f4daa797ed6e38ed64bf6a1f0100000000000000008310611357577a184f03e93ff9f4daa797ed6e38ed64bf6a1f010000000000000000838161134d577f4e487b7100000000000000000000000000000000000000000000000000000000600052601260045260246000fd5b0492506040810190505b6d04ee2d6d415b85acef810000000083106113ba576d04ee2d6d415b85acef810000000083816113b0577f4e487b7100000000000000000000000000000000000000000000000000000000600052601260045260246000fd5b0492506020810190505b662386f26fc10000831061140f57662386f26fc100008381611405577f4e487b7100000000000000000000000000000000000000000000000000000000600052601260045260246000fd5b0492506010810190505b6305f5e100831061145e576305f5e1008381611454577f4e487b7100000000000000000000000000000000000000000000000000000000600052601260045260246000fd5b0492506008810190505b61271083106114a957612710838161149f577f4e487b7100000000000000000000000000000000000000000000000000000000600052601260045260246000fd5b0492506004810190505b606483106114f257606483816114e8577f4e487b7100000000000000000000000000000000000000000000000000000000600052601260045260246000fd5b0492506002810190505b600a8310611501576001810190505b80915050919050565b828054611516906122a4565b90600052602060002090601f016020900481019282611538576000855561157f565b82601f1061155157805160ff191683800117855561157f565b8280016001018555821561157f579182015b8281111561157e578251825591602001919060010190611563565b5b50905061158c919061167e565b5090565b50805461159c906122a4565b6000825580601f106115ae57506115cd565b601f0160209004906000526020600020908101906115cc919061167e565b5b50565b8280546115dc906122a4565b90600052602060002090601f0160209004810192826115fe576000855561164c565b82601f1061160f578054855561164c565b8280016001018555821561164c57600052602060002091601f016020900482015b8281111561164b578254825591600101919060010190611630565b5b509050611659919061167e565b5090565b60405180606001604052806060815260200160008152602001606081525090565b5b8082111561169757600081600090555060010161167f565b5090565b60006116ae6116a9846120c3565b612092565b9050808382526020820190508260005b858110156116ee57813585016116d48882611775565b8452602084019350602083019250506001810190506116be565b5050509392505050565b600061170b611706846120ef565b612092565b90508281526020810184848401111561172357600080fd5b61172e848285612262565b509392505050565b600081359050611745816123bd565b92915050565b600082601f83011261175c57600080fd5b813561176c84826020860161169b565b91505092915050565b600082601f83011261178657600080fd5b81356117968482602086016116f8565b91505092915050565b6000813590506117ae816123d4565b92915050565b6000602082840312156117c657600080fd5b60006117d484828501611736565b91505092915050565b6000602082840312156117ef57600080fd5b600082013567ffffffffffffffff81111561180957600080fd5b6118158482850161174b565b91505092915050565b60006020828403121561183057600080fd5b600082013567ffffffffffffffff81111561184a57600080fd5b61185684828501611775565b91505092915050565b6000806040838503121561187257600080fd5b600083013567ffffffffffffffff81111561188c57600080fd5b61189885828601611775565b925050602083013567ffffffffffffffff8111156118b557600080fd5b6118c185828601611775565b9150509250929050565b6000806000606084860312156118e057600080fd5b600084013567ffffffffffffffff8111156118fa57600080fd5b61190686828701611775565b93505060206119178682870161179f565b925050604084013567ffffffffffffffff81111561193457600080fd5b61194086828701611775565b9150509250925092565b6000806040838503121561195d57600080fd5b600061196b8582860161179f565b925050602061197c8582860161179f565b9150509250929050565b60006119928383611e02565b905092915050565b6119a38161221a565b82525050565b60006119b48261212f565b6119be8185612152565b9350836020820285016119d08561211f565b8060005b85811015611a0c57848403895281516119ed8582611986565b94506119f883612145565b925060208a019950506001810190506119d4565b50829750879550505050505092915050565b611a278161222c565b82525050565b6000611a388261213a565b611a428185612163565b9350611a52818560208601612271565b611a5b816123ac565b840191505092915050565b6000611a718261213a565b611a7b8185612174565b9350611a8b818560208601612271565b611a94816123ac565b840191505092915050565b6000611aaa8261213a565b611ab48185612185565b9350611ac4818560208601612271565b80840191505092915050565b6000611add601183612174565b91507f53656d65737465722052656d6f766564210000000000000000000000000000006000830152602082019050919050565b6000611b1d602583612174565b91507f506167696e6174696f6e20636f6f7264696e617465732065786365656473206c60008301527f696d6974210000000000000000000000000000000000000000000000000000006020830152604082019050919050565b6000611b83600a83612174565b91507f49642065786973747321000000000000000000000000000000000000000000006000830152602082019050919050565b6000611bc3602683612174565b91507f4f776e61626c653a206e6577206f776e657220697320746865207a65726f206160008301527f64647265737300000000000000000000000000000000000000000000000000006020830152604082019050919050565b6000611c29601783612174565b91507f53656d657374657220646f6573206e6f742065786973740000000000000000006000830152602082019050919050565b6000611c69600e83612174565b91507f466f726d617420496e76616c69640000000000000000000000000000000000006000830152602082019050919050565b6000611ca9602083612174565b91507f4f776e61626c653a2063616c6c6572206973206e6f7420746865206f776e65726000830152602082019050919050565b6000611ce9602183612174565b91507f53656d6573746572206e6f7420666f756e6420696e2073656d6573746572496460008301527f73000000000000000000000000000000000000000000000000000000000000006020830152604082019050919050565b6000611d4f601183612174565b91507f53656d65737465722055706461746564210000000000000000000000000000006000830152602082019050919050565b6000611d8f600183612185565b91507f5f000000000000000000000000000000000000000000000000000000000000006000830152600182019050919050565b6000611dcf600f83612174565b91507f53656d65737465722041646465642100000000000000000000000000000000006000830152602082019050919050565b60006060830160008301518482036000860152611e1f8282611a2d565b9150506020830151611e346020860182611e59565b5060408301518482036040860152611e4c8282611a2d565b9150508091505092915050565b611e6281612258565b82525050565b611e7181612258565b82525050565b6000611e838284611a9f565b915081905092915050565b6000611e9a8285611a9f565b9150611ea582611d82565b9150611eb18284611a9f565b91508190509392505050565b6000602082019050611ed2600083018461199a565b92915050565b60006020820190508181036000830152611ef281846119a9565b905092915050565b6000602082019050611f0f6000830184611a1e565b92915050565b60006020820190508181036000830152611f2f8184611a66565b905092915050565b60006020820190508181036000830152611f5081611ad0565b9050919050565b60006020820190508181036000830152611f7081611b10565b9050919050565b60006020820190508181036000830152611f9081611b76565b9050919050565b60006020820190508181036000830152611fb081611bb6565b9050919050565b60006020820190508181036000830152611fd081611c1c565b9050919050565b60006020820190508181036000830152611ff081611c5c565b9050919050565b6000602082019050818103600083015261201081611c9c565b9050919050565b6000602082019050818103600083015261203081611cdc565b9050919050565b6000602082019050818103600083015261205081611d42565b9050919050565b6000602082019050818103600083015261207081611dc2565b9050919050565b600060208201905061208c6000830184611e68565b92915050565b6000604051905081810181811067ffffffffffffffff821117156120b9576120b861237d565b5b8060405250919050565b600067ffffffffffffffff8211156120de576120dd61237d565b5b602082029050602081019050919050565b600067ffffffffffffffff82111561210a5761210961237d565b5b601f19601f8301169050602081019050919050565b6000819050602082019050919050565b600081519050919050565b600081519050919050565b6000602082019050919050565b600082825260208201905092915050565b600082825260208201905092915050565b600082825260208201905092915050565b600081905092915050565b600061219b82612258565b91506121a683612258565b9250827fffffffffffffffffffffffffffffffffffffffffffffffffffffffffffffffff038211156121db576121da61231f565b5b828201905092915050565b60006121f182612258565b91506121fc83612258565b92508282101561220f5761220e61231f565b5b828203905092915050565b600061222582612238565b9050919050565b60008115159050919050565b600073ffffffffffffffffffffffffffffffffffffffff82169050919050565b6000819050919050565b82818337600083830152505050565b60005b8381101561228f578082015181840152602081019050612274565b8381111561229e576000848401525b50505050565b600060028204905060018216806122bc57607f821691505b602082108114156122d0576122cf61234e565b5b50919050565b60006122e182612258565b91507fffffffffffffffffffffffffffffffffffffffffffffffffffffffffffffffff8214156123145761231361231f565b5b600182019050919050565b7f4e487b7100000000000000000000000000000000000000000000000000000000600052601160045260246000fd5b7f4e487b7100000000000000000000000000000000000000000000000000000000600052602260045260246000fd5b7f4e487b7100000000000000000000000000000000000000000000000000000000600052604160045260246000fd5b6000601f19601f8301169050919050565b6123c68161221a565b81146123d157600080fd5b50565b6123dd81612258565b81146123e857600080fd5b5056fea2646970667358221220ea481c60b5e8989ffcae84c8d5d463f6eb5267525730cf21f94bd0b556219fed64736f6c63430008000033",
  "linkReferences": {},
  "deployedLinkReferences": {}
}