{
  "_format": "hh-sol-artifact-1",
  "contractName": "SemesterStore",
  "sourceName": "contracts/SemesterResult.sol",
  "abi": [
    {
      "anonymous": false,
      "inputs": [
        {
          "indexed": true,
          "internalType": "address",
          "name": "previousOwner",
          "type": "address"
        },
        {
          "indexed": true,
          "internalType": "address",
          "name": "newOwner",
          "type": "address"
        }
      ],
      "name": "OwnershipTransferred",
      "type": "event"
    },
    {
      "anonymous": false,
      "inputs": [
        {
          "indexed": false,
          "internalType": "string",
          "name": "operation",
          "type": "string"
        }
      ],
      "name": "SemesterOperation",
      "type": "event"
    },
    {
      "inputs": [
        {
          "internalType": "string",
          "name": "semesterType",
          "type": "string"
        },
        {
          "internalType": "uint256",
          "name": "year",
          "type": "uint256"
        },
        {
          "internalType": "string",
          "name": "url",
          "type": "string"
        }
      ],
      "name": "addSemester",
      "outputs": [
        {
          "internalType": "bool",
          "name": "",
          "type": "bool"
        }
      ],
      "stateMutability": "nonpayable",
      "type": "function"
    },
    {
      "inputs": [
        {
          "internalType": "string",
          "name": "id",
          "type": "string"
        }
      ],
      "name": "getSemester",
      "outputs": [
        {
          "internalType": "string",
          "name": "",
          "type": "string"
        }
      ],
      "stateMutability": "view",
      "type": "function"
    },
    {
      "inputs": [],
      "name": "owner",
      "outputs": [
        {
          "internalType": "address",
          "name": "",
          "type": "address"
        }
      ],
      "stateMutability": "view",
      "type": "function"
    },
    {
      "inputs": [
        {
          "internalType": "string",
          "name": "id",
          "type": "string"
        }
      ],
      "name": "removeSemester",
      "outputs": [
        {
          "internalType": "bool",
          "name": "",
          "type": "bool"
        }
      ],
      "stateMutability": "nonpayable",
      "type": "function"
    },
    {
      "inputs": [],
      "name": "renounceOwnership",
      "outputs": [],
      "stateMutability": "nonpayable",
      "type": "function"
    },
    {
      "inputs": [
        {
          "internalType": "address",
          "name": "newOwner",
          "type": "address"
        }
      ],
      "name": "transferOwnership",
      "outputs": [],
      "stateMutability": "nonpayable",
      "type": "function"
    },
    {
      "inputs": [
        {
          "internalType": "string",
          "name": "semesterType",
          "type": "string"
        },
        {
          "internalType": "uint256",
          "name": "year",
          "type": "uint256"
        },
        {
          "internalType": "string",
          "name": "url",
          "type": "string"
        }
      ],
      "name": "updateSemester",
      "outputs": [
        {
          "internalType": "bool",
          "name": "",
          "type": "bool"
        }
      ],
      "stateMutability": "nonpayable",
      "type": "function"
    }
  ],
  "bytecode": "0x608060405234801561001057600080fd5b5061002d61002261003260201b60201c565b61003a60201b60201c565b6100fe565b600033905090565b60008060009054906101000a900473ffffffffffffffffffffffffffffffffffffffff169050816000806101000a81548173ffffffffffffffffffffffffffffffffffffffff021916908373ffffffffffffffffffffffffffffffffffffffff1602179055508173ffffffffffffffffffffffffffffffffffffffff168173ffffffffffffffffffffffffffffffffffffffff167f8be0079c531659141344cd1fd0a4f28419497f9722a3daafe3b4186f6b6457e060405160405180910390a35050565b6116f88061010d6000396000f3fe608060405234801561001057600080fd5b506004361061007d5760003560e01c8063715018a61161005b578063715018a6146101125780638da5cb5b1461011c578063d4feee7d1461013a578063f2fde38b1461016a5761007d565b8063234b10291461008257806331556643146100b25780635b5c343d146100e2575b600080fd5b61009c60048036038101906100979190610fd6565b610186565b6040516100a991906113a4565b60405180910390f35b6100cc60048036038101906100c79190610f95565b6102fa565b6040516100d991906113a4565b60405180910390f35b6100fc60048036038101906100f79190610f95565b610393565b60405161010991906113bf565b60405180910390f35b61011a610446565b005b61012461045a565b6040516101319190611389565b60405180910390f35b610154600480360381019061014f9190610fd6565b610483565b60405161016191906113a4565b60405180910390f35b610184600480360381019061017f9190610f6c565b6105f6565b005b600061019061067a565b61019a84846106f8565b6101d9576040517f08c379a00000000000000000000000000000000000000000000000000000000081526004016101d090611441565b60405180910390fd5b60006101e585856107f8565b90506101f2858583610832565b15610232576040517f08c379a000000000000000000000000000000000000000000000000000000000815260040161022990611401565b60405180910390fd5b60405180606001604052808681526020018581526020018481525060018260405161025d9190611343565b90815260200160405180910390206000820151816000019080519060200190610287929190610df7565b506020820151816001015560408201518160020190805190602001906102ae929190610df7565b509050507fbf9e209486578dce952c592532e6bb250286cc3686fdcb00116f7b1c9e81dadf6040516102df906114c1565b60405180910390a16102f08161092d565b9150509392505050565b600061030461067a565b6001826040516103149190611343565b9081526020016040518091039020600080820160006103339190610e7d565b600182016000905560028201600061034b9190610e7d565b50507fbf9e209486578dce952c592532e6bb250286cc3686fdcb00116f7b1c9e81dadf60405161037a906113e1565b60405180910390a161038b8261092d565b159050919050565b60606001826040516103a59190611343565b908152602001604051809103902060020180546103c1906115f3565b80601f01602080910402602001604051908101604052809291908181526020018280546103ed906115f3565b801561043a5780601f1061040f5761010080835404028352916020019161043a565b820191906000526020600020905b81548152906001019060200180831161041d57829003601f168201915b50505050509050919050565b61044e61067a565b6104586000610977565b565b60008060009054906101000a900473ffffffffffffffffffffffffffffffffffffffff16905090565b600061048d61067a565b61049784846106f8565b6104d6576040517f08c379a00000000000000000000000000000000000000000000000000000000081526004016104cd90611441565b60405180910390fd5b60006104e285856107f8565b90506104ef858583610832565b61052e576040517f08c379a0000000000000000000000000000000000000000000000000000000008152600401610525906114a1565b60405180910390fd5b6040518060600160405280868152602001858152602001848152506001826040516105599190611343565b90815260200160405180910390206000820151816000019080519060200190610583929190610df7565b506020820151816001015560408201518160020190805190602001906105aa929190610df7565b509050507fbf9e209486578dce952c592532e6bb250286cc3686fdcb00116f7b1c9e81dadf6040516105db90611481565b60405180910390a16105ec8161092d565b9150509392505050565b6105fe61067a565b600073ffffffffffffffffffffffffffffffffffffffff168173ffffffffffffffffffffffffffffffffffffffff16141561066e576040517f08c379a000000000000000000000000000000000000000000000000000000000815260040161066590611421565b60405180910390fd5b61067781610977565b50565b610682610a3b565b73ffffffffffffffffffffffffffffffffffffffff166106a061045a565b73ffffffffffffffffffffffffffffffffffffffff16146106f6576040517f08c379a00000000000000000000000000000000000000000000000000000000081526004016106ed90611461565b60405180910390fd5b565b60006107de821015801561070e57506108338211155b156107ed57610752836040518060400160405280600481526020017f46414c4c00000000000000000000000000000000000000000000000000000000815250610a43565b806107985750610797836040518060400160405280600681526020017f535052494e470000000000000000000000000000000000000000000000000000815250610a43565b5b806107de57506107dd836040518060400160405280600681526020017f53554d4d45520000000000000000000000000000000000000000000000000000815250610a43565b5b156107ec57600190506107f2565b5b600090505b92915050565b6060600061080583610a9c565b9050838160405160200161081a92919061135a565b60405160208183030381529060405291505092915050565b60006108e76001836040516108479190611343565b90815260200160405180910390206000018054610863906115f3565b80601f016020809104026020016040519081016040528092919081815260200182805461088f906115f3565b80156108dc5780601f106108b1576101008083540402835291602001916108dc565b820191906000526020600020905b8154815290600101906020018083116108bf57829003601f168201915b505050505085610a43565b80156109135750826001836040516108ff9190611343565b908152602001604051809103902060010154145b156109215760019050610926565b600090505b9392505050565b6000806001836040516109409190611343565b9081526020016040518091039020600001805461095c906115f3565b9050111561096d5760019050610972565b600090505b919050565b60008060009054906101000a900473ffffffffffffffffffffffffffffffffffffffff169050816000806101000a81548173ffffffffffffffffffffffffffffffffffffffff021916908373ffffffffffffffffffffffffffffffffffffffff1602179055508173ffffffffffffffffffffffffffffffffffffffff168173ffffffffffffffffffffffffffffffffffffffff167f8be0079c531659141344cd1fd0a4f28419497f9722a3daafe3b4186f6b6457e060405160405180910390a35050565b600033905090565b600081604051602001610a569190611343565b6040516020818303038152906040528051906020012083604051602001610a7d9190611343565b6040516020818303038152906040528051906020012014905092915050565b606060006001610aab84610bc0565b01905060008167ffffffffffffffff811115610af0577f4e487b7100000000000000000000000000000000000000000000000000000000600052604160045260246000fd5b6040519080825280601f01601f191660200182016040528015610b225781602001600182028036833780820191505090505b509050600082602001820190505b600115610bb5578080600190039150507f3031323334353637383961626364656600000000000000000000000000000000600a86061a8153600a8581610b9f577f4e487b7100000000000000000000000000000000000000000000000000000000600052601260045260246000fd5b0494506000851415610bb057610bb5565b610b30565b819350505050919050565b600080600090507a184f03e93ff9f4daa797ed6e38ed64bf6a1f0100000000000000008310610c44577a184f03e93ff9f4daa797ed6e38ed64bf6a1f0100000000000000008381610c3a577f4e487b7100000000000000000000000000000000000000000000000000000000600052601260045260246000fd5b0492506040810190505b6d04ee2d6d415b85acef81000000008310610ca7576d04ee2d6d415b85acef81000000008381610c9d577f4e487b7100000000000000000000000000000000000000000000000000000000600052601260045260246000fd5b0492506020810190505b662386f26fc100008310610cfc57662386f26fc100008381610cf2577f4e487b7100000000000000000000000000000000000000000000000000000000600052601260045260246000fd5b0492506010810190505b6305f5e1008310610d4b576305f5e1008381610d41577f4e487b7100000000000000000000000000000000000000000000000000000000600052601260045260246000fd5b0492506008810190505b6127108310610d96576127108381610d8c577f4e487b7100000000000000000000000000000000000000000000000000000000600052601260045260246000fd5b0492506004810190505b60648310610ddf5760648381610dd5577f4e487b7100000000000000000000000000000000000000000000000000000000600052601260045260246000fd5b0492506002810190505b600a8310610dee576001810190505b80915050919050565b828054610e03906115f3565b90600052602060002090601f016020900481019282610e255760008555610e6c565b82601f10610e3e57805160ff1916838001178555610e6c565b82800160010185558215610e6c579182015b82811115610e6b578251825591602001919060010190610e50565b5b509050610e799190610ebd565b5090565b508054610e89906115f3565b6000825580601f10610e9b5750610eba565b601f016020900490600052602060002090810190610eb99190610ebd565b5b50565b5b80821115610ed6576000816000905550600101610ebe565b5090565b6000610eed610ee884611512565b6114e1565b905082815260208101848484011115610f0557600080fd5b610f108482856115b1565b509392505050565b600081359050610f2781611694565b92915050565b600082601f830112610f3e57600080fd5b8135610f4e848260208601610eda565b91505092915050565b600081359050610f66816116ab565b92915050565b600060208284031215610f7e57600080fd5b6000610f8c84828501610f18565b91505092915050565b600060208284031215610fa757600080fd5b600082013567ffffffffffffffff811115610fc157600080fd5b610fcd84828501610f2d565b91505092915050565b600080600060608486031215610feb57600080fd5b600084013567ffffffffffffffff81111561100557600080fd5b61101186828701610f2d565b935050602061102286828701610f57565b925050604084013567ffffffffffffffff81111561103f57600080fd5b61104b86828701610f2d565b9150509250925092565b61105e81611569565b82525050565b61106d8161157b565b82525050565b600061107e82611542565b611088818561154d565b93506110988185602086016115c0565b6110a181611683565b840191505092915050565b60006110b782611542565b6110c1818561155e565b93506110d18185602086016115c0565b80840191505092915050565b60006110ea60118361154d565b91507f53656d65737465722052656d6f766564210000000000000000000000000000006000830152602082019050919050565b600061112a600a8361154d565b91507f49642065786973747321000000000000000000000000000000000000000000006000830152602082019050919050565b600061116a60268361154d565b91507f4f776e61626c653a206e6577206f776e657220697320746865207a65726f206160008301527f64647265737300000000000000000000000000000000000000000000000000006020830152604082019050919050565b60006111d0600e8361154d565b91507f466f726d617420496e76616c69640000000000000000000000000000000000006000830152602082019050919050565b600061121060208361154d565b91507f4f776e61626c653a2063616c6c6572206973206e6f7420746865206f776e65726000830152602082019050919050565b600061125060118361154d565b91507f53656d65737465722055706461746564210000000000000000000000000000006000830152602082019050919050565b600061129060108361154d565b91507f496420646f65736e7420657869737421000000000000000000000000000000006000830152602082019050919050565b60006112d060018361155e565b91507f5f000000000000000000000000000000000000000000000000000000000000006000830152600182019050919050565b6000611310600f8361154d565b91507f53656d65737465722041646465642100000000000000000000000000000000006000830152602082019050919050565b600061134f82846110ac565b915081905092915050565b600061136682856110ac565b9150611371826112c3565b915061137d82846110ac565b91508190509392505050565b600060208201905061139e6000830184611055565b92915050565b60006020820190506113b96000830184611064565b92915050565b600060208201905081810360008301526113d98184611073565b905092915050565b600060208201905081810360008301526113fa816110dd565b9050919050565b6000602082019050818103600083015261141a8161111d565b9050919050565b6000602082019050818103600083015261143a8161115d565b9050919050565b6000602082019050818103600083015261145a816111c3565b9050919050565b6000602082019050818103600083015261147a81611203565b9050919050565b6000602082019050818103600083015261149a81611243565b9050919050565b600060208201905081810360008301526114ba81611283565b9050919050565b600060208201905081810360008301526114da81611303565b9050919050565b6000604051905081810181811067ffffffffffffffff8211171561150857611507611654565b5b8060405250919050565b600067ffffffffffffffff82111561152d5761152c611654565b5b601f19601f8301169050602081019050919050565b600081519050919050565b600082825260208201905092915050565b600081905092915050565b600061157482611587565b9050919050565b60008115159050919050565b600073ffffffffffffffffffffffffffffffffffffffff82169050919050565b6000819050919050565b82818337600083830152505050565b60005b838110156115de5780820151818401526020810190506115c3565b838111156115ed576000848401525b50505050565b6000600282049050600182168061160b57607f821691505b6020821081141561161f5761161e611625565b5b50919050565b7f4e487b7100000000000000000000000000000000000000000000000000000000600052602260045260246000fd5b7f4e487b7100000000000000000000000000000000000000000000000000000000600052604160045260246000fd5b6000601f19601f8301169050919050565b61169d81611569565b81146116a857600080fd5b50565b6116b4816115a7565b81146116bf57600080fd5b5056fea26469706673582212201974789e94995064c39714fb898e31c3dc3be5c921331296bdf1f358f02c6b5264736f6c63430008000033",
  "linkReferences": {},
  "deployedLinkReferences": {}
}